:020000040800F2
:10000000B04E00200D0300083D2C0008D526000846
:10001000CF290008830500081537000800000000FC
:100020000000000000000000000000004D02000879
:10003000D908000800000000A9020008A931000842
:1000400027030008270300082703000827030008E8
:1000500027030008270300082703000827030008D8
:1000600027030008270300082703000827030008C8
:1000700027030008270300082703000827030008B8
:10008000270300082703000827030008910500083C
:100090008505000827030008270300082703000838
:1000A0002703000879320008270300082703000807
:1000B0002703000827030008270300082703000878
:1000C0002703000827030008270300082703000868
:1000D00027030008FD36000827030008270300084F
:1000E0002703000827030008270300082703000848
:1000F0002703000827030008270300082703000838
:100100002703000827030008270300082703000827
:100110002703000827030008270300082703000817
:100120002703000827030008290800082703000800
:1001300027030008270300082703000827030008F7
:1001400027030008270300082703000827030008E7
:1001500027030008270300082703000827030008D7
:1001600027030008270300082703000827030008C7
:1001700027030008270300082703000800000000E9
:1001800027030008270300082703000827030008A7
:100190002703000827030008270300082703000897
:1001A00000000000000000002703000800F002F833
:1001B00000F03CF80AA090E8000C82448344AAF1C5
:1001C0000107DA4501D100F031F8AFF2090EBAE8C3
:1001D0000F0013F0010F18BFFB1A43F0010318477B
:1001E0002C5200004C520000103A24BF78C878C14D
:1001F000FAD8520724BF30C830C144BF04680C602D
:10020000704700000023002400250026103A28BF74
:1002100078C1FBD8520728BF30C148BF0B60704778
:100220001FB505F072F81FBD10B510BD00F074F9D0
:100230001146FFF7F5FF04F041F800F092F903B41E
:10024000FFF7F2FF03BC00F095F900002C4B196892
:100250000868B0E8F04F80F30988BFF36F8F4FF064
:10026000000080F311887047000000000848006813
:10027000006880F308884FF0000080F3148862B6AD
:1002800061B6BFF34F8FBFF36F8F00DF00BF00BFBA
:1002900008ED00E0DFF80C00016841F47001016036
:1002A000704700BF88ED00E0EFF30980BFF36F8F68
:1002B000134B1A681EF0100F08BF20ED108A20E9BA
:1002C000F04F106009B44FF0500080F31188BFF375
:1002D0004F8FBFF36F8F04F09DFB4FF0000080F352
:1002E000118809BC19680868B0E8F04F1EF0100FBB
:1002F00008BFB0EC108A80F30988BFF36F8F704796
:1003000020000020EFF30580704700000948804777
:1003100009480047FEE7FEE7FEE7FEE7FEE7FEE7E7
:10032000FEE7FEE7FEE7FEE704480549054A064BFF
:100330007047000069320008AD010008B048002095
:10034000B04E0020B04A0020B04A002053EA020C10
:1003500000F069802DE9F04B4FF00006002B1FBF25
:10036000B3FA83F503FA05F424FA05F65E4012BFEA
:100370001643B2FA82F502FA05F4C5F120051EBF54
:1003800022FA05FC44EA0C04203556EA044C4FEAF4
:10039000144418BF641C4FF000084FF0000990424D
:1003A00071EB030C39D3002919BFB1FA81F701FAB7
:1003B00007F6B0FA80F700FA07F6C7F120071EBF6C
:1003C00020FA07FC46EA0C062037B6FBF4FCA7EB44
:1003D0000507103F07F01F0BCBF120060CFA0BFBB3
:1003E0002CFA06F644BFB3460026202FA4BF5E4673
:1003F0004FF0000B5BEA060C08BF4FF0010B19EB46
:100400000B09ABFB027C48EB0608C01B06FB02CCC9
:100410000BFB03CC71EB0C01C1E70B4602464146D6
:100420004846BDE8F08B13B54FF000004FF00001D7
:10043000AFF30080BDE81C40704710B5203AC0F013
:100440000B80B1E81850203AA0E81850B1E81850D5
:10045000A0E81850BFF4F5AF5FEA027C24BFB1E812
:100460001850A0E8185044BF18C918C0BDE8104083
:100470005FEA827C24BF51F8043B40F8043B08BF8C
:100480007047D20728BF31F8023B48BF11F8012B53
:1004900028BF20F8023B48BF00F8012B70474FF0FF
:1004A000000200B5134694469646203922BFA0E8C4
:1004B0000C50A0E80C50B1F12001BFF4F7AF0907D0
:1004C00028BFA0E80C5048BF0CC05DF804EB8900C1
:1004D00028BF40F8042B08BF704748BF20F8022B04
:1004E00011F0804F18BF00F8012B7047704770471C
:1004F000704710B500F008F8006810BD10B504464C
:1005000000F002F8046010BD004870475048002019
:1005100000487047504800207546FFF7F9FFAE4687
:1005200005006946534620F00700854618B020B5FF
:10053000FFF7FAFEBDE820404FF000064FF000073D
:100540004FF000084FF0000B21F00701AC46ACE87B
:10055000C009ACE8C009ACE8C009ACE8C0098D46E8
:10056000704710B50446AFF300802046BDE8104048
:10057000FFF765BE01491820ABBEFEE7260002006A
:100580007047FEE7014800F0C4BB00000C030020E8
:10059000014800F0BEBB00000C03002000B58BB08A
:1005A00000200121CDE90601089100900190029000
:1005B0000390059004906946054800F0AFFA04489E
:1005C00000F0D2FD0221024800F032FA0BB000BD6B
:1005D0000C03002010B5D1E900329A1A4B60D0F814
:1005E000943003EBD374B2EB640F00DDD21A6410C5
:1005F0006442944200DD1A4400EE102AD0ED100A45
:10060000B8EEC00A30EE800ADFED060A80ED100A6F
:1006100091ED030AB8EEC00A20EE200A80ED040A2C
:1006200010BD000063CF0B3E0C480121C0F8A410A0
:100630000221C0F84C110321C0F8F4110421C0F8C4
:100640009C120521C0F844130621C0F8EC130721C1
:10065000C0F894140821C0F83C157047AC41002044
:100660002DED088B4FF47A6003F048FE02F0E7FAB4
:1006700055499FED568A5648B0EE480A03F0F0FC03
:1006800051495348091DB0EE480A103003F0E8FC08
:10069000012003F08BFDDFF838814E4E08F1100980
:1006A0009FED4DBA4D4D4E4CF1EE0CBAA8F14407FA
:1006B0009FED4C8ADFED4CAADFED4C8AB0EE049A38
:1006C000DFED4B9A9FED4BAAB6F9080000EE100A39
:1006D000F8EEC00A80EE8B0A85ED000AB6F90C0030
:1006E00000EE900AF8EEE00A80EE8B1A85ED011A12
:1006F000B6F90A0000EE900A3548F8EEE00A80EEFE
:10070000AB1A85ED021A03F095FC314895ED010A0C
:10071000103003F08FFC98ED010A314887ED000A94
:10072000D9ED010AC7ED010A95ED021A03F0A8FC04
:1007300094ED030A012020EE080AC0EE2A0A80EE9A
:10074000880A02F015FB94ED070A022020EE080A41
:10075000C0EE2A0A80EE880A02F00AFB94ED0B0A2A
:10076000032020EE080AC0EE2A0A80EE880A02F072
:10077000FFFAD4ED010A002080EEA80A20EE090A53
:1007800020EE290A20EE0A0A02F0F4FCD4ED050A54
:10079000012080EEA80A20EE090A20EE290A20EEA8
:1007A0000A0A02F0E7FC94ED090A0220C0EE280ACA
:1007B00020EE890A20EE290A20EE0A0A02F0DAFC6D
:1007C000032003F09BFD7FE7B05300080AD7233CCA
:1007D000D0470020F047002000009643A4000020EE
:1007E00018480020000070428EC2353E0000B4431D
:1007F0000000004600001042FFF716FF052202210C
:10080000002000F06BF805220221012000F066F8BC
:1008100002210522084600F061F800BF02F0D8F876
:10082000012003F06BFDF9E7014800F02BBD00004B
:10083000C003002001681823CAB2103AB2FBF3F2D9
:10084000054B6FF30901032A9B5CC36500D9091DA1
:1008500081650846704700009053000810B50146B6
:1008600000208B698A6A4FF0C07453B1B3F5005F02
:1008700015D072B1012A0CD0022A0AD0032A09D15C
:1008800004E01AB1012A06D0022A03D1C96AC901BB
:1008900000D5012010BDC96AA142FAD010BD002ABE
:1008A000F7D0012AF2D0022AF3D0032AF3D010BDE8
:1008B00030B50468256825F48025256004686360E8
:1008C0008368402B036803D099600068C26030BD24
:1008D0009A600068C16030BD704700002DE9F041AA
:1008E000C0EBC0033A4D03EB4306174605EBC604C5
:1008F000012222725203C4F894209FED361A00EBB5
:10090000800305F5A86202EB830884ED101A88F8CD
:10091000081002F05FF998F80800DFED2F1A9FED3C
:100920002F0ADFED2F0A01282CD0022828D145F804
:1009300036709FED2C2ADFED2C2A84ED0B2AC4EDB6
:100940000C2AF1EE082AC4ED0F2ADFED282AC4EDA7
:10095000072A84ED182A9FED262A84ED172AC4ED74
:100960001B1A84ED090A84ED0A0A84ED051A84ED48
:10097000150A9FED200A00BF84ED140AC4ED1A0A7F
:10098000BDE8F0819FED1C2A45F8367084ED0B2AF6
:100990009FED1A2A84ED0C2AB3EE042A84ED0F2A67
:1009A0009FED172A84ED072A9FED162A84ED181A69
:1009B00084ED172AC4ED1B1A84ED090A84ED0A0A96
:1009C00084ED051A84ED150A9FED0F0AD4E70000A7
:1009D000AC41002000000000CDCC4C3F00007A4428
:1009E000000020C3CDCC4C3DA69B443B00001645E7
:1009F0001B2FDD3C0000E143CDCCCC3D6F12833A90
:100A00000000A044AE47E13D0000484272B6FEE758
:100A100010EE100A10B50549040E020CCC70030A42
:100A200008704B708A70084610BD0000A0000020BE
:100A300090F82020012A07D0022A05D0416A41F40B
:100A40008021416201207047006842690A43426187
:100A500000207047F0B590F820500468A468012D7C
:100A600005D0022D03D0416A41F4802153E014F0F7
:100A7000406F01D1E5004BD5C4F30164022C03D9CA
:100A8000416A41F4000146E00125A5401D608D68E2
:100A90004FF4C0739DB1CE6835434E6845EAC60534
:100AA000066803EB0417F5514FF4C275076805EBB0
:100AB00004150E697E51097D012905D009E00E88D3
:100AC000CD6845EA4655EBE701684E5946F4807615
:100AD0004E511179D2F805504FF4C67641EA0525FA
:100AE000016806EB04168D511178D2F801204FF4FD
:100AF000C47541EA0221026805EB041551510068F2
:100B000003EB0411425842F0010242500020F0BDB4
:100B1000416A41F4001141620120F0BD10B590F826
:100B20002020012A07D0022A05D0416A41F4802101
:100B30004162012010BD3B48D0F8002242F0010282
:100B4000C0F80022D0F8002222F47C52C0F8002223
:100B5000D0F800224B6A42EA0322C0F800220A7D44
:100B600002F01F0301229A40D0F81C329343C0F8D0
:100B70001C32CB69B3B9D0F80C329343C0F80C32B5
:100B80008C894B6864F31F434C6900EBC404C4F8C0
:100B900040320C890B6864F31F434C6900EBC404BA
:100BA000C4F84432CB69012B16D1D0F80C32134370
:100BB000C0F80C320C884B6864F31F434C6900EB9F
:100BC000C404C4F840320C89CB6864F31F434C69F9
:100BD00000EBC404C4F844328B69002BD0F8043213
:100BE0000ED01343C0F804320B69002BD0F8143236
:100BF00008D01343C0F81432096A012904D008E070
:100C00009343EFE79343F5E7D0F81C121143C0F884
:100C10001C12D0F8001221F00101C0F800120020CF
:100C200010BD000000640040704730B590F82040CF
:100C3000012C05D0022C03D0416A41F480215DE0F3
:100C40000468002955D02469A40754D04FF4D874FF
:100C5000056804EB01142D5915F00405956005682D
:100C60002D594ED0ED08556005682C5904F002044A
:100C7000D4604FF4DA74056804EB01142D5905F0C3
:100C80000F05156105682D59C5F3072595610568A0
:100C90002C59240C54614FF4DC72046802EB0112ED
:100CA000A4581C700468A458240A5C700468A458F2
:100CB000240C9C700468A258120EDA704FF4DE7295
:100CC000046802EB0112A4581C710468A458240A99
:100CD0005C710468A458240C9C710468A258120E1C
:100CE000DA71006881B1016941F0200101610020E1
:100CF00030BDE468A8E7416A41F400114162012077
:100D000030BD6D0D1560AFE7C16841F02001C160D5
:100D1000EDE72DE9F05F0546006800244669D0F84C
:100D200004908768D0F80CB0D0F810A0D0F81880E4
:100D3000F10748D0F90714D001218160B80703D525
:100D4000284600F03EFA0CE0780702D54FF4006424
:100D500007E0380702D54FF4805402E0284600F03F
:100D60002FFAF80516D529684FF480708860B80509
:100D700003D5284600F027FA0CE0780502D544F4A4
:100D8000005407E0380502D544F4804402E02846C8
:100D900000F018FAF80316D529684FF480308860FF
:100DA000B80303D5284600F010FA0CE0780302D50A
:100DB00044F4004407E0380302D544F4803402E0F0
:100DC000284600F001FA300707D55FEACB6004D56A
:100DD0002968102044F40074C86070074FF00807B9
:100DE00007D55FEA0B7004D52868C760284600F075
:100DF0005FF9B00706D52868C068800702D028468A
:100E000000F058F9700607D55FEACA6004D5296872
:100E1000102044F480640861B00607D55FEA0A70C8
:100E200004D528680761284600F09AF9F00606D52F
:100E300028680069800702D0284600F092F9B003C4
:100E400008D55FEAC96005D52968102048602846A2
:100E500000F088F9F00307D55FEA097004D5286827
:100E60004760284600F0B2F9300446D55FEA497081
:100E700040D5F00504D55FEAC87001D044F0010404
:100E8000B00504D55FEA887001D544F0020470050E
:100E900004D55FEA487001D544F00404300529D533
:100EA00018F0700F26D008F07000402815D006DC2E
:100EB000102809D020280AD0302816D10AE050285E
:100EC0000ED0602811D10EE044F008040DE044F08B
:100ED00010040AE044F0200407E044F0400404E079
:100EE00044F0800401E044F480742868816921F0B2
:100EF00070018161296804204860002C05D0686A6F
:100F0000204368622846FFF78FFEBDE8F09F70B56A
:100F1000040003D094F8200010B104E0012070BD5B
:100F2000204600F081F82068016841F0010101606D
:100F300000F02EFC0546052604E000F029FC401BCD
:100F40000A2811D820684068C007F6D020680168D8
:100F500021F00201016000F01BFC05460BE000F0EF
:100F600017FC401B0A2806D9606A40F40030606212
:100F700084F82060D2E7206840688007EFD4207EA4
:100F80000128206801683DD021F080010160607E69
:100F900001282068016838D021F040010160A07E5E
:100FA00001282068016833D021F020010160E07E33
:100FB0000128206801682ED041F010010160207FD7
:100FC00001282068016829D021F008010160607FB4
:100FD00001282068016824D021F004010160D4E9CF
:100FE00002010843D4E90412114308436168491E11
:100FF00008432168C86100206062012084F8200055
:10100000002070BD41F08001C0E741F04001C5E71C
:1010100041F02001CAE721F01001CFE741F00801BB
:10102000D4E741F00401D9E710B586B00446142195
:101030006846FFF734FA1B49206888422FD11A48C6
:101040000021026842F000720260006800F0007047
:10105000059015481038026842F0080202600068E6
:10106000022200F0080005900320CDE90210CDE92E
:1010700000020920049069460C4800F061FA002241
:101080000521132000F010FC132000F0FFFB0022CC
:101090000521142000F008FC142000F0F7FB06B036
:1010A00010BD00000064004040380240000C0240C7
:1010B00070470000274910B54A68274B521C4A6008
:1010C000A3F11C020021FFF7B0FD23491C39086879
:1010D000A0F50072013A19D0A0F50072023A15D0BD
:1010E000A0F50072033A11D0B0F5017F0ED0A0F543
:1010F0000072053A0AD0A0F50072063A06D0A0F5B3
:101100000072073A02D0B0F5027F22D14A7F0B7FEE
:10111000401EC0B202EB032200EB80030F4840F8F0
:10112000232000EB830090F91330322B03DA426066
:10113000C27C521CC274CA7F11F81E3F1B0202FA05
:1011400083F2C260CA788B7802EB032202820979AB
:10115000817410BD88000020A4410020EC460020CE
:10116000704770477047000070B5044690F8200043
:10117000012804D0606A40F40020606218E0022078
:1011800084F820002068016821F00101016000F06E
:10119000FFFA05460EE000BF00F0FAFA401B0A28ED
:1011A00008D9606A40F400306062052084F82000AD
:1011B000012070BD20684068C007EDD1606270BD3D
:1011C00070477047704770477047704770472DE908
:1011D000F0410446876D00F0DBFA064694F83500CE
:1011E0000025022806D08020606584F83450012054
:1011F000BDE8F0812068016821F0160101602068D7
:10120000416921F080014161206C08B9A06C20B1D6
:101210002068016821F0080101602068016821F060
:10122000010101600CE000F0B3FA801B052807D92A
:1012300020206065032084F8350084F83450D7E717
:1012400020680068C007EED194F85C103F20884009
:10125000B860012084F8350084F834500020C7E7D6
:1012600090F83510022903D0802141650120704794
:10127000052180F835100068016821F00101016046
:10128000002070472DE9F84304464FF00009CDF8DF
:10129000009063484FF41651A56D0068B0FBF1F75C
:1012A0002E6894F85C10082000FA01F131420FD04A
:1012B00021680A6852070BD50A6822F004020A6006
:1012C00094F85C108840A860606D40F00100606593
:1012D00094F85C104FF0010808FA01F0304208D091
:1012E00021684969090604D5A860606D40F00200D4
:1012F000606594F85C1004208840304208D0216872
:101300000968890704D5A860606D40F00400606535
:1013100094F85C1010208840304218D02168096889
:10132000090714D5A86020680168490304D500683E
:10133000000308D5A16C07E00168C90503D4016862
:1013400021F008010160216C09B12046884794F81A
:101350005C1020208840304231D021680968C906DD
:101360002DD5A86094F8350005282068016806D0BE
:10137000490347D5006800031DD4616C1CE021F0CF
:10138000160101602068416921F080014161206CF3
:1013900008B9A06C20B12068016821F00801016043
:1013A00094F85C103F208840A86084F8358084F869
:1013B0003490216D1FE0E16B09B120468847606DD4
:1013C00000282BD0606DC00714D0052084F83500AC
:1013D0002068016821F0010101600098401C009024
:1013E000B84203D820680068C007F6D184F8358079
:1013F00084F83490E16C002910D001B02046BDE89B
:10140000F04308470168C905D5D4016821F01001EF
:10141000016084F8358084F83490CCE7BDE8F88327
:101420001C0000202DE9F041044600F0B1F9064609
:101430005CB1022084F83500002584F8345020681F
:10144000016821F0010101600DE00120BDE8F0819B
:1014500000F09EF9801B052805D920206065032037
:1014600084F83500F2E720680068C007F0D12268F0
:10147000116820480140D4E901031843D4E9033638
:101480003343184363691843A3691843E369184356
:10149000236A18430843616A042903D1D4E90B1372
:1014A00019430843106020684069666A20F007010C
:1014B00030460E43012704280CD1A06A0643E06A97
:1014C00040B12046FFF7CAF920B14020606584F89A
:1014D0003570BAE7206846612046FFF7ABF994F80B
:1014E0005C203F2191408160656584F83570002063
:1014F000ACE700003F8010F070B5044690F834006F
:10150000002501280CD0012084F8340094F83560BF
:101510000020012E06D084F834000225284670BD34
:10152000022070BD022684F8356060652046FFF712
:10153000BFF92068016841F001010160EEE7000099
:101540002DE9F84FDFF8F8A10022012403254FF020
:101550000F090AF1040BAAF1040E00BF0B6804FA8C
:1015600002F63340B34270D10F7907F00307012F21
:1015700001D0022F16D187684FEA420805FA08FC0D
:1015800027EA0C07D1F80CC00CFA08FC4CEA070C4F
:10159000C0F808C04768B7430E79C6F300169640F6
:1015A0003E4346600E79F643B6070AD0C7684FEA55
:1015B000420C05FA0CF6B7438E6806FA0CF63E4369
:1015C000C6600E7906F00306022E10D1D60800EB95
:1015D0008608D8F8206057074FEAD76C09FA0CF74D
:1015E000BE430F6907FA0CF73743C8F82070066846
:1015F0004FEA420C05FA0CF7BE430F7907F00307D8
:1016000007FA0CF7374307604E6816F4403F1CD0CA
:101610004C4E376847F480473760366822F003073E
:1016200006F480460096484E07EB060CDCF8086886
:1016300097073F0F09FA07F826EA0806DFF80C813A
:10164000404503D14FF0000841E072E0DFF800812F
:10165000404502D14FF0010839E0DFF8F8804045FD
:1016600002D14FF0020832E0DFF8EC80404502D1B1
:101670004FF003082BE0DFF8E480404502D14FF043
:10168000040824E0DFF8D880404502D14FF0050877
:101690001DE0DFF8D080404502D14FF0060816E08B
:1016A000DFF8C480404502D14FF007080FE0DFF8B3
:1016B000BC80404502D14FF0080808E0DFF8B08058
:1016C000404502D14FF0090801E04FF00A0808FA3E
:1016D00007F848EA0608CCF80888DAF800605746A8
:1016E000D1F804C09E435FEACC2C00D51E433E6077
:1016F000DBF800605F46D1F804C09E435FEA8C2CA3
:1017000000D51E433E60DEF800607746D1F804C085
:101710009E435FEA8C3C00D51E433E60084F083F65
:101720003E68D1F804C09E435FEACC3C00D51E431E
:101730003E60521C102AFFF411AFBDE8F88F000084
:10174000083C0140443802400030014000000240A3
:101750000004024000080240000C02400010024059
:101760000014024000180240001C02400020024009
:1017700000240240426921EA02030A4043EA02418E
:10178000816170470AB1816170470904FBE700007D
:1017900001488068704700001000002002488168FE
:1017A0000278114481607047100000200B4810B58A
:1017B000016841F400710160016841F480610160D9
:1017C000016841F480710160032000F08DF80F2062
:1017D00000F006F800F03EF8002010BD003C02408A
:1017E00010B5014688B00022192000F05DF81920DC
:1017F00000F04CF813480024016841F00101016039
:10180000006805A900F001000690684600F018F98C
:1018100000F046F90C494000B0FBF1F10C480B4ACE
:10182000491E026040F2E732C0E90324C0E9011416
:1018300000F078FB10B1012008B010BD044800F0A2
:101840009FFBF9E74438024040420F00000001408E
:10185000200400200C4882B0016841F480410160FE
:10186000006800F4804000900748001F016841F0C4
:10187000805101600068002200F0805000900F212C
:10188000901E02B000F010B844380240002809DB76
:1018900000F01F02012191404009800000F1E0208A
:1018A000C0F8001170470000F0B40E4B1B680C46E6
:1018B000C3F30223C3F10705042D00D90425191D24
:1018C000072901D2002300E0DB1E012606FA05F1FC
:1018D000491E214099409E40761E16403143F0BC7F
:1018E00001F0C8BF0CED00E0064900F007020868EF
:1018F0004FF6FF03184040EA0220034A10430860F5
:10190000704700000CED00E00000FA052DE9F047FB
:101910000E46050065D0DFF81481D8F80000F7B254
:1019200000F00F00B04207D288F80070D8F800002D
:1019300000F00F00B04254D128683D4C810712D509
:10194000400703D5206840F4E05020602878000765
:1019500003D5206840F4604020602068A96820F02A
:10196000F000084320602878C0072DD0304968680F
:101970000839012812D0022813D0032811D0096891
:10198000890700292DDA216821F003010143216034
:10199000FFF7FEFE814641F2883A0EE009688903AE
:1019A000EFE709688901ECE7FFF7F2FEA0EB090118
:1019B000514502D90320BDE8F0872068696800F02E
:1019C0000C00B0EB810FEFD1D8F80010404601F0C9
:1019D0000F01B14207D90770006800F00F00B04254
:1019E00001D00120E7E72878400705D52068E9689D
:1019F00020F4E050084320602878000706D52068CE
:101A0000296920F4604040EAC100206000F058F8E5
:101A10002168084AC1F30311515CC84006490860B7
:101A200006480068FFF7DCFE0020C4E7003C0240E7
:101A300008380240985300081C00002014000020C1
:101A40000F2202600C4A136803F00303436013681B
:101A500003F0F0038360136803F4E053C36012687B
:101A60004FF4E05303EAD20202610448006800F038
:101A70000F0008607047000008380240003C024038
:101A80000448054900680968044AC1F38221515C91
:101A9000C84070471C00002008380240A8530008C6
:101AA0000448054900680968044AC1F34231515CA1
:101AB000C84070471C00002008380240A8530008A6
:101AC000154810B5006810F00C02144813D01449E2
:101AD000042A0FD0082A0ED10F4C241F2268236835
:101AE00002F03F025B0207D52068C0F38810A0FB1C
:101AF000010106E0084610BD2168C1F38811A1FB71
:101B000000010023FEF722FC2168C1F30141491CBA
:101B10004900B0FBF1F010BD083802400024F40089
:101B2000001BB7002DE9F84F04006ED02078DFF8D5
:101B30004C93C007A9F104054AD009F104000168DB
:101B4000C1F38101012908D00068C0F38100022897
:101B50000AD1D9F80000400206D52868800337D59D
:101B600060680028E1D033E06068B0F5803F10D0B5
:101B7000B0F5A02F286810D020F4803028602868A5
:101B800020F4802028606068A8B1FFF701FE0646B7
:101B90000DE0286840F48030F4E740F480202860AD
:101BA000F7E700BFFFF7F4FD801B642873D82868AF
:101BB0008003F7D50CE0FFF7EBFD064605E000BF1C
:101BC000FFF7E6FD801B6428F0D828688003F7D46F
:101BD0002078DFF8AC8280074FF0000A3ED5A74896
:101BE000001D016811F00C0F08D00068C0F38100DF
:101BF00002280BD1D9F80000400207D428688007DA
:101C000016D5E068012800D112E033E1E068B8B1F0
:101C10000120C8F80000FFF7BBFD064605E000BF45
:101C2000FFF7B6FD801B0228C0D828688007F7D5CB
:101C30002868216920F0F80040EAC10028600DE022
:101C4000C8F800A0FFF7A4FD064604E0FFF7A0FDDA
:101C5000801B02281FD828688007F7D42078000747
:101C600022D5864F87486169703771B101210160C3
:101C7000FFF78EFD064604E0FFF78AFD801B022871
:101C800009D838688007F7D50EE0C0F800A0FFF744
:101C90007FFD064605E082E0FFF77AFD801B022803
:101CA0007DD838688007F7D42078400768D5DFF8FA
:101CB000CCB100270BF13C0BDBF80000C0000BD4CB
:101CC000DBF8001041F08051CBF80010DBF8000089
:101CD000012700F0805000906B4E3068C00510D492
:101CE000306840F480703060FFF752FD009005E0EE
:101CF000FFF74EFD0099401A022850D83068C00501
:101D0000F6D55E4EA0686C3601280FD005283068E5
:101D100010D020F001003060306820F00400306006
:101D2000A068B8B1FFF734FD00900FE0306840F0D4
:101D30000100F4E740F004003060F7E7FFF728FD0A
:101D40000099411A41F28830814266D83068800794
:101D5000F4D50EE0FFF71CFD009007E0FFF718FD3B
:101D60000099411A41F28830814256D83068800784
:101D7000F4D42FB1DBF8001021F08051CBF8001023
:101D8000A069C8B33D49091D0968C1F38101022951
:101D90004AD00228504607D0C8F8600000E03CE076
:101DA000FFF7F6FC04463BE04746C8F86000FFF743
:101DB000EFFC064605E000BFFFF7EAFC801B0228A7
:101DC0002BD828688001F7D4D4E907010843A16A19
:101DD0002E4A490802EB0141626A41EA8211084336
:101DE00094F82C1040EA0161C9F80010012038660F
:101DF000FFF7CEFC044606E03EE000BFFFF7C8FC5C
:101E0000001B022809D828688001F7D534E000BFFC
:101E1000FFF7BEFC001B022802D90320BDE8F88FA3
:101E200028688001F4D427E00128F7D0D9F8000011
:101E3000E26900F4800191421CD1226A00F03F0166
:101E4000914217D147F6C071626A0140B1EB821F1F
:101E500010D1A26A4FF0FF3300F4403103EB52027D
:101E6000B1EB024F06D194F82C1000F07060B0EB8B
:101E7000016F01D00120D1E70020CFE704380240F4
:101E800000004742800E4742007000400000FFFF04
:101E90007047704770B590F83C20012A32D0012479
:101EA00080F83C40022280F83D2003685A689D6813
:101EB00022F070060A6832435A60134B02689A4255
:101EC00014D0B2F1804F11D0104B9A420ED0104B6B
:101ED0009A420BD00F4B9A4208D00F4B9A4205D032
:101EE0000E4B9A4202D00E4B9A4204D1496825F01B
:101EF00080031943916080F83D40002180F83C1038
:101F0000084670BD022070BD000001400004004082
:101F100000080040000C0040000401400040014067
:101F20000018004010B5040003D094F83D0010B133
:101F300007E0012010BD002084F83C00204600F09E
:101F40001EF8022084F83D00211D206801F09AF956
:101F5000012084F8460084F83E0084F83F0084F8AD
:101F6000400084F8410084F8420084F8430084F87B
:101F7000440084F8450084F83D00002010BD7047FF
:101F800090F83D10012901D001207047022180F80E
:101F90003D100168CA6842F00102CA600068114938
:101FA000884214D0B0F1804F11D00F4988420ED032
:101FB0000E4988420BD00E49884208D00D4988420C
:101FC00005D00D49884202D00C49884204D181686D
:101FD00001F00701062903D0016841F00101016009
:101FE000002070470000014000040040000800404D
:101FF000000C004000040140004001400018004077
:10200000704770B50446006801694FF00005C94388
:10201000890715D4C168C943890711D4E91E016134
:1020200001202077206880698007204602D0FFF7D2
:10203000E7FF04E000F0D6F8204600F07BF92577B2
:1020400020680169C943490717D4C168C9434907D2
:1020500013D46FF0040101610220207720688069A9
:1020600010F4407F204602D0FFF7CAFF04E000F0E2
:10207000B9F8204600F05EF9257720680169C94368
:10208000090716D4C168C943090712D46FF00801C3
:102090000161042020772068C0698007204602D0B3
:1020A000FFF7AEFF04E000F09DF8204600F042F993
:1020B000257720680169C943C90617D4C168C94397
:1020C000C90613D46FF01001016108202077206841
:1020D000C06910F4407F204602D0FFF791FF04E072
:1020E00000F080F8204600F025F925772068016986
:1020F000C943C90708D1C168C943C90704D1891EAA
:102100000161204600F018F920680169C9430906F9
:1021100009D4C168C943090605D46FF08001016183
:102120002046FFF7B5FE20680169C943490609D476
:10213000C168C943490605D46FF0400101612046DA
:1021400000F004F920680169C94389060BD4C1680D
:10215000C943890607D46FF0200101612046BDE81C
:102160007040FFF796BE70BD30B587B004461421AD
:102170006846FEF794F917492068884227D1164827
:102180000024016841F480710160016801F48071EC
:102190000591016841F0800101600068022500F0AE
:1021A0008000059001200090CDE9015469460B485C
:1021B000CDE90345FFF7C4F94FF4E0500090CDE9B5
:1021C000015469460648CDE90345FFF7B9F907B060
:1021D00030BD0000000C00403038024000200240BA
:1021E000001C0240704770B5044690F83C00002681
:1021F0000D4601280FD0012084F83C006AB1042A62
:102200001DD0082A2FD00C2A3FD00126002084F8A8
:102210003C00304670BD022070BD206801F096F889
:102220002068816941F0080181612068816921F09D
:1022300004018161206881692A69114311E02068E5
:1022400001F0B4F82068816941F40061816120687F
:10225000816921F480618161206881692A6941EA8C
:1022600002218161D2E7206801F0D6F82068C169B7
:1022700041F00801C1612068C16921F00401C16118
:102280002068C1692A69114311E0206801F0F8F85B
:102290002068C16941F40061C1612068C16921F40D
:1022A0008061C1612068C1692A6941EA0221C16176
:1022B000ACE710B5040003D094F83D0010B107E07E
:1022C000012010BD002084F83C00204600F01EF8DC
:1022D000022084F83D00211D206800F0D3FF01207A
:1022E00084F8460084F83E0084F83F0084F84000FB
:1022F00084F8410084F8420084F8430084F84400E4
:1023000084F8450084F83D00002010BD08B5006841
:102310000649884208D10648016841F00801016079
:10232000006800F00800009008BD0000000C0040AC
:10233000403802407047000000680349884201D1DC
:10234000FFF72CBA7047000000000140704770474B
:1023500070470000F8B5016804460868CA684B6910
:1023600010F00F0F4FF0000559D003F0010602F4F2
:102370009077374365D0C10705D0D10503D5216CCF
:1023800041F001012164410705D5D90703D0216C33
:1023900041F002012164810705D5D90703D0216CE2
:1023A00041F004012164010707D502F02001314307
:1023B00003D0216C41F008012164216C00293AD03E
:1023C000800604D5900602D5204601F0B0F82068BA
:1023D0004069216CC0F38010090700D460B3204627
:1023E00001F07EF820684069400621D5206814304D
:1023F00050E8001F21F0400140E80012002AF5D10A
:10240000A06BA8B16C490165A06BFEF729FF0028FD
:1024100011D0A06B016D01B0BDE8F0400847830604
:102420000FD593060DD52046BDE8F84001F07FB8E2
:102430002046FFF78DFFF8BD2046FFF789FF256492
:10244000F8BD266B2023012E79D1C60677D5D60696
:1024500075D50868486800904869400640D5A16B6A
:10246000086840680004000CEAD0A28D8242E7D9D7
:10247000E085C869B0F5807F2DD020680C3050E829
:10248000001F21F4807140E80012002AF5D1206875
:10249000143050E8001F21F0010140E80012002A2A
:1024A000F5D12068143050E8001F21F0400140E8C9
:1024B0000012002AF5D184F83E30256320680C30E4
:1024C00050E8001F21F0100140E80012002AF5D169
:1024D000A06BFEF77CFEA08DE18D401A81B229E051
:1024E000A08DE18D401A81B2E08D0028A8D000298E
:1024F000A6D020680C3050E8002F22F4907240E8FB
:102500000026002EF5D12068143050E8002F22F06C
:10251000010240E80026002EF5D184F83E30256304
:1025200020680C3050E8002F22F0100240E8002311
:10253000002BF5D12046FFF70AFFF8BDFFE705069F
:102540002BD5150629D594F83D002128F5D1A06892
:10255000B0F5805F01D12069B0B1206A411C2162D1
:10256000216800784860E08C401E0004000CE08484
:10257000E3D12068C16821F08001C1602068C16892
:1025800041F04001C160D8E7206A0088C0F308002C
:102590004860206A801C2062E5E74006CDD55006E1
:1025A000CBD5CA68204622F04002CA6084F83D308C
:1025B00000F08FF8C1E70000D134000870B50400C6
:1025C00004D094F83D00002510B106E0012070BD54
:1025D00084F83C50204600F023F8242084F83D0085
:1025E0002068C16821F40051C160204601F000F864
:1025F0002068016921F4904101612068416921F05E
:102600002A0141612068C16841F40051C16025641C
:10261000202084F83D0084F83E00002070BD0000BA
:1026200070B586B0064614216846FDF738FF234989
:102630003068884240D122480025016841F01001ED
:102640000160006800F0100005901D481438016812
:1026500041F0020101600068694600F00200059047
:10266000C02000900220CDE901050320039007203F
:1026700004901448FEF764FF144C134820604FF098
:102680000060C4E901054014C4E90350801065618D
:10269000C4E90650256220466562FEF7C3FE08B114
:1026A000FEF7B4F9B463002205212520A663FFF7E5
:1026B000FBF82520FFF7EAF806B070BD00100140D6
:1026C000443802400004024040640240C00300203D
:1026D00070477047FEE7000000B590ED1A0A01460A
:1026E00080ED060A103001F069F8D1ED1B0A00F008
:1026F0005DF981ED1E0A91ED040AB0EEC00A10EEFC
:10270000100AB0F1804F1CDC486F401C4867B0F5E0
:10271000FA7F15DB05209FED0C0ADFED0C0A81ED39
:10272000100AC1ED110A81ED1E0A81ED050A81ED45
:10273000060A81ED0E0A81ED030A81ED0D0A08609B
:1027400000BD0020486700BD0000000000000046FA
:102750000F4810B50D4901600321416000214FF47D
:1027600010228160C0E903124FF400124261017629
:1027700041768176C17601774177FEF7C8FB002864
:1027800003D0BDE81040FEF741B910BD0064004021
:102790000C030020094808B5016841F4800101607C
:1027A0000068002200F48000009005213A20FFF725
:1027B0007BF8BDE808403A20FFF768B8303802409F
:1027C00010B59CB01C2216496846FDF736FE002164
:1027D000684601F09FFD134C11491C2220601C31FA
:1027E00007A8FDF72AFE002107A801F093FD0C4978
:1027F00060601C2238310EA8FDF71FFE00210EA8D4
:1028000001F088FD0649A0601C22543115A8FDF78F
:1028100014FE002115A801F07DFDE0601CB010BD84
:10282000205300080000002030B587B0142168460E
:10283000FDF735FE21480024016841F001010160E7
:10284000016801F001010591016841F00201016098
:10285000016801F002010591016841F00801016081
:10286000016801F008010591016841F4807101607F
:10287000016801F480710591016841F080010160F7
:10288000016801F080010591016841F0400101609B
:1028900000680B4D00F040000590002206212846FC
:1028A000FEF770FF062000900120CDE90104694683
:1028B00028460394FEF744FE07B030BD303802408E
:1028C0000018024010B58AB0002407941C21684605
:1028D0000894FDF7E4FD23482149016040F24731A7
:1028E000C0E9011440F2CF71C0E903148461FFF71D
:1028F000E0FC08B1FEF78AF8079407A91948089484
:10290000FFF7C8FA08B1FEF781F86020CDE90004AE
:1029100002940022694613480494FFF764FC08B14E
:10292000FEF774F8042269460E48FFF75CFC08B114
:10293000FEF76CF8082269460A48FFF754FC08B114
:10294000FEF764F80C2269460648FFF74CFC08B114
:10295000FEF75CF80348FFF707FC0AB010BD000063
:10296000000C0040340300200E4810B50C490160F3
:102970000D4941604FF4805181604900C160C91028
:1029800001610C21416100218161C161FFF716FEE7
:10299000002803D0BDE81040FEF738B810BD000095
:1029A000001001407C030020A0860100B4EEE00A84
:1029B000F1EE10FA01DDB0EE600AF1EE600AB4EE5D
:1029C000E00AF1EE10FA01D2B0EE600A7047FEE7BD
:1029D0002DE9F04120212DED028B88B06846FDF7EE
:1029E0005EFD784F0026A7F5A8659FED778A00BFAA
:1029F00006EB860007EB8001087A032832D0C6EB8D
:102A0000C60000EB400805EBC8042046FDF7E2FDD8
:102A1000207A012802D084ED038A20E055F838009E
:102A200002280CD0052802D0062818D110E004F1A5
:102A3000400000F0B5F994ED190A84ED050A04F19F
:102A40001000014600F0E0FE084600F0B7FE04E08A
:102A50002046FFF741FE94ED1E0A84ED030A761C22
:102A6000082EC5DB0020DFED590AB3EE041ADFEDB6
:102A7000582AB2EE040A694600EB800207EB820294
:102A8000127A012A7FD0022A7CD001EB800282EDEB
:102A9000008A401C0828EFDB9DED000AB5EEC00A55
:102AA000F1EE10FA14D0DDED010AF5EEC00AF1EEF8
:102AB00010FA0DD0DDED020AF5EEC00AF1EE10FAC3
:102AC00006D0DDED030AF5EEC00AF1EE10FA1BD1D7
:102AD000DDED030ABDEEC00AFDEEE00A10EE900A3D
:102AE000DDED020A03B2FDEEE00A10EE900ADDED24
:102AF000010A02B2FDEEE00A10EE900A01B210EEF9
:102B0000100A00B200F0D6FA9DED040AB5EEC00A34
:102B1000F1EE10FA14D0DDED050AF5EEC00AF1EE83
:102B200010FA0DD0DDED060AF5EEC00AF1EE10FA4E
:102B300006D0DDED070AF5EEC00AF1EE10FA1BD162
:102B4000DDED070ABDEEC00AFDEEE00A10EE900AC8
:102B5000DDED060A03B2FDEEE00A10EE900ADDEDAF
:102B6000050A02B2FDEEE00A10EE900A01B210EE84
:102B7000100A00B200F0CEFA08B0BDEC028BBDE83E
:102B8000F08100E00CE0C0EBC00202EB420205EB7A
:102B9000C202D2ED031A61EEA01A81EE812A0BE087
:102BA000C0EBC00202EB420205EBC202D2ED031AF7
:102BB00061EEA21A81EE802A01EB800282ED002AEA
:102BC00067E70000EC46002000000000000080469F
:102BD00000401C46C0EBC001154A01EB4101144BFB
:102BE00052F831209FED130A03EBC101052A02D0F0
:102BF000022A05D00AE0D1ED100AC1ED110A05E064
:102C000081ED050A81ED060A81ED070A81ED080ACA
:102C1000094B81ED0D0A00EB800081ED0E0A03EBFC
:102C2000800081ED030A0022C26001200872704713
:102C3000AC41002000000000EC460020FEE710B58B
:102C4000012000F03DF801220221104600F076F844
:102C5000012000F019F8022000F032F802210122D0
:102C6000084600F06BF8022000F00EF8032000F098
:102C700027F801220221032000F060F8BDE810408F
:102C8000032000F001B800001CB50949498841EA59
:102C9000401081B207A0D0E90020CDE900206A46AB
:102CA000064800F023F8052001F028FB1CBD0000B9
:102CB0009000002008000000000000000C0300202D
:102CC0001CB508496A46C98941EA401081B2002012
:102CD00000900190044800F009F8052001F00EFB77
:102CE0001CBD0000900000200C03002000B589B03E
:102CF00008AB0291039100210491059108210691EE
:102D000011788DF8001051788DF8011091788DF8B8
:102D10000210D1788DF8031011798DF804105179D3
:102D20008DF8051091798DF80610D1798DF807107E
:102D30006A4602A9FDF78EFE09B000BD1CB50A4B1C
:102D4000DB8843EA40100023009380B201938DF8A2
:102D500000108DF8042001466A460448FFF7C6FFBC
:102D6000052001F0CBFA1CBD900000200C030020D0
:102D70001CB50949098941EA401084B2002000903D
:102D80000190FDF745FE006800906A462146034821
:102D9000FFF7ACFF1CBD0000900000200C030020DA
:102DA00010B504462DED048BF7EE008A90ED010A74
:102DB000D0ED000A30EE600A80ED020AD0ED070A7D
:102DC00090ED081AB5EEC00A20EE208AD0ED030A75
:102DD00080ED030A70EE600A01EE208AF1EE10FA2F
:102DE00001D2FFEE008AD4ED050A9FED1B1A60EEBA
:102DF000810A60EEA80A20EE800A10EE100A02F0A6
:102E000013FA41EC100B00F0DDFFB0EE409AF0EE4B
:102E1000609A18EE900A02F007FA53EC192B02F0B0
:102E200039F802F005F800EE100AB0EEC81AF0EE1C
:102E3000C00AF4EEC10AF1EE10FA01D2B0EE408AF7
:102E4000D4ED040AB0EE480AFFF7B0FD84ED090A9C
:102E5000BDEC048B10BD00003333B33F094C0020A0
:102E600004F11405A0840849A01C00F057F8294675
:102E7000A01C00F021F8284600F008F80A2001F014
:102E80003DFAF0E7F0470020584100200278002189
:102E9000012A00D101704278012A00D14170827864
:102EA000012A00D18170027A012A00D10172427A8E
:102EB000012A00D14172704710B504780122002325
:102EC000012C12D00B714478012C14D04B71C478B2
:102ED000012C16D08B718078E0B1887AB8B1C87AAD
:102EE000002801D1CA724A7210BD0C79002CEAD1B7
:102EF0000A710A70E7E74C79002CE8D14A714A70F0
:102F0000E5E78C79002CE6D18A718A70E3E78A7252
:102F10000A7210BD8B72CB7210BD00002DE9F04F0C
:102F2000C87D0C2801D0012000E00020DFF87CE102
:102F300083468EF82000B1F80100C0F30A045C4813
:102F400004808A78CB78D20842EA4312C2F30A039B
:102F50004380CA780D79920942EA85024D7942EAA6
:102F60008522C2F30A0787804A798D79520842EA9E
:102F7000C512C2F30A02C2808D79CE792D0945EAC5
:102F80000615C5F30A050581AA46CD790E7AED0925
:102F900045EA46054E7A45EA4625C5F30A054581C8
:102FA000A9464D7A8E7AAD0845EA8615C5F30A061C
:102FB00086818D7A91F80BC06D0945EACC05C581F3
:102FC000B1F80CC0CCF30A0CA0F810C091F80D8039
:102FD000897B4FEAD80848EA4111C1F30A014182CE
:102FE000A2F2F730132801D2002201E0A2F580629C
:102FF000AEF80A20A7F2A66252427046132A01D206
:10300000002202E0A7F29D677A420281A4F2F73221
:10301000132A01D2002401E0A4F58064A3F2F73260
:10302000C481132A01D2002301E0A3F580634FF489
:103030007A728381924501DD012300E0002340F292
:10304000E2448370A14501DD012300E00023C37049
:10305000BCF5FA7F09DD40F2E733ACF2F51C9C4584
:1030600001D2012302E0022300E000230371914218
:1030700001DD012100E000214171A6F5997240F2C5
:103080006D518A4200D30026A5F5997206828A42C4
:1030900000D300254582BBF1000F05D100214181FD
:1030A0000181C181AEF80C10BDE8F08FF04700201F
:1030B0007241002030B5154C89B025686D1C256023
:1030C0004FF400740294039400240494059408249B
:1030D0000694040A8DF800408DF80100080A8DF866
:1030E0000200100A8DF804008DF80520180A8DF8EA
:1030F00006008DF803108DF8073008AB6A4602A968
:103100000348FDF7A7FC09B030BD0000880000208F
:103110000C03002030B5154C89B025686D1C256066
:1031200040F2FF14029403940024049405940824AC
:103130000694040A8DF800408DF80100080A8DF805
:103140000200100A8DF804008DF80520180A8DF889
:1031500006008DF803108DF8073008AB6A4602A907
:103160000348FDF777FC09B030BD0000880000205F
:103170000C030020C0EBC000034900EB400001EB52
:10318000C00080ED110A7047AC410020054C4FF49F
:10319000FA7502212046FEF7EDFA284601F0AEF856
:1031A000F7E700000018024010B5502080F31188A6
:1031B000BFF34F8FBFF36F8F01F072FD18B1044959
:1031C0004FF080500860002080F3118810BD00008F
:1031D00004ED00E030B593B030216846FDF75FF9AB
:1031E00014210CA8FDF75BF91D480025016841F08A
:1031F00080510160006800F080501190194801680A
:1032000041F4404101600068022400F44040119004
:1032100001200090000401908001CDE906400620C5
:103220000890A820CDE9090404200B906846FEF719
:1032300079FC08B172B6FEE70CA90F2081E83100D5
:103240004FF4A0500F904FF48050109005210CA81F
:10325000FEF75CFB002801D072B6FEE713B030BD6C
:1032600040380240007000400248016841F470019B
:103270000160704788ED00E00148FEF7C2BE000023
:1032800020040020F0B50268254C264D264E274F1D
:10329000274B4FF0804CA04209D0604507D0A84290
:1032A00005D0B04203D0B84201D0984204D122F0F8
:1032B000700E4A6842EA0E02A0421BD0604519D047
:1032C000A84217D0B04215D0B84213D0984211D0BE
:1032D000184DA8420ED0184DA8420BD0174DA84249
:1032E00008D0174DA84205D0164DA84202D0164D61
:1032F000A84203D122F44075CA682A434D6922F0DE
:1033000080022A4302608A68C2620A688262A0421E
:1033100001D0984201D10969016301214161F0BDE9
:10332000000001400004004000080040000C004084
:1033300000040140004001400044014000480140B9
:1033400000180040001C004000200040F0B5026A58
:1033500022F001020262036A42688469124E24F07C
:1033600073050C682C4323F002058B682B430D4D2D
:10337000A84201D0B04205D123F00807CB683B43F7
:1033800023F00403A84201D0B04205D14D6922F4D4
:10339000407215438A692A434260846149684163E7
:1033A0000362F0BD0000014000040140F0B5026A74
:1033B00022F010020262026A436884690D6824F4F4
:1033C000E64444EA05248D6822F0200242EA051210
:1033D0000F4D104EA84201D0B04206D1CF6822F066
:1033E000800242EA071222F04002A84201D0B04215
:1033F00007D14D6923F4406343EA85038D6943EAAD
:10340000850343608461496881630262F0BD000006
:103410000000014000040140F0B5026A22F480720D
:103420000262026A4368C46922F4007224F07305E0
:103430000C68124E2C438D6842EA05220E4DA842BC
:1034400001D0B04206D1CF6822F4006242EA0722DE
:1034500022F48062A84201D0B04207D14D6923F422
:10346000405343EA05138D6943EA05134360C46181
:103470004968C1630262F0BD0000014000040140E0
:1034800030B5026A22F480520262046A4268C3695B
:103490000D6823F4E64343EA05238D6824F40054C1
:1034A00044EA0534084DA84202D0084DA84204D190
:1034B0004D6922F4804242EA85124260C361496844
:1034C0000164046230BD00000000014000040140BE
:1034D00010B5806B0021C185C184FEF739FF10BD96
:1034E00001680C3151E8002F22F4907241E800236A
:1034F000002BF5D10168143151E8002F22F00102B0
:1035000041E80023002BF5D1016B012909D10168A5
:103510000C3151E8002F22F0100241E80023002B6B
:10352000F5D1202180F83E1000210163704708B5D5
:1035300090F83E10222901D0022008BD82684FF485
:1035400080539A4201D1016921B1816A9A421BD00C
:103550004AB10AE00268816A5268C2F308020A802E
:10356000816A891C08E0026972B10268526802F03F
:103570007F020A70816A491C8162C18D491E09045B
:10358000090CC18503D019E002685268F1E70168AF
:10359000CA6822F02002CA600168CA6822F48072F8
:1035A000CA6001684A6922F001024A61202180F85C
:1035B0003E10016B012903D0FFF78AF8002008BDF7
:1035C0000021016301680C3151E8002F22F0100244
:1035D00041E80023002BF5D101680A68D20602D524
:1035E0000A6849680091818DFEF7B1FEE6E70000A8
:1035F00070B5044600680169E26821F44051114346
:1036000001612169A068E2690843616911430843C7
:103610002168CA6849F20C639A430243CA60206871
:103620004169A26921F44071114341613149206827
:10363000884202D03049884202D1FEF731FA01E0D7
:10364000FEF71EFAE2690023192164253226B2F53D
:10365000004F626828D0A0FB0101930F9200FCF795
:1036600075FE0146B0FBF5F06FF01802504301EB18
:10367000800006EB0010B0FBF5F000F0F002B1FBAB
:10368000F5F002EB0012B1FBF5F06FF018035843B0
:1036900001EB800006EB0010B0FBF5F000F00F002E
:1036A00021681044886070BDA0FB010192185B4145
:1036B000FCF74CFE0146B0FBF5F00201B1FBF5F062
:1036C0006FF01803584301EB800006EBC000B0FB1D
:1036D000F5F000F0F80002EB4002B1FBF5F05843C2
:1036E00001EB800006EBC000B0FBF5F000F0070036
:1036F000D6E70000001001400014014010B5044856
:1037000000F016F8BDE810400148FEF723BE0000A7
:103710007C030020FEE70000044A0168914204D1C6
:10372000806B0068416832214160704700100140A1
:1037300008B5034600680168C90614D5C168C90602
:1037400011D5016840680090986B0068016821F00D
:10375000010101601846FFF7DFFF986B0068016800
:1037600041F00101016008BD38B500681049884288
:103770001DD1104800210068026842680092C268AA
:1037800042F01002C2600B4C0B4A94F83E00202815
:103790000DD13223A262A38521642168A06B091D8B
:1037A000FDF7AAFE2068416941F04001416138BD42
:1037B000001001407C0300205841002000B590ED2E
:1037C000020AD0ED000A70EE600AC0ED040A90ED26
:1037D000090A90ED081A01EE200A80ED090AD0EDE1
:1037E0000B0AFFF7E3F880ED090AD0ED070A90ED28
:1037F000041A00EE810A80ED0A0AD0ED0B0AFFF7E9
:10380000D5F880ED0A0A00BDD0ED010A90ED051A49
:1038100090ED020A70EEC11AF4EEC01AF1EE10FA41
:1038200002DD30EE010A0AE090ED061A70EE811A10
:10383000F4EEC01AF1EE10FA04D230EE410A80ED37
:10384000020A7047C0ED020A90ED020A704741007B
:10385000080218BF04200A0E18BF40F001004FF004
:103860007F4232EA010108BF40F00200012808BF90
:10387000052070470907090E002804DB00F1E0204D
:1038800080F80014704700F00F0000F1E02080F88D
:10389000141D704710EE100A10B510EE901A4FF07C
:1038A000684202EB40032DED028BB3F1654F3CBF44
:1038B00002EB4102B2F1654F7CD200BFC0F3C753A7
:1038C000C1F3C7529A1A1B2A09DD10F0004F14BF2A
:1038D0009FED6E0A9FED6E0ABDEC028B10BD12F1DA
:1038E0001A0F1BDA11F0004F09D010F0004F0CBF77
:1038F0009FED680A9FED680ABDEC028B10BD80EE5B
:10390000208A18EE100AFFF7A2FF042808BF00F073
:10391000C1FAB0EE480ABDEC028B10BD4200B2EB1A
:10392000410F37D910F0004F19BFDFED5C1A9FED42
:103930005C1ADFED5C1A9FED5C1AB0EE602A0A4655
:10394000F1EE400A80F00041B0EE420A10460A1A39
:103950005200B2F1807F34D2484010F0004FDFEDCA
:10396000532A9FED533A1DBFBEEE002A71EEE21AB4
:1039700031EE431AB6EE002A04BF71EEA21A31EE00
:10398000031AF0EE402A42EE602A40EE020A82EE6E
:10399000A02A18E011F0004F04BF9FED461AF0EE88
:1039A000411AD4D010F0004F1CBFDFED431A9FED39
:1039B000431A00E026E004BFDFED411A9FED411AF3
:1039C000C5E780EE202A22EE020ADFED3F0ADFED96
:1039D0003F2ABDEC028B40EE202ADFED3D0A40EE8F
:1039E000220ADFED3C2A40EE202ADFED3B0A40EEC2
:1039F000220A22EE000A00EE201A31EE020A30EE10
:103A0000210A10BD4FF07F42B2EB400F28BFB2EB4E
:103A1000410F05D2BDEC028BBDE8104000F02FBA7B
:103A200040EA01035B0008BF41F0FF410BD0B2EB5D
:103A3000400F08BFB2EB410F08D120F0804000EEEC
:103A4000100A21F0804100EE901A37E7B2EB400FE8
:103A500012BF5FEA410240F0FF4001F000413FF435
:103A60002DAF4A0092EA40033FF528AF002AACBFD1
:103A70009FED1A1A9FED1A1A20EE010A60EE810AD4
:103A800010EE100A10EE901A18E70000DB0FC9BF05
:103A9000DB0FC93FDB0F4940DB0F49C00000C9BF46
:103AA00022AAFDB90000C93F22AAFD390060ED3EFF
:103AB000C30ACE3700000000000049C022AA7DBA28
:103AC0000000494022AA7D3A2DAD65BD8FB8D53D95
:103AD0000FB511BE61C84C3EA8AAAABE0000804F17
:103AE0000000802F10EE101A08B5444A6846B2EB69
:103AF000410F28D94FF0E640B0EB410F94BF0020B2
:103B00004FF0FF3000900098002861DB60EE000A63
:103B100010F0010F45D010F0020FDFED391A9FEDC4
:103B2000391A00EEE11ADFED381A40EE811A21EE63
:103B3000A01AF0EE400A40EE010A08BFF1EE600A5A
:103B4000B0EE600A08BD314B21F0004293423CD9EF
:103B500011F0004FDFED2E0A20EE201ADFED2D0AC6
:103B600019BF31EE601A71EE200A31EE201A71EEA3
:103B7000600ABDEEE01A11EE100A9FED271A00F060
:103B8000030000EEC10A9FED251A009000EEC10A65
:103B90009FED231A00EEC10A9FED221A00EEC10A22
:103BA000B1E79FED211A9FED210A10F0020F00EE00
:103BB000810A9FED1F1A00EE801AB7EE000A00EE90
:103BC000810A18BFB1EE400A08BD00F06BF99AE710
:103BD00010EE100A4000B0F17F4F3CBFB7EE000A74
:103BE00008BD07D14FF00100FCF788FCBDE8084094
:103BF00000F048B9BDE8084000F03EB9B61F927E1B
:103C0000336D4C39DA82083CA0AA2ABE490E4946D7
:103C100083F9223F0000004B0000C93F00A0FD399E
:103C20000020A2331A61342CB93AB2BACA9F2A3D95
:103C3000DDFFFFBE00B510EE101A2DED028B81B036
:103C4000524A6846B2EB410F2ED94FF0E640B0EB36
:103C5000410F94BF00204FF0FF3000900098B0EE6D
:103C6000408A00286ADB10F0010F4BD068EE080A8A
:103C70009FED471A9FED470A00EE810A9FED461A15
:103C800010F0020F00EE801AB7EE000A00EE810A73
:103C900002BF01B0BDEC028B00BD00BF01B0B1EEB0
:103CA000400ABDEC028B00BD3C4B21F00042934228
:103CB00041D911F0004FDFED3A0A20EE201ADFED76
:103CC000390A19BF31EE601A71EE200A31EE201A5E
:103CD00071EE600ABDEEE01A11EE100A9FED321A85
:103CE00000F0030000EEC10A9FED301A009000EED4
:103CF000C10A9FED2F1A00EEC10A9FED2E1A00EEA9
:103D0000C10AABE728EE080A9FED2B1ADFED2B0A5C
:103D100010F0020F40EE410A9FED291A00EE201A22
:103D200061EE000AB0EE480A08EE200AB6D101B0F2
:103D3000BDEC028B00BD00F0B5F88FE718EE100A5D
:103D40004000B0F17F4F0DD218EE100AFFF77FFD53
:103D5000042808BF00F09EF8B0EE480A01B0BDECA0
:103D6000028B00BD09D10120FCF7C8FB01B0BDECFE
:103D7000028B5DF804EB00F085B801B0B0EE480AA4
:103D8000BDEC028B5DF804EB00F076B8B61F927EB6
:103D9000B93AB2BACA9F2A3DDDFFFFBE490E494675
:103DA00083F9223F0000004B0000C93F00A0FD390D
:103DB0000020A2331A61342C336D4C39DA82083C6E
:103DC000A0AA2ABE00B52DED048BB0EE409AF0EE0D
:103DD000609A83B051EC190B01F05AF941EC180BC1
:103DE00018EE100A18EE901A8DED008B002818BFFF
:103DF0000120084320F00040C0F17F6000F1E04066
:103E0000C00F14D019EE101A19EE900A8DED009B18
:103E1000002918BF0121084320F00040C0F17F6055
:103E200000F1E040C00F04BF0120FCF767FBB0EEDB
:103E3000480A03B0F0EE680ABDEC048B00BD10B573
:103E40002DED028BB1EEC08A18EE100A20F0004072
:103E5000C0F1FF40C00F0AD010EE100A20F0004061
:103E6000C0F1FF40C00F04BF0120FCF747FBB0EEDC
:103E7000480ABDEC028B10BD30EE000A704730EEF0
:103E8000200A7047DFED020A80EEA00A70470000AA
:103E9000000000009FED020A20EE000A70470000BB
:103EA000000000102DE9F0014FF07F42B2EB410F0E
:103EB0009FBF4FF0FF310160BDE8F00170474FF048
:103EC000004242EA0123C1F3C752783A551112F079
:103ED0001F0C434CCCF120067C44C1F3C752A2F125
:103EE00078024FEA621204EB820254F8254008BFC0
:103EF000D2E9015612D0556804FA0CF425FA06F7F7
:103F00003C43976805FA0CF527FA06F8D26807FAD9
:103F10000CFCF24045EA08054CEA0206A4FB034CFF
:103F2000A5FB0352A6FB03631D449D4234BF01263B
:103F300000261319334416B1934202D903E0934289
:103F400001D2012200E00022624402F1200C92061C
:103F5000DC0C42EA443200EE102A5B03DFED210A5A
:103F6000F8EEC01A00EE103A4FEA9C1C11F0004F18
:103F7000B8EE400AC0F800C020EE201A00EE105A39
:103F8000DFED190AB8EE400A20EE200A71EE810A30
:103F900070EE800A10EE902A02F500626FF30B02B9
:103FA00000EE902A70EEE11A31EEC11ADFED101A20
:103FB00030EE411A9FED0D0A20EE800A01EE210A33
:103FC0009FED0C1A00EE810A04BFBDE8F0017047B6
:103FD000CCF180510160BDE8F001B1EE400A7047BC
:103FE000DC140000000000360000802C22AAFD290D
:103FF000DB0FC92F0000C92F90ED000A0A4A10EE0E
:10400000101ADFED0A0A914202DD30EE600A06E086
:1040100010EE101A064A914204D330EE200A80EDC9
:10402000000AE9E770470000000034430000B44391
:10403000000034C380ED000AD0ED021AD0ED030A6F
:1040400031EEA01A81EE812AD0ED011A62EE211A1A
:1040500080EE812A42EE001AC0ED011A704700007E
:1040600080ED030A91ED000A80ED020A9FED030A3C
:1040700080ED000A80ED010A70470000000000009A
:1040800070B505462DED088BF0EE41AAF0EE608A82
:10409000B0EE409A90F834009FED3E8A3E4C38B125
:1040A000012802D0022838D133E084ED009A2DE0B7
:1040B000D5ED0C0A9FED39AADFED399A80EE8A0A18
:1040C00020EE290AFFF70EFDD5ED0C0A20EE09BA05
:1040D00080EE8A0A20EE290AFFF7ACFD08EEC0BA8E
:1040E00084ED00BAD5ED0C0A80EE8A0A20EE290A8A
:1040F000FFF7F8FC60EE288A95ED0C0AC0EE0A0A7C
:1041000020EEA90AFFF796FD49EE008AC4ED018A68
:1041100003E084ED008A84ED018A94ED000A2148D1
:10412000F0EEC00A10EE901A814217DCD4ED010ABD
:10413000F0EEE00A10EE901A81420FDCF0EEEA0A8F
:1041400010EE900A1849884208DC85ED038A85ED57
:10415000078A85ED0B8ABDEC088B70BD2846B0EE52
:104160006A1AD4ED010A00F04FF894EC020A05F146
:104170001000B0EE6A1A00F047F894EC020AB0EEB4
:104180006A1A05F12000BDEC088BBDE8704000F014
:104190003BB8000000000000B000002000003443E5
:1041A000DB0F49406F12833ACDCCCC3D11499FEDD6
:1041B000120ADFED130A81F8340081ED020A9FED47
:1041C0000F0A81ED000A81ED010A81ED030AC1EDBC
:1041D000060A81ED040A81ED050ADFED0A0A81ED88
:1041E000070AC1ED0A0A81ED080A81ED090A81ED8D
:1041F0000B0A7047184800200000344300000000FC
:10420000000070C20000704210B504462DED068B10
:10421000B0EE408A82B0F0EE608A9FED230A9FEDF7
:10422000239A8DED000ADFED229A81EE090ADFED77
:10423000210A20EE290A20EE20AAD0ED020A80EE03
:10424000890A20EE290AFFF74DFCD4ED020A0AEE96
:10425000008A80EE890A20EE290AFFF7EBFC4AEE7D
:10426000008A28EE080A08EEA80AFFF7E8FD84EDA8
:10427000030AF0EE480AB0EE680AFFF70BFBC0EE47
:10428000290A9FED0D0A684610EE890A8DED000A95
:10429000FFF7B2FE9DED000A204600F0E9FB02B0F8
:1042A000BDEC068B10BD0000000000000000344390
:1042B000DB0F494041D4BD3D0000B442FDF776FA22
:1042C000FEF788FFFEF7B0FAFEF742FAFEF762FA51
:1042D000FEF7F8FAFEF748FB0448FFF745FAFCF74B
:1042E0005DF9FEF76DFA00F010F8FEE77C030020A0
:1042F00001460020842900D0C81C704710B500B9C1
:10430000012000F023FB002010BD10B500F044FB9D
:10431000002010BD7FB50D4604464169B0F9080084
:1043200081B1A16971B1FFF7E3FFD4E905128DE80E
:104330000700D4E900102B46226900F086FC0390A8
:1043400004B070BDFFF7D4FF03A9CDE90001208AB6
:104350002B4682B2D4E9001000F04AFC012801D0BB
:104360000020EDE70398EBE72DE9F041184C0F46EC
:104370000546E6682068001D00F020FA38B920687C
:1043800090F82C1001208840216981432161681C2C
:1043900007D137B12168BDE8F0410E48091D00F092
:1043A00051BA20683544B5424560216805D2A06BFA
:1043B000BDE8F041091D00F02DBA606B091D00F049
:1043C00029FAA06A854200D2A562BDE8F08100000A
:1043D00020000020440500202DE9F041054600F0B2
:1043E0003DFA2E4CA068401CA06020682C4F10B1F4
:1043F000606940B32DE02560A068012829D100261E
:1044000006EB860007EB800000F0F6F9761C072E1D
:10441000F6D323488C3000F0EFF92148A03000F0AB
:10442000EBF91F48B43000F0E7F91D48C83000F040
:10443000E3F91B48DC3000F0DFF919488C30606389
:104440001430A06305E02068E96AC06A884200D899
:104450002560606A401C6062E96A01202269884028
:104460001043206101EB810007EB8000291D00F063
:10447000E9F900F013FA606900280CD02068E96AB5
:10448000C06A884207D207494FF080500860BFF3E6
:104490004F8FBFF36F8FBDE8F08100002000002038
:1044A0006804002004ED00E010B5044690F85100C7
:1044B00058B101280CD002280FD0502080F3118869
:1044C000BFF34F8FBFF36F8FFEE7206B00F0FAF959
:1044D0002046BDE8104000F0F5B910BD10484FF47B
:1044E0007051420706D0C01D0D4920F00700411A47
:1044F000C1F570510B4A00230144C2E90003083999
:10450000183A21F0070111604B600B600B1AC0E9EB
:10451000001393604FF000405360506170470000FB
:104520005805002074000020144E154CA6F1C80751
:104530004FF08058DFF84C9012E000BF00F08EF989
:10454000F068C568281D00F039F9A068401EA06019
:104550006068401E606000F0A1F92846FFF7A4FFE4
:1045600060680028EAD138680128F9D9C9F80080C4
:10457000BFF34F8FBFF36F8FF2E7000030050020CD
:104580002000002004ED00E02DE9F0479A46DDE927
:10459000098481466FF00303206B03EB8202104411
:1045A000089E20F00707780707D0502080F3118875
:1045B000BFF34F8FBFF36F8FFEE7002561B100207F
:1045C00023180A5C83F834200A5C12B1401C1028BE
:1045D000F6D384F8435001E084F83450072E00D31A
:1045E0000626E662C4E91165201D00F010F904F109
:1045F000180000F00CF92461C6F107006462A061A4
:10460000E56484F8505052464946384600F0C0F8F8
:104610002060B8F1000F01D0C8F80040BDE8F08775
:1046200030B5114900E011460A688242FBD34B685D
:104630005C18844203D140681844486008464368C7
:104640001C18944209D1084C183C2468A24209D095
:1046500052681A4442600A6812680260814200D0BF
:10466000086030BD0460F9E7740000200648416B23
:10467000096829B1416BC968C96849688162704796
:104680004FF0FF31FAE700002000002008484068A2
:10469000401C4FF0500080F3118804D0BFF34F8FBF
:1046A000BFF36F8FFEE7BFF34F8FBFF36F8FFEE750
:1046B0007C0000202DE9F0410546002700F0A2F91A
:1046C000324E306808B9FFF709FF706905424ED1D4
:1046D000C5B3083568070ED005F00700C0F1080023
:1046E0000544680707D0502080F31188BFF34F8F2F
:1046F000BFF36F8FFEE72DB37068854237D823482C
:10470000183001460C6801E020460C466168A94259
:1047100002D221680029F7D131688C4227D007687E
:104720002168016060680837411B10290FD96019A2
:10473000420708D0502080F31188BFF34F8FBFF39A
:104740006F8FFEE713E041606560FFF769FF616806
:104750007068401A7060B268904200D2B0607069B0
:1047600001430020C4E90001F068401CF06000F043
:10477000FDFA780707D0502080F31188BFF34F8FE0
:10478000BFF36F8FFEE73846BDE8F0815C00002084
:1047900010B5031F4FF080741C601B1F21F0010136
:1047A0001960191F044B0B6014390A60091F6FF060
:1047B000020244380A6010BD8D460008D0E901327B
:1047C00001699A60D0E901235A604A68824201D1A6
:1047D00082684A60002202610868401E086008681A
:1047E00070470000034B036003F154000860802011
:1047F00010607047B800002000F108014FF0FF3250
:10480000C0E90112C160016100210160704700210F
:104810000161704730B50B685A1C02D000F10802E4
:1048200002E0026904E02246546825689D42FAD9F4
:1048300053684B6099608A60516008610168491C47
:10484000016030BD42684A6093688B60936859602C
:10485000916008610168491C01607047502080F335
:104860001188BFF34F8FBFF36F8F0A494868401C10
:10487000486001280CD10848006810F0FF0F07D0ED
:10488000502080F31188BFF34F8FBFF36F8FFEE787
:10489000704700007C00002004ED00E008494868F3
:1048A00028B1401E486001D180F311887047502024
:1048B00080F31188BFF34F8FBFF36F8FFEE70000C7
:1048C0007C00002070B500282AD0164DA0F1080405
:1048D00060686969084207D1502080F31188BFF3EE
:1048E0004F8FBFF36F8FFEE722683AB1502080F3FD
:1048F0001188BFF34F8FBFF36F8FFEE7884360606F
:1049000000F080F860686968084468602046FFF736
:1049100087FE2869401C2861BDE8704000F026BA77
:1049200070BD00005C0000204FF0E020002101611C
:10493000816105494FF47A720968B1FBF2F1491EB1
:1049400041610721016170471C00002010B5020081
:1049500014D00F48006B38B1502080F31188BFF39A
:104960004F8FBFF36F8FFEE700F04CF80021104629
:10497000FFF7FAFC00F0FAF9002807D105494FF0DB
:1049800080500860BFF34F8FBFF36F8F10BD0000E2
:104990002000002004ED00E010B586B00024039450
:1049A00005AA04A903A80494FFF71CFFDDE903018D
:1049B0000094CDE9011000230EA11048059A00F0E3
:1049C00044F90F490028C86211D0502080F31188A3
:1049D000BFF34F8FBFF36F8F4FF0FF30886201201E
:1049E0004861CC6006B0BDE8104000F087B806B062
:1049F00010BD000049444C45000000002945000856
:104A0000200000200248016B491C01637047000030
:104A1000200000201448016B11B10121C1617047D1
:104A20000021C1610169B1FA81F1C1F11F0101EBFE
:104A300081020E4951F822306BB101EB820101F184
:104A400008034A6852684A609A4201D152684A6033
:104A5000D16801607047502080F31188BFF34F8FF9
:104A6000BFF36F8FFEE700002000002068040020E5
:104A700010B504462DED028BB0EE408A82B090ED69
:104A8000000A01A88DED010AFFF7B6FA9DED010AB3
:104A9000684638EE400A8DED000AFFF7ADFA9DED4D
:104AA000000A1449F0EEC00A10EE900A884213DDA5
:104AB000D4ED030AB5EEC00AF1EE600AC4ED030AB4
:104AC000DFED0D0AF1EE10FA02DD30EE600A01E0D2
:104AD00030EE200A8DED000A94ED000ADDED000AAB
:104AE00030EE200A84ED010A84ED000A02B0BDEC2C
:104AF000028B10BD0000B442000034431CB537489F
:104B00000168374A914207D1502080F31188BFF3E2
:104B10004F8FBFF36F8FFEE700683149491E88420F
:104B200007D1502080F31188BFF34F8FBFF36F8FF1
:104B3000FEE72C4908780190FF20087008788DF86E
:104B400000009DF800009DF8002000F0F000904269
:104B500007D0502080F31188BFF34F8FBFF36F8FC2
:104B6000FEE79DF80000204C00F050002070072068
:104B7000A06005E09DF8002052008DF80020401E46
:104B80009DF800201206F5D4A060032807D050201D
:104B900080F31188BFF34F8FBFF36F8FFEE74FF4A1
:104BA0004070A060019808700C482030016841F402
:104BB00070010160016841F070410160FFF7B4FECF
:104BC00000206060FBF766FB0848016841F0404147
:104BD0000160FBF74BFB00201CBD000000ED00E076
:104BE00071C20F4100E400E07C00002034EF00E0DF
:104BF0002DE9FF5F8346DDE90E87994616468A4612
:104C00009000FFF757FD05001CD05420FFF752FD20
:104C1000040014D00020256384F85100CDE902403F
:104C2000CDE900874B46324651465846FFF7ACFC6B
:104C30002046FFF7D1FB012004B0BDE8F09F2846D5
:104C4000FFF740FE4FF0FF30F6E7F0B585B0DDE945
:104C50000B640A9DA6B1DCB1542700972663022697
:104C600084F85160002604AFCDE90246CDE9005733
:104C7000FFF78AFC2046FFF7AFFB049805B0F0BDB4
:104C8000502080F31188BFF34F8FBFF36F8FFEE783
:104C9000502080F31188BFF34F8FBFF36F8FFEE773
:104CA0002DE9F0412F4C0026206B28B1A069401C53
:104CB000A0613046BDE8F081E5686D1CE56013D168
:104CC000606B006838B1502080F31188BFF34F8FBC
:104CD000BFF36F8FFEE7606BA16B6163A063206A17
:104CE000401C2062FFF7C2FCA06ADFF87C8085428E
:104CF00009D3606B0068A0B1606BC068C768786852
:104D0000854211D2A0622068C06A00EB800158F889
:104D10002100012800D90126E0690028C9D0012618
:104D2000C7E74FF0FF30EDE7381DFFF747FDB86AE2
:104D300018B107F11800FFF741FDF96A0120226957
:104D400088401043206101EB810108EB8100391D8F
:104D5000FFF778FDF86A2168C96A8842C9D301263D
:104D6000C7E7000020000020680400202DE9F0477C
:104D70002C4D00242746286B38B1FFF76FFD286BB8
:104D8000401E2863286B40B146E0502080F3118814
:104D9000BFF34F8FBFF36F8FFEE7A968224E01204C
:104DA000D1B3A6F1B40980463068E8B1F068C468B0
:104DB00004F11800FFF702FD201DFFF7FFFCE06A79
:104DC0002A6908FA00F11143296100EB800109EB1F
:104DD0008100211DFFF736FDE06A2968C96A884213
:104DE000E2D3C5F81C80DFE70CB1FFF73FFCAC69EC
:104DF00044B14646FFF754FF00B1EE61641EF9D19D
:104E00000020A861E86938B108490127380708601F
:104E1000BFF34F8FBFF36F8FFFF740FD3846BDE8FC
:104E2000F0870000200000201C05002004ED00E0B9
:104E300021F00042A2F16052B2F5801F01F0004360
:104E400028BFD2F17F6C0BD95FEA001C43EAC20293
:104E500042EB507018BF704728BF20F00100704728
:104E6000B2F5801FBCBF184670474FEA410C1CF5D5
:104E7000001F02D2084600F04DBA70B500F0B4F839
:104E800000000089FFF7F6BF4FF00040A0F580005A
:104E900070470000DFF848C170B51CEA111E1EBF44
:104EA0001CEA13159EEA0C0F95EA0C0F00F06F80B8
:104EB00081EA030423EA4C134EEAD47E21EA4C1122
:104EC00041F4801143F48013AE44A1FB024CA0FBDB
:104ED0000365AEF17F7E361955EB0C05A1FB034C43
:104EE0004CF10003A0FB021C16EB0C06654153F1CC
:104EF0000003094218BF46F0010613F4007F0BD1EE
:104F00004FEA03314FEA0530340341EA155140EAD4
:104F100016506FF003020AE04FEAC3214FEAC520A2
:104F2000F40241EA555140EA56506FF0020202EB9A
:104F30002E4201EB025585EACE710AD05FEA440C9D
:104F400018BF24F0004450F1000041F1000120EAB4
:104F5000D47040F2FE7C624500D270BDA84214BFFE
:104F60004FF080444FF04044002E08BF0024BEF1B3
:104F7000806FA8BFA1F1C041BDE8704080F282807F
:104F80004FF0000001F1C04101F0004170479EEA7E
:104F90000C0F0CEA131518BF95EA0C0F06D04FF052
:104FA000000081EA030E0EF0004170BD00F01CF815
:104FB0008900013E00F007B800F009B84FEA430C41
:104FC0005FEA5C5C08D081EA030100F05BB84FEA5D
:104FD000410C5FEA5C5CF6D14FF00000014970477C
:104FE0000000FF070000F87F0EF1020E2EF0030E06
:104FF0005EF8046B364205D4012A43EB030515F530
:10500000001F12D8012841EB010C1CF5001F0CD821
:105010000ED14FEAD17C15F5001F0CEB4C0C0CF1B6
:10502000020C08BF4CEBD37C04E04FF0080C01E00D
:105030004FEAD37C0CEB4C0526FA05F606F0070682
:10504000B6F1040C06D20EEB860CBDE870404CF0B5
:10505000010C6047DFE80CF0090B02024FF0004141
:105060004FF00000A1F5002170BD1946104601283F
:1050700051EB010418BFD4F5001484BF002001F0E7
:10508000004170BD0808A0F500114FEA31017047DA
:105090002DE9F04101F5801CBCF5001FC0F2A9808C
:1050A0004FEA115C21EA0C510CF1FD0C41F4801126
:1050B0005FEA5C0C0CF5C07C01D34000494130A490
:1050C000890241EA905187028E0E0A0CA45D04FB0E
:1050D00004F602FB06F6C6F14046A4FB0662F60D96
:1050E00046EA422606FB06F4A4FB01235242C3F122
:1050F000404338BF5B1EA6FB02420024E6FB0324AC
:10510000D20B42EA4446A6FB0623A1FB02E2A3FB24
:1051100007E4E3FB61426442C2F1404E38BFAEF1A6
:10512000010EA6FB04234FF00002E6FB0E32A2FBA9
:1051300003463400E2FB6264A1FB06E6A4FB07E839
:10514000E4FB61687642C8F1405838BFA8F1010815
:10515000A2FB06E4A3FB08E5E2FB6854A1FB05E61D
:10516000A7FB04E8E1FB648618F1200556F1000670
:10517000A809A8F11B08B10908F03F08B8F10A0F07
:1051800040EA86601CD901EB0C51BDE8F08100BFFC
:10519000FCF5EEE8E2DDD8D3CFCBC7C3C0BDB9B6CE
:1051A000B4B1AEACA9A7A5A3A19F9D9B9A989695D3
:1051B0009392908F8D8C8B8988878685848382815A
:1051C000A0FB006800FB01F208EB4208B8EB87285F
:1051D00007D5341858EB0104D5D5401C51F1000116
:1051E000D1E7341A78EB0104CDD4401E71F10001EF
:1051F000C9E75FEA4C0C5FEA9C5C0DD105D34FF028
:10520000000001F00041BDE8F081BDE8F04170B55B
:10521000FFF7EAFE6DDBFFBEBDE8F0414FF0000096
:10522000004970470000F87F43004FEAD30C4FEA73
:105230003C0C43401FBF40070CF1605113F0FE4F80
:1052400070471CF0006F03D100200CF00041704744
:105250000CF0004343EA507010B540EACC0000F077
:105260000EF800BF000000924FEA0001FFF70ABFEE
:105270004FF000414FF00000A1F5002170470EF102
:10528000020E2EF0030E5EF8044B244204D44FEAC3
:105290004102B2F17F4F11D84FEA4003B3F17F4F83
:1052A0000CD80ED14FEAD07CB2F17F4F0CEB4C0CF6
:1052B0000CF1020C08BF4CEBD17C04E04FF0080C61
:1052C00001E04FEAD17C0CEB4C0324FA03F404F028
:1052D0000704B4F1040C06D20EEB840CBDE81040B8
:1052E0004CF0010C6047DFE80CF0070802024FF0B9
:1052F0000040A0F5800010BD0846420018BFD2F162
:10530000807288BF00F0004010BD4FF04070E1EEA9
:10531000100A7047FF2141EAD050C00570470000D5
:10532000005400088D31000800000000000000005B
:10533000800000000000000000000000E0530008B2
:10534000F9070008FEFF00000000000080000000D8
:105350000000000000000000F05300086106000893
:1053600000000000000000008000000000000000BD
:1053700000000000D85300085D2E00080200000065
:10538000000000008000000000000000000000009D
:1053900000061016000610160000000000000000B5
:1053A00001020304060708090000000001020304CB
:1053B000CDCC4C3ECDCC4C3E000000006E83F9A21B
:1053C0002915444ED15727FCC0DD34F5999562DB91
:1053D0004190433CAB6351FE52435F5461736B0099
:1053E000444A495F4D6F746F725F5461736B000084
:1053F000436861737369735F5461736B00000000ED
:1054000064656661756C745461736B002C5400089C
:1054100000000020B8000000E8010008E454000883
:10542000B8000020F84D0000040200080000000051
:10543000000000000000000000000000010000006B
:1054400010000000000000000024F4000000000034
:10545000000000000000000000000000000000004C
:10546000000000000000000000000000000000003C
:10547000000000000000000000000000000000002C
:10548000000000000000000000000000000000001C
:10549000000000000000000000000000000000000C
:1054A000000000000000000000000000AAAAAAAA54
:1054B00000000000000000000000000000000700E5
:1054C00007000B000D000C00160018000000000083
:1054D00000000000000000000000000000000000CC
:0454E00000000000C8
:04000005080001AD41
:00000001FF
