:020000040800F2
:10000000604D00200D030008D92500084B20000892
:100010006923000883050008292C0008000000005F
:100020000000000000000000000000004D02000879
:10003000DD08000800000000A9020008E52800080B
:1000400027030008270300082703000827030008E8
:1000500027030008270300082703000827030008D8
:1000600027030008270300082703000827030008C8
:1000700027030008270300082703000827030008B8
:10008000270300082703000827030008910500083C
:100090008505000827030008270300082703000838
:1000A00027030008B52900082703000827030008D4
:1000B0002703000827030008270300082703000878
:1000C0002703000827030008270300082703000868
:1000D0002703000827030008270300082703000858
:1000E0002703000827030008270300082703000848
:1000F0002703000827030008270300082703000838
:100100002703000827030008270300082703000827
:100110002703000827030008270300082703000817
:100120002703000827030008270300082703000807
:1001300027030008270300082703000827030008F7
:1001400027030008270300082703000827030008E7
:1001500027030008270300082703000827030008D7
:1001600027030008270300082703000827030008C7
:1001700027030008270300082703000800000000E9
:1001800027030008270300082703000827030008A7
:100190002703000827030008270300082703000897
:1001A00000000000000000002703000800F002F833
:1001B00000F03CF80AA090E8000C82448344AAF1C5
:1001C0000107DA4501D100F031F8AFF2090EBAE8C3
:1001D0000F0013F0010F18BFFB1A43F0010318477B
:1001E0000C5B00002C5B0000103A24BF78C878C17B
:1001F000FAD8520724BF30C830C144BF04680C602D
:10020000704700000023002400250026103A28BF74
:1002100078C1FBD8520728BF30C148BF0B60704778
:100220001FB505F0FAFB1FBD10B510BD00F074F945
:100230001146FFF7F5FF04F013F800F092F903B44C
:10024000FFF7F2FF03BC00F095F900002C4B196892
:100250000868B0E8F04F80F30988BFF36F8F4FF064
:10026000000080F311887047000000000848006813
:10027000006880F308884FF0000080F3148862B6AD
:1002800061B6BFF34F8FBFF36F8F00DF00BF00BFBA
:1002900008ED00E0DFF80C00016841F47001016036
:1002A000704700BF88ED00E0EFF30980BFF36F8F68
:1002B000134B1A681EF0100F08BF20ED108A20E9BA
:1002C000F04F106009B44FF0500080F31188BFF375
:1002D0004F8FBFF36F8F04F09DFB4FF0000080F352
:1002E000118809BC19680868B0E8F04F1EF0100FBB
:1002F00008BFB0EC108A80F30988BFF36F8F704796
:100300001C000020EFF3058070470000094880477B
:1003100009480047FEE7FEE7FEE7FEE7FEE7FEE7E7
:10032000FEE7FEE7FEE7FEE704480549054A064BFF
:1003300070470000A5290008AD01000860470020B3
:10034000604D0020604900206049002053EA020C03
:1003500000F069802DE9F04B4FF00006002B1FBF25
:10036000B3FA83F503FA05F424FA05F65E4012BFEA
:100370001643B2FA82F502FA05F4C5F120051EBF54
:1003800022FA05FC44EA0C04203556EA044C4FEAF4
:10039000144418BF641C4FF000084FF0000990424D
:1003A00071EB030C39D3002919BFB1FA81F701FAB7
:1003B00007F6B0FA80F700FA07F6C7F120071EBF6C
:1003C00020FA07FC46EA0C062037B6FBF4FCA7EB44
:1003D0000507103F07F01F0BCBF120060CFA0BFBB3
:1003E0002CFA06F644BFB3460026202FA4BF5E4673
:1003F0004FF0000B5BEA060C08BF4FF0010B19EB46
:100400000B09ABFB027C48EB0608C01B06FB02CCC9
:100410000BFB03CC71EB0C01C1E70B4602464146D6
:100420004846BDE8F08B13B54FF000004FF00001D7
:10043000AFF30080BDE81C40704710B5203AC0F013
:100440000B80B1E81850203AA0E81850B1E81850D5
:10045000A0E81850BFF4F5AF5FEA027C24BFB1E812
:100460001850A0E8185044BF18C918C0BDE8104083
:100470005FEA827C24BF51F8043B40F8043B08BF8C
:100480007047D20728BF31F8023B48BF11F8012B53
:1004900028BF20F8023B48BF00F8012B70474FF0FF
:1004A000000200B5134694469646203922BFA0E8C4
:1004B0000C50A0E80C50B1F12001BFF4F7AF0907D0
:1004C00028BFA0E80C5048BF0CC05DF804EB8900C1
:1004D00028BF40F8042B08BF704748BF20F8022B04
:1004E00011F0804F18BF00F8012B7047704770471C
:1004F000704710B500F008F8006810BD10B504464C
:1005000000F002F8046010BD00487047004700206A
:1005100000487047004700207546FFF7F9FFAE46D8
:1005200005006946534620F00700854618B020B5FF
:10053000FFF7FAFEBDE820404FF000064FF000073D
:100540004FF000084FF0000B21F00701AC46ACE87B
:10055000C009ACE8C009ACE8C009ACE8C0098D46E8
:10056000704710B50446AFF300802046BDE8104048
:10057000FFF765BE01491820ABBEFEE7260002006A
:100580007047FEE7014800F0A6BB000054030020BE
:10059000014800F0A0BB00005403002000B58BB060
:1005A00000200121CDE90601089100900190029000
:1005B0000390059004906946054800F091FA0448BC
:1005C00000F0B4FD0221024800F014FA0BB000BDA7
:1005D0005403002010B5D1E900329A1A4B60D0F8CC
:1005E000943003EBD374B2EB640F00DDD21A6410C5
:1005F0006442944200DD1A4400EE102AD0ED100A45
:10060000B8EEC00A30EE800ADFED060A80ED100A6F
:1006100091ED030AB8EEC00A20EE200A80ED040A2C
:1006200010BD000063CF0B3E0C480121C0F8A410A0
:100630000221C0F84C110321C0F8F4110421C0F8C4
:100640009C120521C0F844130621C0F8EC130721C1
:10065000C0F894140821C0F83C15704720410020D0
:100660002DE9F04117462DED0E8B0E460446B0EEF7
:1006700042AAF0EE62AAB0EE418AF0EE618A9FEDE6
:100680007FCBB0EE4A0AF0EE6A0AB0EE4C1AF0EEFA
:100690006C1A02F099FEB0EE401AF0EE601AB0EE5D
:1006A000419AF0EE619AB0EE4C1AF0EE6C1AB0EE90
:1006B000480AF0EE680A02F087FE53EC192B51EC61
:1006C000100B04F0ADFB41EC100B03F0A5FCB0EEF9
:1006D000408AF0EE608A9FED6B0B51EC180B53ECE7
:1006E000102B04F033FE41EC1B0BB0EE4C1AF0EE75
:1006F0006C1A9FED66DBB0EE4D0AF0EE6D0A02F06B
:1007000063FEB0EE409AF0EE609AB0EE4C1AF0EE56
:100710006C1AB0EE480AF0EE680A02F055FEB0EE30
:1007200040EAF0EE60EAB0EE4C1AF0EE6C1AB0EE71
:100730004D0AF0EE6D0A02F047FEB0EE401AF0EE00
:10074000601A53EC1E2B51EC110B04F069FB53ECB7
:10075000192B05F007F853EC1B2B04F01DFC41ECA2
:10076000100B02F0D5FAB0EE40BAF0EE60BA53ECDE
:100770001C2B51EC180B04F0E9FD53EC1D2B04F07D
:10078000E5FD41EC190BB0EE4C1AF0EE6C1AB0EE30
:100790004D0AF0EE6D0A02F017FEB0EE40EAF0EE00
:1007A00060EAB0EE4C1AF0EE6C1AB0EE4D0AF0EEC4
:1007B0006D0A02F009FEB0EE40DAF0EE60DAB0EE5B
:1007C0004C1AF0EE6C1AB0EE480AF0EE680A02F02D
:1007D000FBFD53EC1D2B51EC100B04F021FB53ECF3
:1007E0001E2B04F0BFFF53EC192B04F0D5FB41EC9A
:1007F000100B02F08DFAB0EE409AF0EE609A9FED89
:10080000250B53EC182B84ED000B51EC1A0B04F064
:10081000C3FB0D46044645EC100B02F025FCB0EE80
:10082000401AF0EE601A53EC1B2B51EC110B04F044
:10083000C1FE9FED1A1B53EC112B04F087FDC6E996
:10084000000145EC104B02F00FFC9FED161B51EC24
:10085000100B53EC112B04F0ADFE53EC192B04F0EC
:1008600081FF9FED121B53EC112B04F06FFDC7E9C4
:100870000001BDEC0E8BBDE8F0810000000000001F
:10088000000000400000000000006E40000000007A
:1008900000005E40000000000080564012143FC679
:1008A000DCA54CC0182D4454FB21F93F12143FC65F
:1008B000DCA54C40FFF7B8FE02221146002000F0F4
:1008C0000FF89FED050A002001F08AFF01F04EFDB0
:1008D000012003F0DCFCF9E70000704270470000E3
:1008E0002DE9F041C0EBC003334D03EB430617463F
:1008F00005EBC604012222725203C4F894209FED36
:100900002F1A00EB800305F5A86202EB830884ED43
:10091000101A88F8081001F02BFE98F808009FEDD7
:10092000282A9FED280ADFED280ADFED281A012882
:100930002AD0022826D145F83670DFED252A9FED12
:10094000253AC4ED0B2A84ED0C3AB1EE083A84ED59
:100950000F3A9FED213A84ED073AC4ED182ADFEDF6
:100960001F2A00BFC4ED172A84ED1B2A84ED090A53
:1009700084ED0A0A84ED051A84ED150AC4ED140A03
:10098000C4ED1A1ABDE8F081DFED152A45F836707E
:10099000C4ED0B2ADFED132AC4ED0C2AF3EE042A72
:1009A000C4ED0F2ADFED102AC4ED072A84ED181AD2
:1009B000DFED0E2AD6E700002041002000000000F5
:1009C000CDCC4C3F00007A4400004842000020C3D8
:1009D000CDCC4C3DA69B443B000016451B2FDD3C77
:1009E000CDCCCC3D6F12833A0000A044AE47E13D30
:1009F00072B6FEE790F82020012A07D0022A05D01F
:100A0000416A41F4802141620120704700684269D7
:100A10000A43426100207047F0B590F82050046806
:100A2000A468012D05D0022D03D0416A41F4802134
:100A300053E014F0406F01D1E5004BD5C4F30164DD
:100A4000022C03D9416A41F4000146E00125A5408A
:100A50001D608D684FF4C0739DB1CE6835434E68FC
:100A600045EAC605066803EB0417F5514FF4C27555
:100A7000076805EB04150E697E51097D012905D033
:100A800009E00E88CD6845EA4655EBE701684E5906
:100A900046F480764E511179D2F805504FF4C6765F
:100AA00041EA0525016806EB04168D511178D2F84C
:100AB00001204FF4C47541EA0221026805EB0415D8
:100AC0005151006803EB0411425842F001024250B8
:100AD0000020F0BD416A41F4001141620120F0BDE7
:100AE00010B590F82020012A07D0022A05D0416ACB
:100AF00041F480214162012010BD3B48D0F8002222
:100B000042F00102C0F80022D0F8002222F47C5208
:100B1000C0F80022D0F800224B6A42EA0322C0F853
:100B200000220A7D02F01F0301229A40D0F81C32F5
:100B30009343C0F81C32CB69B3B9D0F80C3293435D
:100B4000C0F80C328C894B6864F31F434C6900EB8E
:100B5000C404C4F840320C890B6864F31F434C6929
:100B600000EBC404C4F84432CB69012B16D1D0F891
:100B70000C321343C0F80C320C884B6864F31F43EB
:100B80004C6900EBC404C4F840320C89CB6864F3B0
:100B90001F434C6900EBC404C4F844328B69002B3A
:100BA000D0F804320ED01343C0F804320B69002B86
:100BB000D0F8143208D01343C0F81432096A01295E
:100BC00004D008E09343EFE79343F5E7D0F81C1215
:100BD0001143C0F81C12D0F8001221F00101C0F836
:100BE0000012002010BD000000640040704730B5C6
:100BF00090F82040012C05D0022C03D0416A41F42A
:100C000080215DE00468002955D02469A40754D0F0
:100C10004FF4D874056804EB01142D5915F0040540
:100C2000956005682D594ED0ED08556005682C5922
:100C300004F00204D4604FF4DA74056804EB011484
:100C40002D5905F00F05156105682D59C5F30725C8
:100C5000956105682C59240C54614FF4DC720468CA
:100C600002EB0112A4581C700468A458240A5C709A
:100C70000468A458240C9C700468A258120EDA7000
:100C80004FF4DE72046802EB0112A4581C71046870
:100C9000A458240A5C710468A458240C9C7104684C
:100CA000A258120EDA71006881B1016941F0200189
:100CB0000161002030BDE468A8E7416A41F40011F9
:100CC0004162012030BD6D0D1560AFE7C16841F094
:100CD0002001C160EDE72DE9F05F054600680024C2
:100CE0004669D0F804908768D0F80CB0D0F810A00E
:100CF000D0F81880F10748D0F90714D0012181609D
:100D0000B80703D5284600F03EFA0CE0780702D574
:100D10004FF4006407E0380702D54FF4805402E036
:100D2000284600F02FFAF80516D529684FF4807090
:100D30008860B80503D5284600F027FA0CE078054E
:100D400002D544F4005407E0380502D544F4804449
:100D500002E0284600F018FAF80316D529684FF487
:100D600080308860B80303D5284600F010FA0CE004
:100D7000780302D544F4004407E0380302D544F474
:100D8000803402E0284600F001FA300707D55FEA18
:100D9000CB6004D52968102044F40074C860700743
:100DA0004FF0080707D55FEA0B7004D52868C760C5
:100DB000284600F05FF9B00706D52868C0688007AC
:100DC00002D0284600F058F9700607D55FEACA60DD
:100DD00004D52968102044F480640861B00607D562
:100DE0005FEA0A7004D528680761284600F09AF97E
:100DF000F00606D528680069800702D0284600F072
:100E000092F9B00308D55FEAC96005D529681020BA
:100E10004860284600F088F9F00307D55FEA0970BA
:100E200004D528684760284600F0B2F9300446D55A
:100E30005FEA497040D5F00504D55FEAC87001D07B
:100E400044F00104B00504D55FEA887001D544F090
:100E50000204700504D55FEA487001D544F004042B
:100E6000300529D518F0700F26D008F07000402802
:100E700015D006DC102809D020280AD0302816D139
:100E80000AE050280ED0602811D10EE044F008048A
:100E90000DE044F010040AE044F0200407E044F0C0
:100EA000400404E044F0800401E044F480742868C5
:100EB000816921F070018161296804204860002C5B
:100EC00005D0686A204368622846FFF78FFEBDE8B8
:100ED000F09F70B5040003D094F8200010B104E036
:100EE000012070BD204600F081F82068016841F0C3
:100EF0000101016000F076FA0546052604E000F0E5
:100F000071FA401B0A2811D820684068C007F6D043
:100F10002068016821F00201016000F063FA0546D3
:100F20000BE000F05FFA401B0A2806D9606A40F423
:100F30000030606284F82060D2E720684068800753
:100F4000EFD4207E0128206801683DD021F0800187
:100F50000160607E01282068016838D021F04001DE
:100F60000160A07E01282068016833D021F02001B3
:100F70000160E07E0128206801682ED041F0100158
:100F80000160207F01282068016829D021F0080134
:100F90000160607F01282068016824D021F00401ED
:100FA0000160D4E902010843D4E904121143084363
:100FB0006168491E08432168C86100206062012001
:100FC00084F82000002070BD41F08001C0E741F0AE
:100FD0004001C5E741F02001CAE721F01001CFE749
:100FE00041F00801D4E741F00401D9E710B586B01B
:100FF000044614216846FFF752FA1B4920688842CC
:101000002FD11A480021026842F000720260006885
:1010100000F00070059015481038026842F0080290
:1010200002600068022200F0080005900320CDE96C
:101030000210CDE900020920049069460C4800F036
:10104000A9F800220521132000F058FA132000F01F
:1010500047FA00220521142000F050FA142000F075
:101060003FFA06B010BD0000006400404038024066
:10107000000C024070470000274910B54A68274B12
:10108000521C4A60A3F11C020021FFF7B0FD234966
:101090001C390868A0F50072013A19D0A0F5007259
:1010A000023A15D0A0F50072033A11D0B0F5017FD5
:1010B0000ED0A0F50072053A0AD0A0F50072063AEB
:1010C00006D0A0F50072073A02D0B0F5027F22D117
:1010D0004A7F0B7F401EC0B202EB032200EB80036D
:1010E0000F4840F8232000EB830090F91330322B97
:1010F00003DA4260C27C521CC274CA7F11F81E3FE0
:101100001B0202FA83F2C260CA788B7802EB0322D8
:1011100002820979817410BD8400002018410020EA
:1011200060460020704770477047000070B5044665
:1011300090F82000012804D0606A40F4002060622A
:1011400018E0022084F820002068016821F00101E5
:10115000016000F047F905460EE000BF00F042F9DB
:10116000401B0A2808D9606A40F4003060620520FC
:1011700084F82000012070BD20684068C007EDD1D0
:10118000606270BD70477047704770477047704726
:10119000704700002DE9F84FDFF8F8A10022012484
:1011A00003254FF00F090AF1040BAAF1040E00BF4A
:1011B0000B6804FA02F63340B34270D10F7907F09E
:1011C0000307012F01D0022F16D187684FEA42088A
:1011D00005FA08FC27EA0C07D1F80CC00CFA08FC49
:1011E0004CEA070CC0F808C04768B7430E79C6F34D
:1011F000001696403E4346600E79F643B6070AD085
:10120000C7684FEA420C05FA0CF6B7438E6806FA37
:101210000CF63E43C6600E7906F00306022E10D18E
:10122000D60800EB8608D8F8206057074FEAD76C3D
:1012300009FA0CF7BE430F6907FA0CF73743C8F8F1
:10124000207006684FEA420C05FA0CF7BE430F798E
:1012500007F0030707FA0CF7374307604E6816F4E8
:10126000403F1CD04C4E376847F4804737603668A3
:1012700022F0030706F480460096484E07EB060C62
:10128000DCF8086897073F0F09FA07F826EA08060E
:10129000DFF80C81404503D14FF0000841E072E0D7
:1012A000DFF80081404502D14FF0010839E0DFF856
:1012B000F880404502D14FF0020832E0DFF8EC80C0
:1012C000404502D14FF003082BE0DFF8E4804045B1
:1012D00002D14FF0040824E0DFF8D880404502D165
:1012E0004FF005081DE0DFF8D080404502D14FF0F7
:1012F000060816E0DFF8C480404502D14FF0070829
:101300000FE0DFF8BC80404502D14FF0080808E04C
:10131000DFF8B080404502D14FF0090801E04FF0FE
:101320000A0808FA07F848EA0608CCF80888DAF844
:1013300000605746D1F804C09E435FEACC2C00D52C
:101340001E433E60DBF800605F46D1F804C09E4358
:101350005FEA8C2C00D51E433E60DEF800607746C5
:10136000D1F804C09E435FEA8C3C00D51E433E602A
:10137000084F083F3E68D1F804C09E435FEACC3C6A
:1013800000D51E433E60521C102AFFF411AFBDE889
:10139000F88F0000083C0140443802400030014012
:1013A000000002400004024000080240000C02401D
:1013B000001002400014024000180240001C0240CD
:1013C0000020024000240240426921EA02030A4050
:1013D00043EA0241816170470AB1816170470904A3
:1013E000FBE7000001488068704700000C00002007
:1013F0000248816802781144816070470C00002027
:101400000B4810B5016841F400710160016841F4B6
:1014100080610160016841F480710160032000F087
:101420008DF80F2000F006F800F03EF8002010BD07
:10143000003C024010B5014688B00022192000F09F
:101440005DF8192000F04CF813480024016841F0C1
:1014500001010160006805A900F0010006906846DE
:1014600000F018F900F036F90C494000B0FBF1F13A
:101470000C480B4A491E026040F2E732C0E90324DF
:10148000C0E9011400F068FB10B1012008B010BDE4
:10149000044800F08FFBF9E74438024040420F0057
:1014A00000000140C40300200C4882B0016841F4F0
:1014B00080410160006800F4804000900748001FF0
:1014C000016841F0805101600068002200F0805006
:1014D00000900F21901E02B000F010B84438024076
:1014E000002809DB00F01F02012191404009800023
:1014F00000F1E020C0F8001170470000F0B40E4B7E
:101500001B680C46C3F30223C3F10705042D00D961
:101510000425191D072901D2002300E0DB1E012646
:1015200006FA05F1491E214099409E40761E16405C
:101530003143F0BC01F0DABB0CED00E0064900F0ED
:10154000070208684FF6FF03184040EA0220034AEA
:1015500010430860704700000CED00E00000FA0541
:101560002DE9F0470E46050065D0DFF81481D8F864
:101570000000F7B200F00F00B04207D288F8007008
:10158000D8F8000000F00F00B04254D128683D4C5C
:10159000810712D5400703D5206840F4E050206051
:1015A0002878000703D5206840F460402060206858
:1015B000A96820F0F000084320602878C0072DD0EB
:1015C000304968680839012812D0022813D003284E
:1015D00011D00968890700292DDA216821F003015B
:1015E00001432160FFF7FEFE814641F2883A0EE09A
:1015F00009688903EFE709688901ECE7FFF7F2FE64
:10160000A0EB0901514502D90320BDE8F08720680D
:10161000696800F00C00B0EB810FEFD1D8F8001032
:10162000404601F00F01B14207D90770006800F091
:101630000F00B04201D00120E7E72878400705D528
:101640002068E96820F4E05008432060287800070B
:1016500006D52068296920F4604040EAC100206076
:1016600000F048F82168084AC1F30311515CC840F2
:101670000649086006480068FFF7DCFE0020C4E762
:10168000003C024008380240745B0008180000204B
:10169000100000200F2202600C4A136803F00303BD
:1016A0004360136803F0F0038360136803F4E053AE
:1016B000C36012684FF4E05303EAD20202610448A7
:1016C000006800F00F000860704700000838024012
:1016D000003C02400448054900680968044AC1F317
:1016E0004231515CC8407047180000200838024061
:1016F000845B0008154810B5006810F00C0214480F
:1017000013D01449042A0FD0082A0ED10F4C241FDD
:101710002268236802F03F025B0207D52068C0F30D
:101720008810A0FB010106E0084610BD2168C1F346
:101730008811A1FB00010023FEF708FE2168C1F318
:101740000141491C4900B0FBF1F010BD08380240CE
:101750000024F400001BB7002DE9F84F04006ED000
:101760002078DFF84C93C007A9F104054AD009F1AD
:1017700004000168C1F38101012908D00068C0F3A9
:10178000810002280AD1D9F80000400206D5286855
:10179000800337D560680028E1D033E06068B0F599
:1017A000803F10D0B0F5A02F286810D020F48030F2
:1017B0002860286820F4802028606068A8B1FFF7BE
:1017C00011FE06460DE0286840F48030F4E740F44E
:1017D00080202860F7E700BFFFF704FE801B642825
:1017E00073D828688003F7D50CE0FFF7FBFD0646A9
:1017F00005E000BFFFF7F6FD801B6428F0D82868DD
:101800008003F7D42078DFF8AC8280074FF0000A1D
:101810003ED5A748001D016811F00C0F08D00068E4
:10182000C0F3810002280BD1D9F80000400207D490
:101830002868800716D5E068012800D112E033E15E
:10184000E068B8B10120C8F80000FFF7CBFD0646FC
:1018500005E000BFFFF7C6FD801B0228C0D828683E
:101860008007F7D52868216920F0F80040EAC10018
:1018700028600DE0C8F800A0FFF7B4FD064604E0BC
:10188000FFF7B0FD801B02281FD828688007F7D417
:101890002078000722D5864F87486169703771B17B
:1018A00001210160FFF79EFD064604E0FFF79AFD67
:1018B000801B022809D838688007F7D50EE0C0F8E9
:1018C00000A0FFF78FFD064605E082E0FFF78AFDE6
:1018D000801B02287DD838688007F7D4207840071D
:1018E00068D5DFF8CCB100270BF13C0BDBF800002A
:1018F000C0000BD4DBF8001041F08051CBF8001091
:10190000DBF80000012700F0805000906B4E30683B
:10191000C00510D4306840F480703060FFF762FD7D
:10192000009005E0FFF75EFD0099401A022850D8AC
:101930003068C005F6D55E4EA0686C3601280FD021
:101940000528306810D020F001003060306820F0A9
:1019500004003060A068B8B1FFF744FD00900FE0CC
:10196000306840F00100F4E740F004003060F7E731
:10197000FFF738FD0099411A41F28830814266D85C
:1019800030688007F4D50EE0FFF72CFD009007E0EB
:10199000FFF728FD0099411A41F28830814256D85C
:1019A00030688007F4D42FB1DBF8001021F08051AB
:1019B000CBF80010A069C8B33D49091D0968C1F3FF
:1019C000810102294AD00228504607D0C8F8600099
:1019D00000E03CE0FFF706FD04463BE04746C8F860
:1019E0006000FFF7FFFC064605E000BFFFF7FAFCCA
:1019F000801B02282BD828688001F7D4D4E907017E
:101A00000843A16A2E4A490802EB0141626A41EA91
:101A10008211084394F82C1040EA0161C9F80010C3
:101A200001203866FFF7DEFC044606E03EE000BF1A
:101A3000FFF7D8FC001B022809D828688001F7D5D9
:101A400034E000BFFFF7CEFC001B022802D90320C0
:101A5000BDE8F88F28688001F4D427E00128F7D08A
:101A6000D9F80000E26900F4800191421CD1226A99
:101A700000F03F01914217D147F6C071626A014000
:101A8000B1EB821F10D1A26A4FF0FF3300F4403156
:101A900003EB5202B1EB024F06D194F82C1000F088
:101AA0007060B0EB016F01D00120D1E70020CFE7DB
:101AB0000438024000004742800E47420070004058
:101AC0000000FFFF7047704770B590F83C20012A76
:101AD00032D0012480F83C40022280F83D20036887
:101AE0005A689D6822F070060A6832435A60134BA8
:101AF00002689A4214D0B2F1804F11D0104B9A4232
:101B00000ED0104B9A420BD00F4B9A4208D00F4B7D
:101B10009A4205D00E4B9A4202D00E4B9A4204D103
:101B2000496825F080031943916080F83D40002109
:101B300080F83C10084670BD022070BD00000140D6
:101B40000004004000080040000C00400004014078
:101B5000004001400018004010B5040003D094F884
:101B60003D0010B107E0012010BD002084F83C00CA
:101B7000204600F01EF8022084F83D00211D206858
:101B800000F01EFF012084F8460084F83E0084F82F
:101B90003F0084F8400084F8410084F8420084F853
:101BA000430084F8440084F8450084F83D00002098
:101BB00010BD704790F83D10012901D001207047F9
:101BC000022180F83D100168CA6842F00102CA6033
:101BD00000681149884214D0B0F1804F11D00F49EC
:101BE00088420ED00E4988420BD00E49884208D058
:101BF0000D49884205D00D49884202D00C498842DF
:101C000004D1816801F00701062903D0016841F081
:101C10000101016000207047000001400004004005
:101C200000080040000C004000040140004001405A
:101C300000180040704770B50446006801694FF015
:101C40000005C943890715D4C168C943890711D460
:101C5000E91E016101202077206880698007204605
:101C600002D0FFF7E7FF04E000F0D6F8204600F0CE
:101C70007BF9257720680169C943490717D4C168F2
:101C8000C943490713D46FF0040101610220207792
:101C90002068806910F4407F204602D0FFF7CAFF19
:101CA00004E000F0B9F8204600F05EF925772068DE
:101CB0000169C943090716D4C168C943090712D489
:101CC0006FF008010161042020772068C069800757
:101CD000204602D0FFF7AEFF04E000F09DF820465A
:101CE00000F042F9257720680169C943C90617D475
:101CF000C168C943C90613D46FF0100101610820FF
:101D000020772068C06910F4407F204602D0FFF79A
:101D100091FF04E000F080F8204600F025F92577D7
:101D200020680169C943C90708D1C168C943C90707
:101D300004D1891E0161204600F07CF92068016908
:101D4000C943090609D4C168C943090605D46FF01F
:101D5000800101612046FFF7B5FE20680169C94393
:101D6000490609D4C168C943490605D46FF040014A
:101D70000161204600F068F920680169C9438906BD
:101D80000BD4C168C943890607D46FF020010161F3
:101D90002046BDE87040FFF796BE70BD30B587B0F5
:101DA000044614216846FEF77AFB174920688842EA
:101DB00027D116480024016841F480710160016850
:101DC00001F480710591016841F0800101600068B3
:101DD000022500F08000059001200090CDE901541B
:101DE00069460B48CDE90345FFF7D4F94FF4E050BD
:101DF0000090CDE9015469460648CDE90345FFF757
:101E0000C9F907B030BD0000000C00403038024076
:101E100000200240001C0240704770B5044690F854
:101E20003C0000260D4601280FD0012084F83C001C
:101E30006AB1042A1DD0082A2FD00C2A3FD00126CF
:101E4000002084F83C00304670BD022070BD206840
:101E500000F028FE2068816941F008018161206856
:101E6000816921F004018161206881692A69114337
:101E700011E0206800F046FE2068816941F40061AD
:101E800081612068816921F48061816120688169B4
:101E90002A6941EA02218161D2E7206800F068FEE8
:101EA0002068C16941F00801C1612068C16921F061
:101EB0000401C1612068C1692A69114311E02068E9
:101EC00000F08AFE2068C16941F40061C1612068A8
:101ED000C16921F48061C1612068C1692A6941EA50
:101EE0000221C161ACE710B5040003D094F83D00B5
:101EF00010B107E0012010BD002084F83C0020460E
:101F000000F01EF8022084F83D00211D206800F03A
:101F100057FD012084F8460084F83E0084F83F0015
:101F200084F8400084F8410084F8420084F84300BB
:101F300084F8440084F8450084F83D00002010BD7A
:101F400008B500680649884208D10648016841F092
:101F500008010160006800F00800009008BD000062
:101F6000000C0040403802407047000010B50446A5
:101F7000022249B104290ED0082913D094F8410057
:101F8000012816D0012010BD94F83E000128F9D197
:101F900084F83E200FE094F83F000128F2D184F845
:101FA0003F2008E094F840000128EBD184F840205D
:101FB00001E084F841200122206800F065FD164907
:101FC0002068164A884201D0904203D1436C43F402
:101FD000004343642068884213D0B0F1804F10D092
:101FE0000F4988420DD00F4988420AD00E498842D5
:101FF00007D0904205D00D49884202D00C49884252
:1020000004D1816801F00701062903D0016841F07D
:1020100001010160002010BD0000014000040140EA
:102020000004004000080040000C00400040014057
:102030000018004000680349884201D1FFF7D8B971
:1020400070470000000001407047FEE700B590EDCA
:102050001A0A014680ED060A103000F0E6FDD1EDC7
:102060001B0A00F023F981ED1E0A91ED040AB0EE7F
:10207000C00A10EE100AB0F1804F1CDC486F401C03
:102080004867B0F5FA7F15DB05209FED0C0ADFED00
:102090000C0A81ED100AC1ED110A81ED1E0A81EDD5
:1020A000050A81ED060A81ED0E0A81ED030A81ED34
:1020B0000D0A086000BD0020486700BD0000000058
:1020C0000000004671EE602A70EE600A32EE611A7E
:1020D00080EEA20A40EE011ABDEEE10A10EE100AEF
:1020E00000B270470F4810B50D49016003214160EF
:1020F00000214FF410228160C0E903124FF4001256
:102100004261017641768176C17601774177FEF7AB
:10211000E0FE002803D0BDE81040FEF769BC10BD0A
:10212000006400405403002010B596B01C221149F1
:102130006846FEF782F90021684602F0B4F80E4CBA
:102140000C491C2220601C3107A8FEF776F90021FB
:1021500007A802F0A8F8074960601C2238310EA8D1
:10216000FEF76BF900210EA802F09DF8A06016B0F2
:1021700010BD0000205B00080000002030B587B0D3
:1021800014216846FEF78BF91D480024016841F0D0
:1021900001010160016801F001010591016841F050
:1021A00008010160016801F008010591016841F42E
:1021B00080710160016801F480710591016841F04E
:1021C00080010160016801F080010591016841F022
:1021D0004001016000680B4D00F0400005900022B6
:1021E00006212846FFF7F8F8062000900120CDE9E7
:1021F0000104694628460394FEF7CCFF07B030BDC2
:10220000303802400018024010B58AB0002407940C
:102210001C2168460894FEF742F9234821490160D1
:1022200040F24731C0E9011440F2CF71C0E9031414
:102230008461FFF758FE08B1FEF7DAFB079407A99F
:1022400019480894FFF740FC08B1FEF7D1FB602065
:10225000CDE9000402940022694613480494FFF774
:10226000DCFD08B1FEF7C4FB042269460E48FFF707
:10227000D4FD08B1FEF7BCFB082269460A48FFF707
:10228000CCFD08B1FEF7B4FB0C2269460648FFF707
:10229000C4FD08B1FEF7ACFB0348FFF77FFD0AB0B1
:1022A00010BD0000000C00407C030020B4EEE00AEA
:1022B000F1EE10FA01DDB0EE600AF1EE600AB4EE64
:1022C000E00AF1EE10FA01D2B0EE600A70470000A9
:1022D0002DED048B00F00EFA9FED1F9B9FED1A2B46
:1022E0009FED1B1BB0EE490AF0EE690A00F0C8FA38
:1022F0004FF47A7001F0CBFF9FED198B4FF4FA7415
:10230000B0EE490AB0EE482AF0EE682AB0EE481A5C
:10231000F0EE681AF0EE690A00F0B2FA204601F019
:10232000B6FFB0EE492AF0EE692AB0EE481AF0EE98
:10233000681AB0EE490AF0EE690A00F0A1FA2046E8
:1023400001F0A5FFDCE700000000000000002440D1
:1023500000000000000044400000000000000000F9
:102360000000000000C06240FEE700002DE9F041DF
:1023700020212DED028B88B06846FEF790F8784F4B
:102380000026A7F5A8659FED778A00BF06EB8600BB
:1023900007EB8001087A032832D0C6EBC60000EBB9
:1023A000400805EBC8042046FEF714F9207A0128FE
:1023B00002D084ED038A20E055F8380002280CD0C2
:1023C000052802D0062818D110E004F1400000F0E2
:1023D00005F994ED190A84ED050A04F1100001468F
:1023E00000F049FC084600F020FC04E02046FFF71E
:1023F0002DFE94ED1E0A84ED030A761C082EC5DB23
:102400000020DFED590AB3EE041ADFED582AB2EED0
:10241000040A694600EB800207EB8202127A012A65
:102420007FD0022A7CD001EB800282ED008A401C22
:102430000828EFDB9DED000AB5EEC00AF1EE10FAB8
:1024400014D0DDED010AF5EEC00AF1EE10FA0DD060
:10245000DDED020AF5EEC00AF1EE10FA06D0DDED70
:10246000030AF5EEC00AF1EE10FA1BD1DDED030A06
:10247000BDEEC00AFDEEE00A10EE900ADDED020AA4
:1024800003B2FDEEE00A10EE900ADDED010A02B2A1
:10249000FDEEE00A10EE900A01B210EE100A00B252
:1024A00000F03EF99DED040AB5EEC00AF1EE10FA17
:1024B00014D0DDED050AF5EEC00AF1EE10FA0DD0EC
:1024C000DDED060AF5EEC00AF1EE10FA06D0DDEDFC
:1024D000070AF5EEC00AF1EE10FA1BD1DDED070A8E
:1024E000BDEEC00AFDEEE00A10EE900ADDED060A30
:1024F00003B2FDEEE00A10EE900ADDED050A02B22D
:10250000FDEEE00A10EE900A01B210EE100A00B2E1
:1025100000F036F908B0BDEC028BBDE8F08100E0B8
:102520000CE0C0EBC00202EB420205EBC202D2EDAE
:10253000031A61EEA01A81EE812A0BE0C0EBC00203
:1025400002EB420205EBC202D2ED031A61EEA21ABF
:1025500081EE802A01EB800282ED002A67E700000D
:1025600060460020000000000000804600401C463D
:10257000C0EBC001154A01EB4101144B52F8312068
:102580009FED130A03EBC101052A02D0022A05D0F0
:102590000AE0D1ED100AC1ED110A05E081ED050A4E
:1025A00081ED060A81ED070A81ED080A094B81EDEC
:1025B0000D0A00EB800081ED0E0A03EB800081ED37
:1025C000030A0022C26001200872704720410020E7
:1025D0000000000060460020FEE7000010B5044641
:1025E0002DED048BF7EE008A90ED010AD0ED000A84
:1025F00030EE600A80ED020AD0ED070A90ED081A6D
:10260000B5EEC00A20EE208AD0ED030A80ED030A61
:1026100070EE600A01EE208AF1EE10FA01D2FFEEB0
:10262000008AD4ED050A9FED1B1A60EE810A60EE68
:10263000A80A20EE800A10EE100A03F07DF941ECA2
:10264000100B01F0E9FCB0EE409AF0EE609A18EE43
:10265000900A03F071F953EC192B02F077FE02F0A7
:10266000ADFB00EE100AB0EEC81AF0EEC00AF4EEB0
:10267000C10AF1EE10FA01D2B0EE408AD4ED040A9C
:10268000B0EE480AFFF712FE84ED090ABDEC048B98
:1026900010BD00003333B33F00EE101A00B5024600
:1026A0009FED0F2ADFED0F1A9FED0F1ADFED0F0AD6
:1026B000B8EEC00AFFF706FD412A07D0422A08D02B
:1026C000432A0AD0442A07D1094904E008490C31B9
:1026D00001E007490831086000BD0549091DFAE716
:1026E00000007A43000048420000B4420000B4C237
:1026F000340C004010B500210848FFF737FC0421D6
:102700000648FFF733FC08210448FFF72FFCBDE81B
:1027100010400C210148FFF729BC00007C03002079
:1027200030B5154C89B025686D1C25604FF40074D8
:102730000294039400240494059408240694040A43
:102740008DF800408DF80100080A8DF80200100A8B
:102750008DF804008DF80520180A8DF806008DF814
:1027600003108DF8073008AB6A4602A90348FEF74C
:1027700053F909B030BD000084000020540300204C
:1027800030B5154C89B025686D1C256040F2FF14EA
:102790000294039400240494059408240694040AE3
:1027A0008DF800408DF80100080A8DF80200100A2B
:1027B0008DF804008DF80520180A8DF806008DF8B4
:1027C00003108DF8073008AB6A4602A90348FEF7EC
:1027D00023F909B030BD000084000020540300201C
:1027E00000EB80020C49C0EBC00001EB82010B4AF8
:1027F000097A00EB400002EBC000022909D0012950
:1028000006D1DFED070A00BF20EE200A80ED050AA1
:102810007047DFED040AF7E7604600202041002002
:10282000420626404F499D4010B52DED068BB0EE77
:10283000419AF0EE619AB0EE428AF0EE628AB0EE12
:1028400040AAF0EE60AA51EC190B02F0FDFC014623
:102850004120FFF721FF51EC180B02F0F5FC014677
:102860004220FFF719FF054880ED02AB80ED049B85
:1028700080ED068BBDEC068B10BD000090000020A3
:1028800010B5104A2DED048BA2F10801B0EE428A7A
:10289000F0EE628AB0EE419AF0EE619AA1F1080082
:1028A000FDF7DEFE074C503C04F1400090EC060BB7
:1028B000FFF7BAFF84ED089B84ED0A8BBDEC048B17
:1028C00010BD0000E0000020054C4FF4FA75022115
:1028D0002046FEF779FD284601F0D9FCF7E7000015
:1028E0000018024010B5502080F31188BFF34F8FBD
:1028F000BFF36F8F02F08EF918B104494FF080508A
:102900000860002080F3118810BD000004ED00E095
:1029100030B593B030216846FDF7C1FD14210CA8F5
:10292000FDF7BDFD1D480025016841F080510160A3
:10293000006800F0805011901948016841F440414E
:1029400001600068022400F44040119001200090D2
:10295000000401908001CDE9064006200890A820DF
:10296000CDE9090404200B906846FEF7F5FE08B196
:1029700072B6FEE70CA90F2081E831004FF4A05099
:102980000F904FF48050109005210CA8FEF7E8FD41
:10299000002801D072B6FEE713B030BD40380240C7
:1029A000007000400248016841F470010160704706
:1029B00088ED00E00148FFF73EB90000C4030020A5
:1029C000F0B50268254C264D264E274F274B4FF079
:1029D000804CA04209D0604507D0A84205D0B04243
:1029E00003D0B84201D0984204D122F0700E4A6858
:1029F00042EA0E02A0421BD0604519D0A84217D06F
:102A0000B04215D0B84213D0984211D0184DA84208
:102A10000ED0184DA8420BD0174DA84208D0174D24
:102A2000A84205D0164DA84202D0164DA84203D1A7
:102A300022F44075CA682A434D6922F080022A4375
:102A400002608A68C2620A688262A04201D098422B
:102A500001D10969016301214161F0BD000001401C
:102A60000004004000080040000C00400004014049
:102A7000004001400044014000480140001800406F
:102A8000001C00400020004010B501F01F03012190
:102A9000046A99408C430462016A9A4011430162BE
:102AA00010BD0000F0B5026A22F001020262036A62
:102AB00042688469124E24F073050C682C4323F09D
:102AC00002058B682B430D4DA84201D0B04205D1C1
:102AD00023F00807CB683B4323F00403A84201D04E
:102AE000B04205D14D6922F4407215438A692A43E8
:102AF00042608461496841630362F0BD00000140A7
:102B000000040140F0B5026A22F010020262026A7B
:102B1000436884690D6824F4E64444EA05248D681A
:102B200022F0200242EA05120F4D104EA84201D0B9
:102B3000B04206D1CF6822F0800242EA071222F0AA
:102B40004002A84201D0B04207D14D6923F440634E
:102B500043EA85038D6943EA8503436084614968DC
:102B600081630262F0BD00000000014000040140EA
:102B7000F0B5026A22F480720262026A4368C46994
:102B800022F4007224F073050C68124E2C438D68F9
:102B900042EA05220E4DA84201D0B04206D1CF68CC
:102BA00022F4006242EA072222F48062A84201D0A5
:102BB000B04207D14D6923F4405343EA05138D69B0
:102BC00043EA05134360C4614968C1630262F0BD12
:102BD000000001400004014030B5026A22F4805236
:102BE0000262046A4268C3690D6823F4E64343EA5B
:102BF00005238D6824F4005444EA0534084DA842A6
:102C000002D0084DA84204D14D6922F4804242EA24
:102C100085124260C36149680164046230BD0000EE
:102C20000000014000040140FEE700B590ED020AFB
:102C3000D0ED000A70EE600AC0ED040A90ED090ABA
:102C400090ED081A01EE200A80ED090AD0ED0B0A7A
:102C5000FFF72CFB80ED090AD0ED070A90ED041A6E
:102C600000EE810A80ED0A0AD0ED0B0AFFF71EFB89
:102C700080ED0A0A00BDD0ED010A90ED051A90ED35
:102C8000020A70EEC11AF4EEC01AF1EE10FA02DD7B
:102C900030EE010A0AE090ED061A70EE811AF4EEA9
:102CA000C01AF1EE10FA04D230EE410A80ED020AA9
:102CB0007047C0ED020A90ED020A704703B4019814
:102CC0004100009850EAC12018BF04204A0D18BFE7
:102CD00040F0010040F2FF72B2EB515F08BF40F0DC
:102CE0000200012808BF052002B070470907090E3D
:102CF000002804DB00F1E02080F80014704700F0A9
:102D00000F0000F1E02080F8141D70470000000063
:102D100010B5B94A2DED020B2DED0C8B82B00F9939
:102D200021F000409FEDB6CB90422CDBA0F1405348
:102D30000E9AA3F17F631A430FD0B349884202DC95
:102D400016D10E98A0B19DED0E0B02B0BDEC0C8B10
:102D500002B0BDE8104001F033BA0029C1BF9FEDB9
:102D6000AC0B02B0BDEC0C8B02B0C8BF10BD16E0BE
:102D70000120FDF7C3FB02B0BDEC0C8B02B0BDE837
:102D8000104001F031BAA44A9FEDA59B9FEDA6AB80
:102D900090425EDAA6499FEDA8CB814208DBB0EEF7
:102DA0004C0AF0EE6C0A02B0BDEC0C8B02B010BD08
:102DB0009DED0E0B53EC102B51EC100B02F0C6FAEC
:102DC00041EC180B9E480621B0EE480AF0EE680A66
:102DD000784401F05EF953EC182B51EC100B02F023
:102DE000B5FA41EC1B0B9748B0EE480AF0EE680AC2
:102DF0000421784401F04DF953EC182B51EC100BE1
:102E000002F0A4FA53EC192B02F00AF841EC100B73
:102E100051EC1B0B53EC102B02F0BEF841EC100BE5
:102E200053EC102B9DED0E0B51EC100B02F08EFAB3
:102E300053EC1A2B02F0BEFB9DED0E1B53EC112B35
:102E400002F0B8FB53EC1C2B02F0B4FB41EC100B6E
:102E5000A9E79FED7D8B9FED7EBB9DED0E0B0029BD
:102E600053EC192B51EC100B52DA01F0D9FF53EC53
:102E7000182B02F06BFA41EC180B77480621B0EEE4
:102E8000480AF0EE680A784401F003F953EC182B75
:102E900051EC100B02F05AFA41EC1D0B6F48B0EEEA
:102EA000480AF0EE680A0421784401F0F2F853EC85
:102EB000182B51EC100B02F049FA53EC192B01F0CE
:102EC000AFFF41EC190B51EC180B01F041FC41EC48
:102ED000180B53EC192B51EC1D0B02F05DF853EC61
:102EE000182B02F033FA53EC1A2B02F03BFC41ECA6
:102EF000100B51EC180B53EC102B01F091FF53EC1D
:102F00001B2B02F023FA53EC1C2B02F053FB6DE059
:102F100002F050FB53EC182B02F018FA41EC180B9E
:102F200001F016FC41EC1A0B00208DED00AB009077
:102F30009DED000B51EC1A0B53EC102B01F070FFC0
:102F40009DED000B41EC1C0B53EC102B51EC100BC6
:102F500002F0FCF953EC182B02F02CFB53EC1C2B69
:102F600002F01AF841EC1C0B3D48B0EE480AF0EEB6
:102F7000680A0621784401F08CF853EC182B51ECC8
:102F8000100B02F0E3F941EC1D0B3648B0EE480A95
:102F9000F0EE680A0421784401F07BF853EC182B1A
:102FA00051EC100B02F0D2F953EC192B01F038FF61
:102FB00041EC100B51EC1D0B53EC102B01F0ECFF0E
:102FC00053EC1A2B02F0C2F953EC1C2B01F028FF32
:102FD00041EC100B53EC102B9DED000B51EC100B42
:102FE00001F01EFF53EC1B2B02F0B0F941EC100B6B
:102FF000D9E60000000000000000F03F00000000E3
:10300000182D4454FB2109400000F07F000000000F
:1030100000000000000000000000E03F0000000091
:10302000000000000000F03F075C143326A6913C2E
:103030000000603C00000000182D4454FB21F93FC3
:10304000BC2D0000CA2D0000000000000000E03F81
:103050000000000000000040062D0000142D0000BC
:10306000182C0000262C000070B5C1482DED020B75
:103070002DED0E8B82B0119D25F000449FEDBEDB3F
:103080009FEDBFEB84423EDBA4F140511098A1F1CB
:103090007F6108430FD0BC48844202DC28D11098DD
:1030A00030B39DED100B02B0BDEC0E8B02B0BDE84D
:1030B000704001F085B89DED100B53EC1D2B51ECC9
:1030C000100B02F043F99DED100B41EC180B53EC83
:1030D0001E2B51EC100B02F039F953EC182B01F0B8
:1030E0009FFE41EC100B02B0BDEC0E8B02B070BD28
:1030F0000120FDF703FA02B0BDEC0E8B02B0BDE873
:10310000704001F071B8A1489FEDA18B844256DA5E
:103110009DED100BB4F1795F0ADA51EC100BFFF75B
:10312000CDFD042808BF01F07FF89DED100BDAE714
:1031300053EC102B51EC100B02F008F941EC190B79
:1031400095480621B0EE490AF0EE690A784400F08D
:10315000A0FF53EC192B51EC100B02F0F7F841ECE7
:103160001A0B8E48B0EE490AF0EE690A0421784441
:1031700000F08FFF53EC192B51EC100B02F0E6F826
:1031800053EC182B01F04CFE41EC100B51EC1A0BD8
:1031900053EC102B01F000FFCDE900019DED000B79
:1031A00053EC102B9DED100B51EC100B02F0CEF8F0
:1031B0009DED101B53EC112B01F032FED2E09DED82
:1031C000100B51EC100B01F03FF853EC182B02F0F0
:1031D000F1F99FED730BCDE9000153EC102B9DED40
:1031E000000B51EC100B02F0B1F841EC190B6E48DA
:1031F0000621B0EE490AF0EE690A784400F049FF72
:1032000053EC192B51EC100B02F0A0F841EC1B0B06
:103210006648B0EE490AF0EE690A0421784400F0ED
:1032200038FF53EC192B51EC100B02F08FF853ECD4
:10323000182B01F0F5FD41EC1C0B51EC190B01F0C2
:1032400087FA41EC180B5A489FED5BABA04222DC99
:1032500053EC1C2B51EC1B0B01F09EFECDE9000141
:103260009DED000B51EC180B53EC102B02F06EF897
:1032700053EC182B01F0D4FD53EC1A2B02F066F836
:1032800053EC1D2B02F06EFA53EC1E2B02F092F958
:1032900041EC100B5FE08DED008B002000909DED68
:1032A000000B51EC180B53EC102B01F0B9FD9DED08
:1032B000000B41EC1E0B53EC102B51EC100B02F0E9
:1032C00045F853EC192B02F075F953EC1E2B01F065
:1032D00063FE41EC190B53EC1C2B51EC1B0B01F062
:1032E0005BFE41EC1B0B53EC1A2B51EC190B02F05B
:1032F0002DF853EC1D2B02F05DF941EC190B53EC4A
:103300001A2B51EC180B02F021F853EC1B2B02F096
:103310001DF853EC192B02F025FA9DED000B41EC42
:10332000180B53EC1A2B51EC100B02F00FF89FED19
:10333000249B53EC192B02F03DF941EC100B51EC9E
:10334000180B53EC102B02F00DFA53EC192B02F072
:1033500031F941EC100B002D3FF7C5AE51EC100BCD
:1033600001F020FD41EC100BBDE600000000000064
:103370000000F03F00000000075C143326A6913CDB
:10338000182D4454FB21F93F0000F07F0000E03F7E
:10339000000000000000F03F902A00009E2A00007C
:1033A000000000000000E03FE2290000F0290000DA
:1033B0003333EF3F00000000000000000000004039
:1033C000182D4454FB21E93F2DE9F04D2DED040B60
:1033D0002DED0E8B96B0DDE92550279CDDF890A0F1
:1033E00025F0004624F00048BAF1000F14BF012177
:1033F000002101EB4502FC4953184A1093422AD39D
:10340000002814BF0123002303EB44030B44F749B6
:103410008B4220D358EA00019FEDF59B76D0DFF870
:10342000D8B35D4503D1BAF1000F05D188E0BAF1F8
:10343000000F08BF002100D0012101EB450111F56B
:10344000001F08D8002814BF0121002101EB44010E
:1034500011F5001F0BD99DED261B9DED240B16B019
:10346000BDEC0E8B04B0BDE8F04D00F0B3BE0027FC
:10347000002DBCBFE149884521DAE1498845A8BF54
:1034800002271CDAC3451ADCDE4901EB2851142956
:1034900008DDC1F1340220FA02F101FA02F282429F
:1034A0000DD108E058B9C1F1140228FA02F101FA6D
:1034B00002F2424503D101F00101C1F1020756EACF
:1034C0000A0124D1002C22DA002D18BF022F01D0CE
:1034D000012F0AD00220FDF711F816B0BDEC0E8BBB
:1034E00004B0BDE8F04D00F053BE0220FDF706F831
:1034F00000F04EFE51EC100B01F054FC41EC100BAF
:1035000016B0BDEC0E8B04B0BDE8F08D18E09FED59
:10351000BEAB9FEDBF8B002871D1B848804522D14A
:1035200005F1804010F5801008BFBAF1000F07D0F8
:10353000B3450ADC002CA8BF9DED260BE0DA0DE0B8
:10354000B0EE490AF0EE690ADAE7002C06DA9DEDE2
:10355000260B51EC100B01F025FC6FE0AE487844CF
:1035600090ED000BCCE7D8454DD1002C48DA2EB1B8
:1035700086423AD1BAF1000F42D126E0BAF1000FEB
:1035800013D00220FCF7BAFF00F03EFE8DED020BD7
:103590009DED240B8DED000B10EE900A039961F365
:1035A0001E0003909DED020BAAE78DED02AB9DED91
:1035B000240B1AEE901A10EE900A8DED000B61F3B9
:1035C0001E0003909DED020B9AE78DED028B9DEDA1
:1035D000240B18EE901A10EE900A8DED000B61F39B
:1035E0001E0003909DED020B8AE709DA9DED240B86
:1035F00051EC190B53EC102B01F0CEFC1EE020E037
:103600009DED240B7CE786421BDAB4F1804F0DD090
:10361000A4F10050B0F1FF5013D1002D11DB9DED4E
:10362000240B51EC100B01F093F807E09DED240BF7
:1036300053EC102B51EC100B00F0C2BC41EC100B02
:103640005EE79DED240B51EC100B00F0FDFDBAF18F
:10365000000FCDE90E0142D19FED710B46B3A6F1EB
:10366000E040B0F17F600CD05E4538D1002D00DA2B
:10367000A7B3022F0CBF01204FF0FF3001F013FE63
:10368000DCE7002D01DD002C0DDA002D01DD002C22
:103690001FDB002D16DA002C14DB012F08BF9FED75
:1036A000620B3FF42DAFB0EE4A0AF0EE6A0A27E74C
:1036B000022F18BF002D0CD0012F0AD1002DFFF6CC
:1036C0001FAF06E0002DB8BF002C08DA012F3FF431
:1036D00017AFB0EE480AF0EE680A11E71BE00120D0
:1036E00000EBE57050EA070115D0791EB0EE498A6B
:1036F000F0EE698A084308BF9FED4D8B4E480025C8
:10370000804570DD4D494E48884514DDB0420DDBE3
:10371000002C19DB2FE00120FCF7F0FE16B0BDEC09
:103720000E8B04B0BDE8F04D00F05EBDB34502DC89
:10373000002C09DC1FE0864202DA002C1BDA03E0D1
:103740005E452BDD002C16DD0220FCF7D7FE00F0D5
:103750005BFD8DED020B53EC1A2B51EC180B01F0B5
:10376000F5FDCDE900010399019861F31E00039076
:103770009DED020BC4E60220FCF7C0FE00F054FDF4
:1037800010EE901A18EE900A8DED020B8DED008B65
:1037900061F31E0003909DED020BB1E69DED0E0B53
:1037A00053EC192B51EC100B01F0DCFF9FED260BB5
:1037B000CDE9080153EC102B9DED080B51EC100BDB
:1037C00001F0C4FD9FED221B53EC112B01F0F2FE22
:1037D0009DED081B53EC112B01F0B8FD9FED1E1B56
:1037E00053EC112B3CE08CE0FFFF1F00FFFF0F00AC
:1037F000000000000000F03F0000F03F0000F07FFC
:103800000000404301FCFFFF000000000000F07FCB
:10381000000000000000000056270000000000002B
:103820000000000000000080000000000000F0FF29
:10383000000000000000F0BF0000E0410000F04385
:10384000FFFFEF3F00000000000000000000D03F3D
:10385000555555555555D53F000000000000E03F37
:1038600001F0A8FE9DED080B41EC1A0B53EC102B58
:1038700051EC100B01F06AFD53EC1A2B01F066FDC0
:1038800041EC1A0B9FEDFE0B53EC102B9DED080B3A
:1038900051EC100B01F05AFD41EC1B0B9FEDFA0BA4
:1038A00051EC1A0B53EC102B01F050FD41EC1A0BAC
:1038B0009FEDF70B53EC102B9DED080B51EC100B0B
:1038C00001F044FD53EC1A2B01F04CFF41EC1A0BB4
:1038D00051EC1B0B53EC1A2B01F0A2FA0690CDE928
:1038E00006519DED060B53EC1B2B51EC100B01F018
:1038F00039FF53EC1A2B01F05DFE41EC100B00F088
:10390000A1B90020B6F5801F0EDA9FEDE30B53EC52
:10391000102B9DED0E0B51EC100B01F017FDCDE9B6
:103920000E016FF034000E4600EB2650A0F2FF3778
:10393000C6F31300DA4940F07F6646F040568842ED
:10394000D8BF002408DDD7498142C8BF012403DC69
:103950000024A6F580167F1CD348784400EBC400F1
:103960000F9690ED00CB9DED0E0B53EC1C2B51EC04
:10397000100B01F0F7FE9DED0E0B41EC1B0B53EC11
:103980001C2B51EC100B01F04BFA41EC100B51ECDD
:10399000190B53EC102B01F0FFFA41EC1D0B51EC0D
:1039A0001B0B53EC1D2B01F0D1FC41EC1A0BBF4853
:1039B0008DED10AB7844109590ED000B4FF000505A
:1039C00040EA660000EB84408DED080B00F5002016
:1039D00009909DED080B53EC1C2B51EC100B01F0E2
:1039E000C1FE9DED0E1B53EC112B01F0E3FD41ECEC
:1039F000100B53EC102B9DED100B51EC100B01F044
:103A0000A5FC9DED080B41EC1C0B53EC102B9DED20
:103A1000100B51EC100B01F099FC53EC1B2B01F037
:103A2000C9FD53EC1C2B01F09DFE53EC1D2B01F046
:103A30008DFC41EC1C0B53EC1A2B51EC1A0B01F0D2
:103A400085FC41EC1B0B9A480621B0EE4B0AF0EEC8
:103A50006B0A784400F01DFBB0EE401AF0EE601ADD
:103A6000B0EE41DAF0EE61DA53EC1B2B51EC1B0B9C
:103A700001F06CFC53EC1D2B01F068FC9DED100B6C
:103A800041EC1B0B53EC1A2B51EC100B01F0C8F955
:103A900053EC1C2B01F05AFC53EC1B2B01F0C0F92A
:103AA0009DED100B41EC1B0B53EC102B51EC100B4C
:103AB00001F04CFC41EC1D0B9FED7FEB53EC1E2BFA
:103AC00001F0AEF953EC1B2B01F0AAF90890CDE9F7
:103AD00008519DED080B53EC1E2B51EC100B01F01F
:103AE00041FE53EC1D2B01F03DFE53EC1B2B01F06E
:103AF00061FD9DED080B41EC1D0B53EC102B9DED72
:103B0000100B51EC100B01F021FC41EC1B0B53ECA2
:103B10001A2B51EC1D0B01F019FC9DED080B41EC2B
:103B20001A0B53EC102B51EC1C0B01F00FFC53EC57
:103B30001A2B01F075F941EC1A0B51EC1B0B53ECED
:103B40001A2B01F06DF90C90CDE90C519DED0C0B89
:103B500053EC1B2B51EC100B01F004FE53EC1A2B11
:103B600001F028FD41EC1B0B9FED550B53EC102B86
:103B70009DED0C0B51EC100B01F0E8FB41EC1A0B26
:103B80009FED510B51EC1B0B53EC102B01F0DEFBA6
:103B900041EC1B0B9FED4E0B53EC102B9DED0C0BD2
:103BA00051EC100B01F0D2FB53EC1B2B01F038F958
:103BB00041EC100B4848784400EBC40090ED001B2A
:103BC00051EC100B53EC112B01F02AF941EC1B0BBB
:103BD000384601F068FBCDE9080153EC1B2B51EC92
:103BE0001A0B01F01DF941EC100B3C48784400EB36
:103BF000C40090ED00CB51EC100B53EC1C2B01F0EA
:103C00000FF99DED081B53EC112B01F009F90690FB
:103C1000CDE906519DED080B53EC102B9DED060BE5
:103C200051EC100B01F09EFD53EC1C2B01F09AFDA2
:103C300053EC1A2B01F096FD53EC1B2B01F0BAFC50
:103C400041EC100B9DED261B53EC102B8DED001B52
:103C500000959DED260B51EC100B01F077FB9DEDCF
:103C6000000B41EC1A0B53EC102B9DED260B51EC85
:103C7000100B01F077FD9DED061B53EC112B2FE08F
:103C8000000000604715F73FFE822B654715F73FA0
:103C900044DF5DF80BAE543E0000000000004043DE
:103CA0008E9803007AB60B00D22200000023000099
:103CB0000A22000000000000000000000000084090
:103CC000000000E009C7EE3FFD033ADC09C7EE3F04
:103CD000F5015B14E02F3EBE96200000502000004E
:103CE00001F034FB53EC1A2B01F09AF89DED060B12
:103CF00041EC1A0B53EC102B9DED000B51EC100B0B
:103D000001F024FBCDE90C019DED0C0B51EC1A0BDD
:103D100053EC102B01F084F8CDE902010C46AA49BE
:103D20008C422FDB611A084318D19DED0C0B53EC2C
:103D3000102B9DED020B51EC100B01F013FD41EC2B
:103D40001B0B9FEDA30B51EC1A0B53EC102B01F046
:103D500067F853EC1B2B01F0F7FB2DD20220FCF788
:103D6000CDFB00F051FA10EE901A18EE900A8DED8E
:103D7000020B8DED008B61F31E0003909DED020B95
:103D8000FFF7BEBB944A24F00041914214D39349FB
:103D9000214408437FF4EFAC9DED0C0B53EC102B4A
:103DA0009DED020B51EC100B01F0DCFC53EC1A2BD7
:103DB00001F0CAFB7FF6DFAC24F000408849894A55
:103DC000002601EB205182422BDA481C4FF480116F
:103DD00021FA00F02044844AC0F30A517A44A1F247
:103DE000FF3192ED000B814A8DED080BCA4020EAAD
:103DF0000202C0F3130040F48010C1F1140120FA54
:103E000001F60992002CB8BF76429DED080B53ECE9
:103E1000102B9DED0C0B51EC100B01F0A3FCCDE928
:103E20000C019DED0C0B51EC1A0B53EC102B00F018
:103E3000F7FF9FED6F0B0890CDE9085153EC102B65
:103E40009DED080B51EC100B01F080FA41EC1B0BBF
:103E50009FED690B53EC102B9DED080B51EC100BF3
:103E600001F074FA9DED0C0B41EC1C0B53EC102B84
:103E70009DED080B51EC100B01F074FC53EC1A2B68
:103E800001F098FB9FED5E1B53EC112B01F05EFAE5
:103E900053EC1C2B00F0C4FF41EC1A0B51EC1B0B34
:103EA00053EC1A2B00F0BCFFCDE902019DED020B93
:103EB00053EC1B2B51EC100B01F054FC53EC1A2B60
:103EC00001F078FB9DED020B41EC1A0B53EC102B2B
:103ED00051EC100B01F03AFACDE908014A489DED8A
:103EE000080B0521784400F0D4F89DED081B51EC37
:103EF000100B53EC112B01F029FA9DED021B53EC32
:103F0000112B01F057FBCDE906019DED020B53EC9F
:103F10001A2B51EC100B01F019FA53EC1A2B00F08C
:103F20007FFF9FED3B0B41EC1A0B53EC102B9DEDEB
:103F3000060B51EC100B01F015FC9DED060B41EC4E
:103F40001B0B53EC102B9DED020B51EC100B01F0F1
:103F5000FDF953EC1B2B01F01FF853EC1A2B01F069
:103F600001FC9DED021B53EC112B01F0FBFB53EC0C
:103F7000192B01F01FFBCDE9020101EB06500115E1
:103F80000029C8BF039015DC9DED020B324651ECB1
:103F9000100B01F07EFDFEF791FE042808BF00F033
:103FA00043F932469DED020B51EC100B01F071FD0F
:103FB000CDE902019DED020B51EC180B53EC102BD7
:103FC00001F0C4F9FFF73ABB000090400000000088
:103FD000FE822B654715973C00CC904000346F3F24
:103FE00001FCFFFF0000E03FD81E0000FFFF0F00B4
:103FF00000000000432EE63F396CA80C615C20BE37
:10400000EF39FAFE422EE63FA81D00000000000036
:10401000000000000000004000B52DED048BB0EE64
:10402000409AF0EE609A83B051EC190B01F0CEFA91
:1040300041EC180B18EE100A18EE901A8DED008B5B
:10404000002818BF0120084320F00040C0F17F6025
:1040500000F1E040C00F14D019EE101A19EE900ACA
:104060008DED009B002918BF0121084320F000407E
:10407000C0F17F6000F1E040C00F04BF0120FCF7F9
:104080003DFAB0EE480A03B0F0EE680ABDEC048BCE
:1040900000BD70B504462DED028B4D1E00EBC50032
:1040A000B0EE408AF0EE608A90ED000B35F006002D
:1040B00017D053EC182B51EC100B01F047F941ECE1
:1040C000100B6D1E04EBC50090ED001B51EC100BA6
:1040D00053EC112B00F0A4FE41EC100B35F0060060
:1040E000E7D1022D36D0042D1CD0062D1CBFBDEC0F
:1040F000028B70BD53EC182B51EC100B01F026F91C
:1041000094ED0A1B53EC112B00F08AFE53EC182B94
:1041100001F01CF994ED081B53EC112B00F080FE0C
:1041200041EC100B53EC182B51EC100B01F00EF975
:1041300094ED061B53EC112B00F072FE53EC182B80
:1041400001F004F994ED040B53EC102B00F068FE21
:1041500041EC100B53EC182B51EC100B01F0F6F85E
:1041600094ED021B53EC112B00F05AFE53EC182B6C
:1041700001F0ECF894ED001B53EC112B00F050FE15
:10418000BDEC028B41EC100B70BD00000000000084
:104190009FED070B10B553EC102B9FED070B51EC67
:1041A000100B00F0F9FE41EC100B10BD00000000F8
:1041B0000000000000000000000000000000F03FD0
:1041C00010B553EC102B51EC100B00F029FE41EC14
:1041D000100B10BD10B553EC112B51EC100B00F06F
:1041E0001FFE41EC100B10BD9FED050B10B553ECFD
:1041F000102B51EC100B00F0CFFE41EC100B10BD5A
:1042000000000000000000009FED050B10B553EC0E
:10421000102B51EC100B01F099F841EC100B10BD74
:1042200000000000000000709FED050B10B553EC7E
:10423000102B51EC100B01F089F841EC100B10BD64
:10424000000000000000001082B0CDE9000121F064
:10425000004001909DED000B02B051EC100B704737
:10426000FDF7CEF8FEF754FBFDF788FFFDF73AFFA8
:10427000FDF7CAFFFCF792F9FDF756FF00F00EF8C4
:10428000FEE701460020842900D0C81C704710B505
:1042900000B9012000F05AFB002010BD10B500F05D
:1042A0007BFB002010BD7FB50D4604464169B0F987
:1042B000080081B1A16971B1FFF7E3FFD4E90512EC
:1042C0008DE80700D4E900102B46226900F077FC46
:1042D000039004B070BDFFF7D4FF03A9CDE900013E
:1042E000208A2B4682B2D4E9001000F03BFC012862
:1042F00001D00020EDE70398EBE700002DE9F04145
:10430000184C0F460546E6682068001D00F057FA75
:1043100038B9206890F82C10012088402169814329
:104320002161681C07D137B12168BDE8F0410E4812
:10433000091D00F087BA20683544B5424560216800
:1043400005D2A06BBDE8F041091D00F063BA606BB7
:10435000091D00F05FFAA06A854200D2A562BDE89F
:10436000F08100001C000020E80400202DE9F0414D
:10437000054600F073FA2E4CA068401CA06020682F
:104380002C4F10B1606940B32DE02560A068012872
:1043900029D1002606EB860007EB800000F02CFAFE
:1043A000761C072EF6D323488C3000F025FA2148DE
:1043B000A03000F021FA1F48B43000F01DFA1D486B
:1043C000C83000F019FA1B48DC3000F015FA194823
:1043D0008C3060631430A06305E02068E96AC06A2D
:1043E000884200D82560606A401C6062E96A01204A
:1043F000226988401043206101EB810007EB8000B7
:10440000291D00F01FFA00F049FA606900280CD05D
:104410002068E96AC06A884207D207494FF0805095
:104420000860BFF34F8FBFF36F8FBDE8F0810000CE
:104430001C0000200C04002004ED00E010B5044630
:1044400090F8510058B101280CD002280FD050200C
:1044500080F31188BFF34F8FBFF36F8FFEE7206BA0
:1044600000F030FA2046BDE8104000F02BBA10BD35
:1044700010484FF47051420706D0C01D0D4920F07E
:104480000700411AC1F570510B4A00230144C2E9EB
:1044900000030839183A21F0070111604B600B60E6
:1044A0000B1AC0E9001393604FF000405360506155
:1044B00070470000FC04002070000020144E154CD2
:1044C000A6F1C8074FF08058DFF84C9012E000BF0B
:1044D00000F0C4F9F068C568281D00F070F9A06804
:1044E000401EA0606068401E606000F0D7F928465A
:1044F000FFF7A4FF60680028EAD138680128F9D9DD
:10450000C9F80080BFF34F8FBFF36F8FF2E7000051
:10451000D40400201C00002004ED00E02DE9F04749
:104520009A46DDE9098481466FF00303206B03EBB3
:1045300082021044089E20F00707780707D0502019
:1045400080F31188BFF34F8FBFF36F8FFEE7002515
:1045500061B1002023180A5C83F834200A5C12B190
:10456000401C1028F6D384F8435001E084F83450FE
:10457000072E00D30626E662C4E91165201D00F06F
:1045800046F904F1180000F042F92461C6F1070071
:104590006462A061E56484F850505246494638464A
:1045A00000F0C0F82060B8F1000F01D0C8F800405A
:1045B000BDE8F08730B5114900E011460A68824233
:1045C000FBD34B685C18844203D1406818444860B0
:1045D000084643681C18944209D1084C183C2468CA
:1045E000A24209D052681A4442600A681268026006
:1045F000814200D0086030BD0460F9E770000020FF
:104600000648416B096829B1416BC968C9684968A6
:10461000816270474FF0FF31FAE700001C00002074
:1046200008484068401C4FF0500080F3118804D0C7
:10463000BFF34F8FBFF36F8FFEE7BFF34F8FBFF313
:104640006F8FFEE7780000202DE9F0410546002736
:1046500000F0D8F9324E306808B9FFF709FF7069E9
:1046600005424ED1C5B3083568070ED005F00700E6
:10467000C0F108000544680707D0502080F3118876
:10468000BFF34F8FBFF36F8FFEE72DB37068854286
:1046900037D82348183001460C6801E020460C4604
:1046A0006168A94202D221680029F7D131688C42A1
:1046B00027D007682168016060680837411B10290E
:1046C0000FD96019420708D0502080F31188BFF33A
:1046D0004F8FBFF36F8FFEE713E041606560FFF718
:1046E00069FF61687068401A7060B268904200D2D9
:1046F000B060706901430020C4E90001F068401C0B
:10470000F06000F0EDFA780707D0502080F31188B0
:10471000BFF34F8FBFF36F8FFEE73846BDE8F081E0
:104720005800002010B5031F4FF080741C601B1F41
:1047300021F001011960191F044B0B6014390A6044
:10474000091F6FF0020244380A6010BD21460008BC
:1047500000B52DED048B83B041EC190B00F036FF52
:1047600041EC180B18EE100A18EE901A8DED008B24
:10477000002818BF0120084320F00040C0F17F60EE
:1047800000F1E040C00F14D019EE101A19EE900A93
:104790008DED009B002918BF0121084320F0004047
:1047A000C0F17F6000F1E040C00F04BF0120FBF7C3
:1047B000A5FE51EC180B03B0BDEC048B00BDD0E995
:1047C000013201699A60D0E901235A604A68824245
:1047D00001D182684A60002202610868401E0860B8
:1047E00008687047034B036003F1540008608020A1
:1047F000106070470001002000F108014FF0FF3207
:10480000C0E90112C160016100210160704700210F
:104810000161704730B50B685A1C02D000F10802E4
:1048200002E0026904E02246546825689D42FAD9F4
:1048300053684B6099608A60516008610168491C47
:10484000016030BD42684A6093688B60936859602C
:10485000916008610168491C01607047502080F335
:104860001188BFF34F8FBFF36F8F0A494868401C10
:10487000486001280CD10848006810F0FF0F07D0ED
:10488000502080F31188BFF34F8FBFF36F8FFEE787
:10489000704700007800002004ED00E008494868F7
:1048A00028B1401E486001D180F311887047502024
:1048B00080F31188BFF34F8FBFF36F8FFEE70000C7
:1048C0007800002070B500282AD0164DA0F1080409
:1048D00060686969084207D1502080F31188BFF3EE
:1048E0004F8FBFF36F8FFEE722683AB1502080F3FD
:1048F0001188BFF34F8FBFF36F8FFEE7884360606F
:1049000000F080F860686968084468602046FFF736
:1049100051FE2869401C2861BDE8704000F0E0B9F4
:1049200070BD0000580000204FF0E0200021016120
:10493000816105494FF47A720968B1FBF2F1491EB1
:1049400041610721016170471800002010B5020085
:1049500014D00F48006B38B1502080F31188BFF39A
:104960004F8FBFF36F8FFEE700F04CF80021104629
:10497000FFF7C4FC00F0B4F9002807D105494FF057
:1049800080500860BFF34F8FBFF36F8F10BD0000E2
:104990001C00002004ED00E010B586B00024039454
:1049A00005AA04A903A80494FFF71CFFDDE903018D
:1049B0000094CDE9011000230EA11048059A00F0E3
:1049C000FEF80F490028C86211D0502080F31188EA
:1049D000BFF34F8FBFF36F8F4FF0FF30886201201E
:1049E0004861CC6006B0BDE8104000F041B806B0A8
:1049F00010BD000049444C4500000000BD440008C3
:104A00001C0000200248016B491C01637047000034
:104A10001C0000201448016B11B10121C1617047D5
:104A20000021C1610169B1FA81F1C1F11F0101EBFE
:104A300081020E4951F822306BB101EB820101F184
:104A400008034A6852684A609A4201D152684A6033
:104A5000D16801607047502080F31188BFF34F8FF9
:104A6000BFF36F8FFEE700001C0000200C04002045
:104A70001CB537480168374A914207D1502080F36E
:104A80001188BFF34F8FBFF36F8FFEE70068314986
:104A9000491E884207D1502080F31188BFF34F8F01
:104AA000BFF36F8FFEE72C4908780190FF20087054
:104AB00008788DF800009DF800009DF8002000F0B7
:104AC000F000904207D0502080F31188BFF34F8F41
:104AD000BFF36F8FFEE79DF80000204C00F0500000
:104AE00020700720A06005E09DF8002052008DF89E
:104AF0000020401E9DF800201206F5D4A060032877
:104B000007D0502080F31188BFF34F8FBFF36F8F12
:104B1000FEE74FF44070A060019808700C48203008
:104B2000016841F470010160016841F07041016069
:104B3000FFF7FAFE00206060FBF7ACFB0848016855
:104B400041F040410160FBF791FB00201CBD0000DB
:104B500000ED00E071C20F4100E400E078000020A9
:104B600034EF00E02DE9FF5F8346DDE90E879946CB
:104B700016468A469000FFF767FD05001CD05420BA
:104B8000FFF762FD040014D00020256384F8510073
:104B9000CDE90240CDE900874B46324651465846A2
:104BA000FFF7BCFC2046FFF7E1FB012004B0BDE8A5
:104BB000F09F2846FFF786FE4FF0FF30F6E7F0B58E
:104BC00085B0DDE90B640A9DA6B1DCB154270097DE
:104BD0002663022684F85160002604AFCDE9024620
:104BE000CDE90057FFF79AFC2046FFF7BFFB04987A
:104BF00005B0F0BD502080F31188BFF34F8FBFF395
:104C00006F8FFEE7502080F31188BFF34F8FBFF303
:104C10006F8FFEE72DE9F0412F4C0026206B28B165
:104C2000A069401CA0613046BDE8F081E5686D1CBC
:104C3000E56013D1606B006838B1502080F31188B3
:104C4000BFF34F8FBFF36F8FFEE7606BA16B6163A4
:104C5000A063206A401C2062FFF7D2FCA06ADFF844
:104C60007C80854209D3606B0068A0B1606BC0682E
:104C7000C7687868854211D2A0622068C06A00EBDC
:104C8000800158F82100012800D90126E069002898
:104C9000C9D00126C7E74FF0FF30EDE7381DFFF719
:104CA0008EFDB86A18B107F11800FFF788FDF96AA0
:104CB0000120226988401043206101EB810108EB4B
:104CC0008100391DFFF7BEFDF86A2168C96A884274
:104CD000C9D30126C7E700001C0000200C040020F7
:104CE0002DE9F0472C4D00242746286B38B1FFF7FB
:104CF000B5FD286B401E2863286B40B146E050206C
:104D000080F31188BFF34F8FBFF36F8FFEE7A96861
:104D1000224E0120D1B3A6F1B40980463068E8B133
:104D2000F068C46804F11800FFF749FD201DFFF783
:104D300046FDE06A2A6908FA00F11143296100EB97
:104D4000800109EB8100211DFFF77CFDE06A2968E5
:104D5000C96A8842E2D3C5F81C80DFE70CB1FFF7CF
:104D60004FFCAC6944B14646FFF754FF00B1EE6119
:104D7000641EF9D10020A861E86938B1084901270B
:104D800038070860BFF34F8FBFF36F8FFFF786FDC3
:104D90003846BDE8F08700001C000020C004002059
:104DA00004ED00E081F00041704780F00040704762
:104DB00021F00041704720F00040704721F0004290
:104DC000A2F16052B2F5801F01F0004328BFD2F17A
:104DD0007F6C0BD95FEA001C43EAC20242EB5070C1
:104DE00018BF704728BF20F001007047B2F5801F40
:104DF000BCBF184670474FEA410C1CF5001F02D299
:104E0000084600F00FBE70B500F04AFB00000089B4
:104E1000FFF7F6BF4FF00040A0F58000704700009C
:104E200010B591EA030F48BF83F0004300F1A2845C
:104E3000841A71EB030C05D2121943EB0C03001B0F
:104E400061EB0C01DFF824E14FEA1154A4EB135C91
:104E50001EEA430F18BF9EEA445F73D023EA0E0395
:104E6000DCF1200E21EA045143F4801332D322FAFC
:104E70000CFE10EB0E0023FA0CFE41EB0E01CCF100
:104E8000200E03FA0EFE10EB0E0051F10001B1F5F9
:104E9000801FCCF1200E32D201EB045112FA0EF237
:104EA000BDE8104058BF7047401C38BF5FEA42025F
:104EB00018BF7047002814BF20F0010041F1000125
:104EC0004FEA410313F5001F38BF7047A1F1C041FD
:104ED00000F034BB012A43EB0302ACF1200CDCF1FF
:104EE0001F0E32BF4FF0000E23FA0CF310EB03003D
:104EF00041EB0451B4EB115FD0D0A1EB045101F5AB
:104F0000801149085FEA300001EB04510ED350F1E3
:104F1000000038BF12FA0EFE08D1BDE81040C9E704
:104F2000401C38BF5FEA4202CAD1C3E7BDE8104067
:104F30004FEA410313F5001F38BF7047A1F1C0418C
:104F400000F0FCBA9EEA445F08D011EA5E0FBDE8AB
:104F5000104004BF01F0004100207047BDE8104040
:104F600070B500F09DFA00BF64FBBE3E0000E0FF9C
:104F700002494FF0000000F05ABD00BF0000F87F6A
:104F8000491058BFC1F140415B1058BFC3F14043C5
:104F90008B42EFF3008070472DE9C04130B4DFF859
:104FA000A0C23CEA111418BF3CEA131400F0EC80D4
:104FB00081EA03051CEA111444EAD57418BF1CEAFF
:104FC000131500F0C780A4EB05044FF0004545EA37
:104FD000C12145EAC32341EA505143EA525304F147
:104FE0007F74994204F500344FEAC0204FEAC22290
:104FF00008BF904200F09C804FEA13650FF2401604
:10500000765D4FEA134506FB05F7C7F1807706FB8F
:1050100007F74FEAD737A7FB03687642C8F5803811
:10502000A7FB06CE38BFA8F1010807FB08E64FF042
:10503000000EA6FB028CE6FB03CEDCF1000CCEF1E9
:10504000004E38BFAEF1010EA6FB0C584FF0000722
:105050004FF00005E6FB0E87A1FB08C6A0FB07CEBC
:1050600016EB0E0645F10005E1FB076515F1E04E74
:105070007EBFA4F580345FEA46066D4116F18007D5
:1050800045F100054FEA17274FEA066647EA05672C
:10509000A6F1DE46B6F1805F4FEA15251FD93846E6
:1050A00024F0010C05EBC471BCF1FE6F01EB0C1197
:1050B00002D8F0BCBDE8008124425CBF01F5801E2F
:1050C0009EEAC47F02D4F0BCBDE80081244238D4FB
:1050D000F0BCA1F1C041BDE8004100F02FBA4FEA99
:1050E000D22242EA43524FEAD323A7FB02864FEA79
:1050F000D02040EA415007FB03661EEA0E0F4FEA3C
:10510000D12105FB026658BFA6EB0056B6EB005650
:105110004FEA520E4EEAC37E18EB0E0E56EB530EBC
:10512000BDD518EB02085E417F1C55F10005B6E7BE
:105130004FF480154FF000074FF000064FF00008C5
:10514000ADE7F0BC4FF0000001F1C04101F00041BB
:10515000BDE8008111EA0C1F0CEA131500D00CE029
:1051600013EA0C1F00F025804FF00000F0BC81EA2C
:10517000030101F00041BDE80081F0BCBDE8004141
:1051800081EA030100F0DAB9F0BCBDE8004170B576
:1051900000F086F9097EFC3E00F007B881EA0301C1
:1051A0004FF0000001F00041704781EA030100F078
:1051B000C5B9F0BCBDE800414FF00000214970477F
:1051C000FFFDFBF9F7F5F4F2F0EEEDEBE9E8E6E4CC
:1051D000E3E1E0DEDDDBDAD8D7D5D4D3D1D0CFCD53
:1051E000CCCBCAC8C7C6C5C4C2C1C0BFBEBDBCBB8C
:1051F000BAB9B8B7B6B5B4B3B2B1B0AFAEADACAB87
:10520000AAA9A8A8A7A6A5A4A3A3A2A1A09F9F9E60
:105210009D9C9C9B9A999998979796959594939312
:10522000929191908F8F8E8E8D8C8C8B8B8A8989A9
:10523000888887878685858484838382828181802C
:105240000000FF070000F87F4FEA41034FEA535385
:10525000A3F58063D3F11E03C8BFD3F1210C0CDD8D
:105260004FF0004242EAC12242EA505232FA03FCB5
:105270008CEAE17CACEBE1707047102BC4BF0020DE
:10528000704703F5787CBCF1FF3F04D06FF000421B
:1052900082EA2100704770B500F002F9499224803B
:1052A00000207047F2E710F0004248BF4042B0FAD9
:1052B00080F310FA03F10AD0C3F11D0303F58063F4
:1052C0004FEA415002EB035202EBD12170474FF0FD
:1052D0000000704751EA030C17D41CF5801F58BF1B
:1052E000BCF5801F00F10680994218BF704708BFC7
:1052F0009042704707D711F5801F58BF13F5801FE4
:1053000019D499427047894270471CF5801F08D50F
:10531000BCF5801FF7D58B4218BF704708BF82428B
:1053200070474FF4001C1CEB410F38BF1CEB430FC0
:1053300001D28B42704770B500F0B2F89224490058
:105340004FF000514FF08053FFF71ABEDFF848C10D
:1053500070B51CEA111E1EBF1CEA13159EEA0C0F45
:1053600095EA0C0F00F06F8081EA030423EA4C13E6
:105370004EEAD47E21EA4C1141F4801143F48013AB
:10538000AE44A1FB024CA0FB0365AEF17F7E361953
:1053900055EB0C05A1FB034C4CF10003A0FB021CD8
:1053A00016EB0C06654153F10003094218BF46F0A5
:1053B000010613F4007F0BD14FEA03314FEA0530A9
:1053C000340341EA155140EA16506FF003020AE037
:1053D0004FEAC3214FEAC520F40241EA555140EAA1
:1053E00056506FF0020202EB2E4201EB025585EAA5
:1053F000CE710AD05FEA440C18BF24F0004450F18B
:10540000000041F1000120EAD47040F2FE7C6245C8
:1054100000D270BDA84214BF4FF080444FF040440A
:10542000002E08BF0024BEF1806FA8BFA1F1C041CB
:10543000BDE8704080F282804FF0000001F1C04171
:1054400001F0004170479EEA0C0F0CEA131518BFDB
:1054500095EA0C0F06D04FF0000081EA030E0EF023
:10546000004170BD00F01CF88900013E00F007B853
:1054700000F009B84FEA430C5FEA5C5C08D081EAAF
:10548000030100F05BB84FEA410C5FEA5C5CF6D1C7
:105490004FF00000014970470000FF070000F87F4F
:1054A0000EF1020E2EF0030E5EF8046B364205D4A8
:1054B000012A43EB030515F5001F12D8012841EB23
:1054C000010C1CF5001F0CD80ED14FEAD17C15F54C
:1054D000001F0CEB4C0C0CF1020C08BF4CEBD37C06
:1054E00004E04FF0080C01E04FEAD37C0CEB4C05D4
:1054F00026FA05F606F00706B6F1040C06D20EEB06
:10550000860CBDE870404CF0010C6047DFE80CF001
:10551000090B02024FF000414FF00000A1F50021FD
:1055200070BD19461046012851EB010418BFD4F58F
:10553000001484BF002001F0004170BD0808A0F5F0
:1055400000114FEA3101704753EA010C17D41CF5E2
:10555000801F58BFBCF5801F00F106808B4218BF2A
:10556000704708BF8242704707D713F5801F58BFA6
:1055700011F5801F19D48B4270479B4270471CF570
:10558000801F08D5BCF5801FF7D5994218BF70471A
:1055900008BF904270474FF4001C1CEB430F38BF0C
:1055A0001CEB410F01D2994270470FB40CBC03BCF5
:1055B000FFF7C1BE91EA030F10B581F000413FF53E
:1055C00037AC83F0004300F0D5B800002DE9F0417E
:1055D00001F5801CBCF5001FC0F2A9804FEA115CE8
:1055E00021EA0C510CF1FD0C41F480115FEA5C0CD6
:1055F0000CF5C07C01D34000494130A4890241EA46
:10560000905187028E0E0A0CA45D04FB04F602FB87
:1056100006F6C6F14046A4FB0662F60D46EA4226AF
:1056200006FB06F4A4FB01235242C3F1404338BFFA
:105630005B1EA6FB02420024E6FB0324D20B42EAD7
:105640004446A6FB0623A1FB02E2A3FB07E4E3FB1F
:1056500061426442C2F1404E38BFAEF1010EA6FB7A
:1056600004234FF00002E6FB0E32A2FB0346340097
:10567000E2FB6264A1FB06E6A4FB07E8E4FB6168C9
:105680007642C8F1405838BFA8F10108A2FB06E4F1
:10569000A3FB08E5E2FB6854A1FB05E6A7FB04E8D1
:1056A000E1FB648618F1200556F10006A809A8F16F
:1056B0001B08B10908F03F08B8F10A0F40EA8660FC
:1056C0001CD901EB0C51BDE8F08100BFFCF5EEE800
:1056D000E2DDD8D3CFCBC7C3C0BDB9B6B4B1AEAC91
:1056E000A9A7A5A3A19F9D9B9A9896959392908F09
:1056F0008D8C8B898887868584838281A0FB006856
:1057000000FB01F208EB4208B8EB872807D53418F4
:1057100058EB0104D5D5401C51F10001D1E7341AF2
:1057200078EB0104CDD4401E71F10001C9E75FEAB6
:105730004C0C5FEA9C5C0DD105D34FF0000001F0EA
:105740000041BDE8F081BDE8F04170B5FFF7A8FE6B
:105750006DDBFFBEBDE8F0414FF00000004970472F
:105760000000F87F10B591EA030F48BF83F00043B3
:105770003FF55EAB841A71EB030C07D212198CF063
:10578000004C43EB0C03001B61EB0C01DFF8A4E1C0
:105790004FEA1154A4EB135C1EEA430F18BF9EEAB4
:1057A000445F00F0B08023EA6E03524221EA0451C4
:1057B000C3EB6E0338BF5B1EDCF1200E25D322FA4B
:1057C0000CFE10EB0E0043FA0CFE41EB0E01CCF187
:1057D000200E03FA0EFE10EB0E0051F10001CCF189
:1057E000200E29D412FA0EF201EB0451BDE810404C
:1057F00058BF7047401C1CBFB2F1004F70470028D3
:105800000CBF491C20F00100704712EB020E43EB65
:10581000030218BF4FF0010E4EEA4202ACF1200C19
:10582000DCF11E0E54D943FA0CFE10EB0E0051F1C0
:10583000FF31CCF11E0ED5D50EF1010E12FA0EFE7F
:10584000404141EB010101EB445C5FEA5C5C10D933
:1058500010EBDE7001EB045138BFBEF1004FBDE824
:10586000104018BF704700280CBF491C20F00100F1
:10587000704730D24FEAD42C11F5001124F40064A3
:105880001BD0B1FA81F20B3AA41AA41ED2F1200364
:10589000914030FA03F31943904001EBCC71002C96
:1058A00001EB0451BDE81040A8BF704701F1C041B1
:1058B0004FF0000001F000417047B0FA80F310FA99
:1058C00003F100D110BDE41A173C4805C90AE4E70A
:1058D00001EB045110BD491001EB0451BDE810402B
:1058E0004FEA300002E04FF0000170474A0008BF65
:1058F0000042F8D0B2F5001F28BF704701F0004108
:105900004FF0000070479EEA445F07D011EA5E0F37
:10591000BDE8104004BF002100207047BDE81040E2
:1059200070B5FFF7BDFD00BF40DFF63E83F00041DC
:10593000104670470000E0FF43004FEAD30C4FEAE7
:105940003C0C43401FBF40070CF1605113F0FE4F69
:1059500070471CF0006F03D100200CF0004170472D
:105960000CF0004343EA507010B540EACC0000F060
:105970000EF800BF000000924FEA0001FFF7DEBD05
:105980004FF000414FF00000A1F5002170470EF1EB
:10599000020E2EF0030E5EF8044B244204D44FEAAC
:1059A0004102B2F17F4F11D84FEA4003B3F17F4F6C
:1059B0000CD80ED14FEAD07CB2F17F4F0CEB4C0CDF
:1059C0000CF1020C08BF4CEBD17C04E04FF0080C4A
:1059D00001E04FEAD17C0CEB4C0324FA03F404F011
:1059E0000704B4F1040C06D20EEB840CBDE81040A1
:1059F0004CF0010C6047DFE80CF0070802024FF0A2
:105A00000040A0F5800010BD0846420018BFD2F14A
:105A1000807288BF00F0004010BD4FF04070E1EE92
:105A2000100A7047FF2141EAD050C00570470CF0C2
:105A30000F03092B08BF082000F059800A2B0BD058
:105A4000082B18BF704708BF1CF0400F0AD04FF05A
:105A500000004FF0000170471CF0400F18BF4FF0DE
:105A6000004070471CF0100F08D020F0704300F089
:105A70007F4242EAD3014FEA4370704700F0604032
:105A800021F07F4242EA000201F07F4040EA72705A
:105A900070474FF0FF0C4CF4E06C1CEA11531CBF34
:105AA0009CEA030C9445C2BFDA4201EB02517047F5
:105AB000002B0DD0BCF1000F0FD0002A01F00041E7
:105AC000A4BF41F0E04141F07F614FF0000070471A
:105AD00001F000414FF00000704750EA01334FF0F1
