:020000040800F2
:10000000A04C00200D030008D91E0008D31A0008D8
:100010006B1C000883050008612200080000000036
:100020000000000000000000000000004D02000879
:100030008906000800000000A9020008BD20000891
:1000400027030008270300082703000827030008E8
:1000500027030008270300082703000827030008D8
:1000600027030008270300082703000827030008C8
:1000700027030008270300082703000827030008B8
:10008000270300082703000827030008910500083C
:100090008505000827030008270300082703000838
:1000A000270300088D210008270300082703000804
:1000B0002703000827030008270300082703000878
:1000C0002703000827030008270300082703000868
:1000D0002703000827030008270300082703000858
:1000E0002703000827030008270300082703000848
:1000F0002703000827030008270300082703000838
:100100002703000827030008270300082703000827
:100110002703000827030008270300082703000817
:100120002703000827030008270300082703000807
:1001300027030008270300082703000827030008F7
:1001400027030008270300082703000827030008E7
:1001500027030008270300082703000827030008D7
:1001600027030008270300082703000827030008C7
:1001700027030008270300082703000800000000E9
:1001800027030008270300082703000827030008A7
:100190002703000827030008270300082703000897
:1001A00000000000000000002703000800F002F833
:1001B00000F03CF80AA090E8000C82448344AAF1C5
:1001C0000107DA4501D100F031F8AFF2090EBAE8C3
:1001D0000F0013F0010F18BFFB1A43F0010318477B
:1001E000DC310000FC310000103A24BF78C878C12F
:1001F000FAD8520724BF30C830C144BF04680C602D
:10020000704700000023002400250026103A28BF74
:1002100078C1FBD8520728BF30C148BF0B60704778
:100220001FB503F08AF81FBD10B510BD00F074F9BA
:100230001146FFF7F5FF02F0AAF800F092F903B4B7
:10024000FFF7F2FF03BC00F095F900002C4B196892
:100250000868B0E8F04F80F30988BFF36F8F4FF064
:10026000000080F311887047000000000848006813
:10027000006880F308884FF0000080F3148862B6AD
:1002800061B6BFF34F8FBFF36F8F00DF00BF00BFBA
:1002900008ED00E0DFF80C00016841F47001016036
:1002A000704700BF88ED00E0EFF30980BFF36F8F68
:1002B000134B1A681EF0100F08BF20ED108A20E9BA
:1002C000F04F106009B44FF0500080F31188BFF375
:1002D0004F8FBFF36F8F02F0FBFB4FF0000080F3F6
:1002E000118809BC19680868B0E8F04F1EF0100FBB
:1002F00008BFB0EC108A80F30988BFF36F8F704796
:1003000018000020EFF3058070470000094880477F
:1003100009480047FEE7FEE7FEE7FEE7FEE7FEE7E7
:10032000FEE7FEE7FEE7FEE704480549054A064BFF
:10033000704700007D210008AD010008A0460020A4
:10034000A04C0020A0480020A048002053EA020C46
:1003500000F069802DE9F04B4FF00006002B1FBF25
:10036000B3FA83F503FA05F424FA05F65E4012BFEA
:100370001643B2FA82F502FA05F4C5F120051EBF54
:1003800022FA05FC44EA0C04203556EA044C4FEAF4
:10039000144418BF641C4FF000084FF0000990424D
:1003A00071EB030C39D3002919BFB1FA81F701FAB7
:1003B00007F6B0FA80F700FA07F6C7F120071EBF6C
:1003C00020FA07FC46EA0C062037B6FBF4FCA7EB44
:1003D0000507103F07F01F0BCBF120060CFA0BFBB3
:1003E0002CFA06F644BFB3460026202FA4BF5E4673
:1003F0004FF0000B5BEA060C08BF4FF0010B19EB46
:100400000B09ABFB027C48EB0608C01B06FB02CCC9
:100410000BFB03CC71EB0C01C1E70B4602464146D6
:100420004846BDE8F08B13B54FF000004FF00001D7
:10043000AFF30080BDE81C40704710B5203AC0F013
:100440000B80B1E81850203AA0E81850B1E81850D5
:10045000A0E81850BFF4F5AF5FEA027C24BFB1E812
:100460001850A0E8185044BF18C918C0BDE8104083
:100470005FEA827C24BF51F8043B40F8043B08BF8C
:100480007047D20728BF31F8023B48BF11F8012B53
:1004900028BF20F8023B48BF00F8012B70474FF0FF
:1004A000000200B5134694469646203922BFA0E8C4
:1004B0000C50A0E80C50B1F12001BFF4F7AF0907D0
:1004C00028BFA0E80C5048BF0CC05DF804EB8900C1
:1004D00028BF40F8042B08BF704748BF20F8022B04
:1004E00011F0804F18BF00F8012B7047704770471C
:1004F000704710B500F008F8006810BD10B504464C
:1005000000F002F8046010BD00487047404600202B
:1005100000487047404600207546FFF7F9FFAE4699
:1005200005006946534620F00700854618B020B5FF
:10053000FFF7FAFEBDE820404FF000064FF000073D
:100540004FF000084FF0000B21F00701AC46ACE87B
:10055000C009ACE8C009ACE8C009ACE8C0098D46E8
:10056000704710B50446AFF300802046BDE8104048
:10057000FFF765BE01491820ABBEFEE7260002006A
:100580007047FEE7014800F07CBA0000DC02002062
:10059000014800F076BA0000DC02002000B58BB004
:1005A00000200121CDE90601089100900190029000
:1005B0000390059004906946054800F067F90448E7
:1005C00000F08AFC0221024800F0EAF80BB000BDFE
:1005D000DC02002010B5D1E900329A1A4B60D0F845
:1005E000943003EBD374B2EB640F00DDD21A6410C5
:1005F0006442944200DD1A4400EE102AD0ED100A45
:10060000B8EEC00A30EE800ADFED060A80ED100A6F
:1006100091ED030AB8EEC00A20EE200A80ED040A2C
:1006200010BD000063CF0B3E0C480121C0F8A410A0
:100630000221C0F84C110321C0F8F4110421C0F8C4
:100640009C120521C0F844130621C0F8EC130721C1
:10065000C0F894140821C0F83C1570476040002091
:10066000FFF7E2FF02221146002000F00FF89FED95
:10067000050A002001F0F0FC01F0F8FA012001F079
:100680009BFEF9E700007042704700002DE9F04141
:10069000C0EBC003334D03EB4306174605EBC6041E
:1006A000012222725203C4F894209FED2F1A00EB0E
:1006B000800305F5A86202EB830884ED101A88F820
:1006C000081001F0D5FB98F808009FED282A9FED4F
:1006D000280ADFED280ADFED281A01282AD002288F
:1006E00026D145F83670DFED252A9FED253AC4ED79
:1006F0000B2A84ED0C3AB1EE083A84ED0F3A9FEDE7
:10070000213A84ED073AC4ED182ADFED1F2A00BF15
:10071000C4ED172A84ED1B2A84ED090A84ED0A0A28
:1007200084ED051A84ED150AC4ED140AC4ED1A1AF5
:10073000BDE8F081DFED152A45F83670C4ED0B2ACF
:10074000DFED132AC4ED0C2AF3EE042AC4ED0F2AC0
:10075000DFED102AC4ED072A84ED181ADFED0E2A0A
:10076000D6E700006040002000000000CDCC4C3FE8
:1007700000007A4400004842000020C3CDCC4C3D2C
:10078000A69B443B000016451B2FDD3CCDCCCC3D49
:100790006F12833A0000A044AE47E13D72B6FEE717
:1007A00090F82020012A07D0022A05D0416A41F49E
:1007B0008021416201207047006842690A4342611A
:1007C00000207047F0B590F820500468A468012D0F
:1007D00005D0022D03D0416A41F4802153E014F08A
:1007E000406F01D1E5004BD5C4F30164022C03D95D
:1007F000416A41F4000146E00125A5401D608D6875
:100800004FF4C0739DB1CE6835434E6845EAC605C6
:10081000066803EB0417F5514FF4C275076805EB42
:1008200004150E697E51097D012905D009E00E8865
:10083000CD6845EA4655EBE701684E5946F48076A7
:100840004E511179D2F805504FF4C67641EA05258C
:10085000016806EB04168D511178D2F801204FF48F
:10086000C47541EA0221026805EB04155151006884
:1008700003EB0411425842F0010242500020F0BD47
:10088000416A41F4001141620120F0BD10B590F8B9
:100890002020012A07D0022A05D0416A41F4802194
:1008A0004162012010BD3B48D0F8002242F0010215
:1008B000C0F80022D0F8002222F47C52C0F80022B6
:1008C000D0F800224B6A42EA0322C0F800220A7DD7
:1008D00002F01F0301229A40D0F81C329343C0F863
:1008E0001C32CB69B3B9D0F80C329343C0F80C3248
:1008F0008C894B6864F31F434C6900EBC404C4F853
:1009000040320C890B6864F31F434C6900EBC4044C
:10091000C4F84432CB69012B16D1D0F80C32134302
:10092000C0F80C320C884B6864F31F434C6900EB31
:10093000C404C4F840320C89CB6864F31F434C698B
:1009400000EBC404C4F844328B69002BD0F80432A5
:100950000ED01343C0F804320B69002BD0F81432C8
:1009600008D01343C0F81432096A012904D008E002
:100970009343EFE79343F5E7D0F81C121143C0F817
:100980001C12D0F8001221F00101C0F80012002062
:1009900010BD000000640040704730B590F8204062
:1009A000012C05D0022C03D0416A41F480215DE086
:1009B0000468002955D02469A40754D04FF4D87492
:1009C000056804EB01142D5915F0040595600568C0
:1009D0002D594ED0ED08556005682C5904F00204DD
:1009E000D4604FF4DA74056804EB01142D5905F056
:1009F0000F05156105682D59C5F307259561056833
:100A00002C59240C54614FF4DC72046802EB01127F
:100A1000A4581C700468A458240A5C700468A45884
:100A2000240C9C700468A258120EDA704FF4DE7227
:100A3000046802EB0112A4581C710468A458240A2B
:100A40005C710468A458240C9C710468A258120EAE
:100A5000DA71006881B1016941F020010161002073
:100A600030BDE468A8E7416A41F400114162012009
:100A700030BD6D0D1560AFE7C16841F02001C16068
:100A8000EDE72DE9F05F0546006800244669D0F8DF
:100A900004908768D0F80CB0D0F810A0D0F8188077
:100AA000F10748D0F90714D001218160B80703D5B8
:100AB000284600F03EFA0CE0780702D54FF40064B7
:100AC00007E0380702D54FF4805402E0284600F0D2
:100AD0002FFAF80516D529684FF480708860B8059C
:100AE00003D5284600F027FA0CE0780502D544F437
:100AF000005407E0380502D544F4804402E028465B
:100B000000F018FAF80316D529684FF48030886091
:100B1000B80303D5284600F010FA0CE0780302D59C
:100B200044F4004407E0380302D544F4803402E082
:100B3000284600F001FA300707D55FEACB6004D5FC
:100B40002968102044F40074C86070074FF008074B
:100B500007D55FEA0B7004D52868C760284600F007
:100B60005FF9B00706D52868C068800702D028461C
:100B700000F058F9700607D55FEACA6004D5296805
:100B8000102044F480640861B00607D55FEA0A705B
:100B900004D528680761284600F09AF9F00606D5C2
:100BA00028680069800702D0284600F092F9B00357
:100BB00008D55FEAC96005D5296810204860284635
:100BC00000F088F9F00307D55FEA097004D52868BA
:100BD0004760284600F0B2F9300446D55FEA497014
:100BE00040D5F00504D55FEAC87001D044F0010497
:100BF000B00504D55FEA887001D544F002047005A1
:100C000004D55FEA487001D544F00404300529D5C5
:100C100018F0700F26D008F07000402815D006DCC0
:100C2000102809D020280AD0302816D10AE05028F0
:100C30000ED0602811D10EE044F008040DE044F01D
:100C400010040AE044F0200407E044F0400404E00B
:100C500044F0800401E044F480742868816921F044
:100C600070018161296804204860002C05D0686A01
:100C7000204368622846FFF78FFEBDE8F09F70B5FD
:100C8000040003D094F8200010B104E0012070BDEE
:100C9000204600F081F82068016841F00101016000
:100CA00000F076FA0546052604E000F071FA401BD4
:100CB0000A2811D820684068C007F6D0206801686B
:100CC00021F00201016000F063FA05460BE000F03C
:100CD0005FFA401B0A2806D9606A40F4003060625F
:100CE00084F82060D2E7206840688007EFD4207E37
:100CF0000128206801683DD021F080010160607EFC
:100D000001282068016838D021F040010160A07EF0
:100D100001282068016833D021F020010160E07EC5
:100D20000128206801682ED041F010010160207F69
:100D300001282068016829D021F008010160607F46
:100D400001282068016824D021F004010160D4E961
:100D500002010843D4E90412114308436168491EA3
:100D600008432168C86100206062012084F82000E7
:100D7000002070BD41F08001C0E741F04001C5E7AF
:100D800041F02001CAE721F01001CFE741F008014E
:100D9000D4E741F00401D9E710B586B00446142128
:100DA0006846FFF77CFB1B49206888422FD11A4810
:100DB0000021026842F000720260006800F00070DA
:100DC000059015481038026842F008020260006879
:100DD000022200F0080005900320CDE90210CDE9C1
:100DE00000020920049069460C4800F0A9F800228E
:100DF0000521132000F058FA132000F047FA0022D2
:100E00000521142000F050FA142000F03FFA06B03B
:100E100010BD00000064004040380240000C024059
:100E200070470000274910B54A68274B521C4A609A
:100E3000A3F11C020021FFF7B0FD23491C3908680B
:100E4000A0F50072013A19D0A0F50072023A15D04F
:100E5000A0F50072033A11D0B0F5017F0ED0A0F5D5
:100E60000072053A0AD0A0F50072063A06D0A0F545
:100E70000072073A02D0B0F5027F22D14A7F0B7F81
:100E8000401EC0B202EB032200EB80030F4840F883
:100E9000232000EB830090F91330322B03DA4260F9
:100EA000C27C521CC274CA7F11F81E3F1B0202FA98
:100EB00083F2C260CA788B7802EB0322028209793E
:100EC000817410BD8000002058400020A045002003
:100ED000704770477047000070B5044690F82000D6
:100EE000012804D0606A40F40020606218E002200B
:100EF00084F820002068016821F00101016000F001
:100F000047F905460EE000BF00F042F9401B0A28F1
:100F100008D9606A40F400306062052084F820003F
:100F2000012070BD20684068C007EDD1606270BDCF
:100F300070477047704770477047704770470000B0
:100F40002DE9F84FDFF8F8A10022012403254FF026
:100F50000F090AF1040BAAF1040E00BF0B6804FA92
:100F600002F63340B34270D10F7907F00307012F27
:100F700001D0022F16D187684FEA420805FA08FC13
:100F800027EA0C07D1F80CC00CFA08FC4CEA070C55
:100F9000C0F808C04768B7430E79C6F300169640FC
:100FA0003E4346600E79F643B6070AD0C7684FEA5B
:100FB000420C05FA0CF6B7438E6806FA0CF63E436F
:100FC000C6600E7906F00306022E10D1D60800EB9B
:100FD0008608D8F8206057074FEAD76C09FA0CF753
:100FE000BE430F6907FA0CF73743C8F8207006684C
:100FF0004FEA420C05FA0CF7BE430F7907F00307DE
:1010000007FA0CF7374307604E6816F4403F1CD0D0
:101010004C4E376847F480473760366822F0030744
:1010200006F480460096484E07EB060CDCF808688C
:1010300097073F0F09FA07F826EA0806DFF80C8140
:10104000404503D14FF0000841E072E0DFF8008135
:10105000404502D14FF0010839E0DFF8F880404503
:1010600002D14FF0020832E0DFF8EC80404502D1B7
:101070004FF003082BE0DFF8E480404502D14FF049
:10108000040824E0DFF8D880404502D14FF005087D
:101090001DE0DFF8D080404502D14FF0060816E091
:1010A000DFF8C480404502D14FF007080FE0DFF8B9
:1010B000BC80404502D14FF0080808E0DFF8B0805E
:1010C000404502D14FF0090801E04FF00A0808FA44
:1010D00007F848EA0608CCF80888DAF800605746AE
:1010E000D1F804C09E435FEACC2C00D51E433E607D
:1010F000DBF800605F46D1F804C09E435FEA8C2CA9
:1011000000D51E433E60DEF800607746D1F804C08B
:101110009E435FEA8C3C00D51E433E60084F083F6B
:101120003E68D1F804C09E435FEACC3C00D51E4324
:101130003E60521C102AFFF411AFBDE8F88F00008A
:10114000083C0140443802400030014000000240A9
:101150000004024000080240000C0240001002405F
:101160000014024000180240001C0240002002400F
:1011700000240240426921EA02030A4043EA024194
:10118000816170470AB1816170470904FBE7000083
:10119000014880687047000008000020024881680C
:1011A0000278114481607047080000200B4810B598
:1011B000016841F400710160016841F480610160DF
:1011C000016841F480710160032000F08DF80F2068
:1011D00000F006F800F03EF8002010BD003C024090
:1011E00010B5014688B00022192000F05DF81920E2
:1011F00000F04CF813480024016841F0010101603F
:10120000006805A900F001000690684600F018F992
:1012100000F036F90C494000B0FBF1F10C480B4AE4
:10122000491E026040F2E732C0E90324C0E901141C
:1012300000F020FB10B1012008B010BD044800F000
:1012400047FBF9E74438024040420F0000000140EC
:10125000040300200C4882B0016841F48041016021
:10126000006800F4804000900748001F016841F0CA
:10127000805101600068002200F0805000900F2132
:10128000901E02B000F010B844380240002809DB7C
:1012900000F01F02012191404009800000F1E02090
:1012A000C0F8001170470000F0B40E4B1B680C46EC
:1012B000C3F30223C3F10705042D00D90425191D2A
:1012C000072901D2002300E0DB1E012606FA05F102
:1012D000491E214099409E40761E16403143F0BC85
:1012E00001F008B80CED00E0064900F007020868BC
:1012F0004FF6FF03184040EA0220034A10430860FB
:10130000704700000CED00E00000FA052DE9F04701
:101310000E46050065D0DFF81481D8F80000F7B25A
:1013200000F00F00B04207D288F80070D8F8000033
:1013300000F00F00B04254D128683D4C810712D50F
:10134000400703D5206840F4E0502060287800076B
:1013500003D5206840F4604020602068A96820F030
:10136000F000084320602878C0072DD03049686815
:101370000839012812D0022813D0032811D0096897
:10138000890700292DDA216821F00301014321603A
:10139000FFF7FEFE814641F2883A0EE009688903B4
:1013A000EFE709688901ECE7FFF7F2FEA0EB09011E
:1013B000514502D90320BDE8F0872068696800F034
:1013C0000C00B0EB810FEFD1D8F80010404601F0CF
:1013D0000F01B14207D90770006800F00F00B0425A
:1013E00001D00120E7E72878400705D52068E968A3
:1013F00020F4E050084320602878000706D52068D4
:10140000296920F4604040EAC100206000F048F8FB
:101410002168084AC1F30311515CC84006490860BD
:1014200006480068FFF7DCFE0020C4E7003C0240ED
:101430000838024088330008140000200C00002007
:101440000F2202600C4A136803F003034360136821
:1014500003F0F0038360136803F4E053C360126881
:101460004FF4E05303EAD20202610448006800F03E
:101470000F0008607047000008380240003C02403E
:101480000448054900680968044AC1F34231515CC7
:10149000C840704714000020083802409833000804
:1014A000154810B5006810F00C02144813D0144908
:1014B000042A0FD0082A0ED10F4C241F226823685B
:1014C00002F03F025B0207D52068C0F38810A0FB42
:1014D000010106E0084610BD2168C1F38811A1FB97
:1014E00000010023FEF732FF2168C1F30141491CCE
:1014F0004900B0FBF1F010BD083802400024F400B0
:10150000001BB7002DE9F84F04006ED02078DFF8FB
:101510004C93C007A9F104054AD009F10400016801
:10152000C1F38101012908D00068C0F381000228BD
:101530000AD1D9F80000400206D52868800337D5C3
:1015400060680028E1D033E06068B0F5803F10D0DB
:10155000B0F5A02F286810D020F4803028602868CB
:1015600020F4802028606068A8B1FFF711FE0646CD
:101570000DE0286840F48030F4E740F480202860D3
:10158000F7E700BFFFF704FE801B642873D82868C4
:101590008003F7D50CE0FFF7FBFD064605E000BF32
:1015A000FFF7F6FD801B6428F0D828688003F7D485
:1015B0002078DFF8AC8280074FF0000A3ED5A748BC
:1015C000001D016811F00C0F08D00068C0F3810005
:1015D00002280BD1D9F80000400207D42868800700
:1015E00016D5E068012800D112E033E1E068B8B117
:1015F0000120C8F80000FFF7CBFD064605E000BF5C
:10160000FFF7C6FD801B0228C0D828688007F7D5E1
:101610002868216920F0F80040EAC10028600DE048
:10162000C8F800A0FFF7B4FD064604E0FFF7B0FDE0
:10163000801B02281FD828688007F7D4207800076D
:1016400022D5864F87486169703771B101210160E9
:10165000FFF79EFD064604E0FFF79AFD801B022877
:1016600009D838688007F7D50EE0C0F800A0FFF76A
:101670008FFD064605E082E0FFF78AFD801B022809
:101680007DD838688007F7D42078400768D5DFF820
:10169000CCB100270BF13C0BDBF80000C0000BD4F1
:1016A000DBF8001041F08051CBF80010DBF80000AF
:1016B000012700F0805000906B4E3068C00510D4B8
:1016C000306840F480703060FFF762FD009005E004
:1016D000FFF75EFD0099401A022850D83068C00517
:1016E000F6D55E4EA0686C3601280FD0052830680C
:1016F00010D020F001003060306820F0040030602D
:10170000A068B8B1FFF744FD00900FE0306840F0EA
:101710000100F4E740F004003060F7E7FFF738FD20
:101720000099411A41F28830814266D830688007BA
:10173000F4D50EE0FFF72CFD009007E0FFF728FD41
:101740000099411A41F28830814256D830688007AA
:10175000F4D42FB1DBF8001021F08051CBF8001049
:10176000A069C8B33D49091D0968C1F38101022977
:101770004AD00228504607D0C8F8600000E03CE09C
:10178000FFF706FD04463BE04746C8F86000FFF758
:10179000FFFC064605E000BFFFF7FAFC801B0228AD
:1017A0002BD828688001F7D4D4E907010843A16A3F
:1017B0002E4A490802EB0141626A41EA821108435C
:1017C00094F82C1040EA0161C9F800100120386635
:1017D000FFF7DEFC044606E03EE000BFFFF7D8FC62
:1017E000001B022809D828688001F7D534E000BF23
:1017F000FFF7CEFC001B022802D90320BDE8F88FBA
:1018000028688001F4D427E00128F7D0D9F8000037
:10181000E26900F4800191421CD1226A00F03F018C
:10182000914217D147F6C071626A0140B1EB821F45
:1018300010D1A26A4FF0FF3300F4403103EB5202A3
:10184000B1EB024F06D194F82C1000F07060B0EBB1
:10185000016F01D00120D1E70020CFE7043802401A
:1018600000004742800E4742007000400000FFFF2A
:101870007047704710B5040003D094F83D0010B1D4
:1018800007E0012010BD002084F83C00204600F055
:101890001EF8022084F83D00211D206800F07CFC29
:1018A000012084F8460084F83E0084F83F0084F864
:1018B000400084F8410084F8420084F8430084F832
:1018C000440084F8450084F83D00002010BD7047B6
:1018D00090F83D10012901D001207047022180F8C5
:1018E0003D100168CA6842F00102CA6000681149EF
:1018F000884214D0B0F1804F11D00F4988420ED0E9
:101900000E4988420BD00E49884208D00D498842C2
:1019100005D00D49884202D00C49884204D1816823
:1019200001F00701062903D0016841F001010160BF
:101930000020704700000140000400400008004003
:10194000000C00400004014000400140001800402D
:10195000704770B50446006801694FF00005C9433F
:10196000890715D4C168C943890711D4E91E0161EB
:1019700001202077206880698007204602D0FFF789
:10198000E7FF04E000F098F8204600F096F825778D
:1019900020680169C943490717D4C168C943490789
:1019A00013D46FF004010161022020772068806960
:1019B00010F4407F204602D0FFF7CAFF04E000F099
:1019C0007BF8204600F079F8257720680169C94343
:1019D000090716D4C168C943090712D46FF008017A
:1019E0000161042020772068C0698007204602D06A
:1019F000FFF7AEFF04E000F05FF8204600F05DF86E
:101A0000257720680169C943C90617D4C168C9434D
:101A1000C90613D46FF010010161082020772068F7
:101A2000C06910F4407F204602D0FFF791FF04E028
:101A300000F042F8204600F040F825772068016960
:101A4000C943C90708D1C168C943C90704D1891E60
:101A50000161204600F032F820680169C943090697
:101A600009D4C168C943090605D46FF0800101613A
:101A70002046FFF7FDFE20680169C943490609D4E5
:101A8000C168C943490605D46FF040010161204691
:101A900000F01EF820680169C94389060BD4C168AB
:101AA000C943890607D46FF0200101612046BDE8D3
:101AB0007040FFF7DEBE70BD704770470068034995
:101AC000884201D1FFF76ABB704700000000014067
:101AD0007047FEE700B590ED1A0A014680ED060A50
:101AE000103000F0BEFBD1ED1B0A00F0ADF881ED27
:101AF0001E0A91ED040AB0EEC00A10EE100AB0F111
:101B0000804F1CDC486F401C4867B0F5FA7F15DB3E
:101B100005209FED0C0ADFED0C0A81ED100AC1EDE6
:101B2000110A81ED1E0A81ED050A81ED060A81ED9B
:101B30000E0A81ED030A81ED0D0A086000BD002048
:101B4000486700BD00000000000000460F4810B5C7
:101B50000D4901600321416000214FF41022816092
:101B6000C0E903124FF4001242610176417681769A
:101B7000C17601774177FFF782F8002803D0BDE8EE
:101B80001040FEF70BBE10BD00640040DC020020D8
:101B900010B58EB01C220B496846FEF74EFC0021A2
:101BA000684600F015FC084C06491C2220601C31D8
:101BB00007A8FEF742FC002107A800F009FC6060BE
:101BC0000EB010BD503300080000002030B587B0C3
:101BD00014216846FEF763FC19480024016841F0AF
:101BE00001010160016801F001010591016841F006
:101BF00008010160016801F008010591016841F0E8
:101C000080010160016801F080010591016841F0E7
:101C10004001016000680B4D00F04000059000227B
:101C200006212846FFF7AEFA062000900120CDE9F4
:101C30000104694628460394FFF782F907B030BDD6
:101C40003038024000180240B4EEE00AF1EE10FA1B
:101C500001DDB0EE600AF1EE600AB4EEE00AF1EEEA
:101C600010FA01D2B0EE600A7047FEE72DE9F041AC
:101C700020212DED028B88B06846FEF710FC784FCE
:101C80000026A7F5A8659FED778A00BF06EB8600C2
:101C900007EB8001087A032832D0C6EBC60000EBC0
:101CA000400805EBC8042046FEF794FC207A012882
:101CB00002D084ED038A20E055F8380002280CD0C9
:101CC000052802D0062818D110E004F1400000F0E9
:101CD00005F994ED190A84ED050A04F11000014696
:101CE00000F0E5FA084600F0BCFA04E02046FFF7F1
:101CF000F1FE94ED1E0A84ED030A761C082EC5DB66
:101D00000020DFED590AB3EE041ADFED582AB2EED7
:101D1000040A694600EB800207EB8202127A012A6C
:101D20007FD0022A7CD001EB800282ED008A401C29
:101D30000828EFDB9DED000AB5EEC00AF1EE10FABF
:101D400014D0DDED010AF5EEC00AF1EE10FA0DD067
:101D5000DDED020AF5EEC00AF1EE10FA06D0DDED77
:101D6000030AF5EEC00AF1EE10FA1BD1DDED030A0D
:101D7000BDEEC00AFDEEE00A10EE900ADDED020AAB
:101D800003B2FDEEE00A10EE900ADDED010A02B2A8
:101D9000FDEEE00A10EE900A01B210EE100A00B259
:101DA00000F0FAF89DED040AB5EEC00AF1EE10FA63
:101DB00014D0DDED050AF5EEC00AF1EE10FA0DD0F3
:101DC000DDED060AF5EEC00AF1EE10FA06D0DDED03
:101DD000070AF5EEC00AF1EE10FA1BD1DDED070A95
:101DE000BDEEC00AFDEEE00A10EE900ADDED060A37
:101DF00003B2FDEEE00A10EE900ADDED050A02B234
:101E0000FDEEE00A10EE900A01B210EE100A00B2E8
:101E100000F0F2F808B0BDEC028BBDE8F08100E004
:101E20000CE0C0EBC00202EB420205EBC202D2EDB5
:101E3000031A61EEA01A81EE812A0BE0C0EBC0020A
:101E400002EB420205EBC202D2ED031A61EEA21AC6
:101E500081EE802A01EB800282ED002A67E7000014
:101E6000A0450020000000000000804600401C4605
:101E7000C0EBC001154A01EB4101144B52F831206F
:101E80009FED130A03EBC101052A02D0022A05D0F7
:101E90000AE0D1ED100AC1ED110A05E081ED050A55
:101EA00081ED060A81ED070A81ED080A094B81EDF3
:101EB0000D0A00EB800081ED0E0A03EB800081ED3E
:101EC000030A0022C26001200872704760400020AF
:101ED00000000000A0450020FEE7000010B5044609
:101EE0002DED048BF7EE008A90ED010AD0ED000A8B
:101EF00030EE600A80ED020AD0ED070A90ED081A74
:101F0000B5EEC00A20EE208AD0ED030A80ED030A68
:101F100070EE600A01EE208AF1EE10FA01D2FFEEB7
:101F2000008AD4ED050A9FED1B1A60EE810A60EE6F
:101F3000A80A20EE800A10EE100A01F08DF941EC9B
:101F4000100B00F0E7F9B0EE409AF0EE609A18EE50
:101F5000900A01F081F953EC192B00F0B3FF00F067
:101F60007FFF00EE100AB0EEC81AF0EEC00AF4EEE1
:101F7000C10AF1EE10FA01D2B0EE408AD4ED040AA3
:101F8000B0EE480AFFF760FE84ED090ABDEC048B51
:101F900010BD00003333B33F30B5154C89B0256810
:101FA0006D1C25604FF40074029403940024049483
:101FB000059408240694040A8DF800408DF8010069
:101FC000080A8DF80200100A8DF804008DF805202B
:101FD000180A8DF806008DF803108DF8073008AB4D
:101FE0006A4602A90348FEF7EDFB09B030BD0000C8
:101FF00080000020DC02002030B5154C89B0256837
:102000006D1C256040F2FF14029403940024049494
:10201000059408240694040A8DF800408DF8010008
:10202000080A8DF80200100A8DF804008DF80520CA
:10203000180A8DF806008DF803108DF8073008ABEC
:102040006A4602A90348FEF7BDFB09B030BD000097
:1020500080000020DC02002000EB80020C49C0EB75
:10206000C00001EB82010B4A097A00EB400002EB51
:10207000C000022909D0012906D1DFED070A00BFFF
:1020800020EE200A80ED050A7047DFED040AF7E72D
:10209000A045002060400020420626404F499D4058
:1020A000054C4FF4FA7502212046FFF763F82846E5
:1020B00000F082F9F7E700000018024010B5502048
:1020C00080F31188BFF34F8FBFF36F8F00F000FED6
:1020D00018B104494FF080500860002080F3118847
:1020E00010BD000004ED00E030B593B0302168462B
:1020F000FEF7D5F914210CA8FEF7D1F91D480025EB
:10210000016841F080510160006800F0805011903A
:102110001948016841F4404101600068022400F45C
:102120004040119001200090000401908001CDE911
:10213000064006200890A820CDE9090404200B9051
:102140006846FFF7DFF908B172B6FEE70CA90F2069
:1021500081E831004FF4A0500F904FF48050109060
:1021600005210CA8FFF7D2F8002801D072B6FEE7CF
:1021700013B030BD40380240007000400248016892
:1021800041F470010160704788ED00E00148FFF7FD
:10219000E0BB000004030020F0B50268254C264D8A
:1021A000264E274F274B4FF0804CA04209D0604568
:1021B00007D0A84205D0B04203D0B84201D098421F
:1021C00004D122F0700E4A6842EA0E02A0421BD0EF
:1021D000604519D0A84217D0B04215D0B84213D0EC
:1021E000984211D0184DA8420ED0184DA8420BD0DD
:1021F000174DA84208D0174DA84205D0164DA84249
:1022000002D0164DA84203D122F44075CA682A4371
:102210004D6922F080022A4302608A68C2620A681D
:102220008262A04201D0984201D109690163012173
:102230004161F0BD00000140000400400008004082
:10224000000C0040000401400040014000440140F7
:102250000048014000180040001C004000200040E1
:10226000FEE700B590ED020AD0ED000A70EE600ABC
:10227000C0ED040A90ED090A90ED081A01EE200A5B
:1022800080ED090AD0ED0B0AFFF7DEFC80ED090AAC
:10229000D0ED070A90ED041A00EE810A80ED0A0ADB
:1022A000D0ED0B0AFFF7D0FC80ED0A0A00BDD0ED9F
:1022B000010A90ED051A90ED020A70EEC11AF4EED3
:1022C000C01AF1EE10FA02DD30EE010A0AE090EDDC
:1022D000061A70EE811AF4EEC01AF1EE10FA04D26A
:1022E00030EE410A80ED020A7047C0ED020A90ED1F
:1022F000020A70470907090E002804DB00F1E020FC
:1023000080F80014704700F00F0000F1E02080F822
:10231000141D704700B52DED048BB0EE409AF0EE21
:10232000609A83B051EC190B00F0CAFE41EC180B17
:1023300018EE100A18EE901A8DED008B002818BFC9
:102340000120084320F00040C0F17F6000F1E04030
:10235000C00F14D019EE101A19EE900A8DED009BE3
:10236000002918BF0121084320F00040C0F17F6020
:1023700000F1E040C00F04BF0120FEF7BFF8B0EE4F
:10238000480A03B0F0EE680ABDEC048B00BDFEF70E
:102390000DFFFFF7A9FEFFF719FCFFF7D7FBFEF7CC
:1023A000FDF8FFF7F5FB00F00EF8FEE70146002010
:1023B000842900D0C81C704710B500B9012000F076
:1023C00023FB002010BD10B500F044FB002010BD21
:1023D0007FB50D4604464169B0F9080081B1A16995
:1023E00071B1FFF7E3FFD4E905128DE80700D4E9E6
:1023F00000102B46226900F040FC039004B070BD31
:10240000FFF7D4FF03A9CDE90001208A2B4682B251
:10241000D4E9001000F004FC012801D00020EDE711
:102420000398EBE72DE9F041184C0F460546E668A6
:102430002068001D00F020FA38B9206890F82C10B0
:1024400001208840216981432161681C07D137B18F
:102450002168BDE8F0410E48091D00F051BA20681E
:102460003544B5424560216805D2A06BBDE8F04116
:10247000091D00F02DBA606B091D00F029FAA06A51
:10248000854200D2A562BDE8F0810000180000205E
:10249000280400202DE9F041054600F03DFA2E4CBD
:1024A000A068401CA06020682C4F10B1606940B348
:1024B0002DE02560A068012829D1002606EB8600C2
:1024C00007EB800000F0F6F9761C072EF6D32348C0
:1024D0008C3000F0EFF92148A03000F0EBF91F48F4
:1024E000B43000F0E7F91D48C83000F0E3F91B48AC
:1024F000DC3000F0DFF919488C3060631430A063E1
:1025000005E02068E96AC06A884200D82560606AF0
:10251000401C6062E96A0120226988401043206102
:1025200001EB810007EB8000291D00F0E9F900F0C4
:1025300013FA606900280CD02068E96AC06A8842F2
:1025400007D207494FF080500860BFF34F8FBFF3A9
:102550006F8FBDE8F0810000180000204C030020C0
:1025600004ED00E010B5044690F8510058B1012880
:102570000CD002280FD0502080F31188BFF34F8F6A
:10258000BFF36F8FFEE7206B00F0FAF92046BDE83D
:10259000104000F0F5B910BD10484FF470514207DB
:1025A00006D0C01D0D4920F00700411AC1F5705139
:1025B0000B4A00230144C2E900030839183A21F00C
:1025C000070111604B600B600B1AC0E900139360A8
:1025D0004FF0004053605061704700003C04002001
:1025E0006C000020144E154CA6F1C8074FF080581F
:1025F000DFF84C9012E000BF00F08EF9F068C5687B
:10260000281D00F039F9A068401EA0606068401ED7
:10261000606000F0A1F92846FFF7A4FF6068002879
:10262000EAD138680128F9D9C9F80080BFF34F8F83
:10263000BFF36F8FF2E700001404002018000020A1
:1026400004ED00E02DE9F0479A46DDE90984814672
:102650006FF00303206B03EB82021044089E20F00E
:102660000707780707D0502080F31188BFF34F8FFA
:10267000BFF36F8FFEE7002561B1002023180A5CCD
:1026800083F834200A5C12B1401C1028F6D384F879
:10269000435001E084F83450072E00D30626E6624A
:1026A000C4E91165201D00F010F904F1180000F0D4
:1026B0000CF92461C6F107006462A061E56484F846
:1026C000505052464946384600F0C0F82060B8F1F4
:1026D000000F01D0C8F80040BDE8F08730B51149BF
:1026E00000E011460A688242FBD34B685C188442C2
:1026F00003D1406818444860084643681C18944257
:1027000009D1084C183C2468A24209D052681A44E6
:1027100042600A6812680260814200D0086030BDE1
:102720000460F9E76C0000200648416B096829B194
:10273000416BC968C9684968816270474FF0FF31D1
:10274000FAE700001800002008484068401C4FF0DD
:10275000500080F3118804D0BFF34F8FBFF36F8F09
:10276000FEE7BFF34F8FBFF36F8FFEE774000020CB
:102770002DE9F0410546002700F0A2F9324E3068FD
:1027800008B9FFF709FF706905424ED1C5B3083596
:1027900068070ED005F00700C0F10800054468077F
:1027A00007D0502080F31188BFF34F8FBFF36F8F96
:1027B000FEE72DB37068854237D8234818300146AC
:1027C0000C6801E020460C466168A94202D22168EB
:1027D0000029F7D131688C4227D007682168016051
:1027E00060680837411B10290FD96019420708D0CB
:1027F000502080F31188BFF34F8FBFF36F8FFEE738
:1028000013E041606560FFF769FF61687068401A16
:102810007060B268904200D2B060706901430020DD
:10282000C4E90001F068401CF06000F0B7FA7807D6
:1028300007D0502080F31188BFF34F8FBFF36F8F05
:10284000FEE73846BDE8F0815400002010B5031FB4
:102850004FF080741C601B1F21F001011960191FCB
:10286000044B0B6014390A60091F6FF002024438F0
:102870000A6010BD49270008D0E9013201699A6059
:10288000D0E901235A604A68824201D182684A60D5
:10289000002202610868401E086008687047000056
:1028A000034B036003F15400086080201060704700
:1028B0008800002000F108014FF0FF32C0E901124A
:1028C000C160016100210160704700210161704712
:1028D00030B50B685A1C02D000F1080202E0026910
:1028E00004E02246546825689D42FAD953684B603B
:1028F00099608A60516008610168491C016030BDBF
:1029000042684A6093688B6093685960916008617F
:102910000168491C01607047502080F31188BFF3A3
:102920004F8FBFF36F8F0A494868401C48600128E9
:102930000CD10848006810F0FF0F07D0502080F33A
:102940001188BFF34F8FBFF36F8FFEE77047000012
:102950007400002004ED00E00849486828B1401EDA
:10296000486001D180F311887047502080F31188AE
:10297000BFF34F8FBFF36F8FFEE70000740000209E
:1029800070B500282AD0164DA0F108046068696966
:10299000084207D1502080F31188BFF34F8FBFF357
:1029A0006F8FFEE722683AB1502080F31188BFF3A1
:1029B0004F8FBFF36F8FFEE78843606000F080F8B1
:1029C00060686968084468602046FFF787FE2869E8
:1029D000401C2861BDE8704000F0E0B970BD000007
:1029E000540000204FF0E020002101618161054981
:1029F0004FF47A720968B1FBF2F1491E4161072177
:102A0000016170471400002010B5020014D00F4877
:102A1000006B38B1502080F31188BFF34F8FBFF3A4
:102A20006F8FFEE700F04CF800211046FFF7FAFC2C
:102A300000F0B4F9002807D105494FF08050086034
:102A4000BFF34F8FBFF36F8F10BD00001800002041
:102A500004ED00E010B586B00024039405AA04A993
:102A600003A80494FFF71CFFDDE903010094CDE9FE
:102A7000011000230EA11048059A00F0FEF80F493E
:102A80000028C86211D0502080F31188BFF34F8F07
:102A9000BFF36F8F4FF0FF30886201204861CC6038
:102AA00006B0BDE8104000F041B806B010BD00000F
:102AB00049444C4500000000E525000818000020AE
:102AC0000248016B491C0163704700001800002098
:102AD0001448016B11B10121C16170470021C1612E
:102AE0000169B1FA81F1C1F11F0101EB81020E49C7
:102AF00051F822306BB101EB820101F108034A6801
:102B000052684A609A4201D152684A60D1680160B5
:102B10007047502080F31188BFF34F8FBFF36F8F42
:102B2000FEE70000180000204C0300201CB53748C9
:102B30000168374A914207D1502080F31188BFF3D2
:102B40004F8FBFF36F8FFEE700683149491E8842FF
:102B500007D1502080F31188BFF34F8FBFF36F8FE1
:102B6000FEE72C4908780190FF20087008788DF85E
:102B700000009DF800009DF8002000F0F000904259
:102B800007D0502080F31188BFF34F8FBFF36F8FB2
:102B9000FEE79DF80000204C00F050002070072058
:102BA000A06005E09DF8002052008DF80020401E36
:102BB0009DF800201206F5D4A060032807D050200D
:102BC00080F31188BFF34F8FBFF36F8FFEE74FF491
:102BD0004070A060019808700C482030016841F4F2
:102BE00070010160016841F070410160FFF7FAFE79
:102BF00000206060FDF74EFB0848016841F040414D
:102C00000160FDF733FB00201CBD000000ED00E07B
:102C100071C20F4100E400E07400002034EF00E0D6
:102C20002DE9FF5F8346DDE90E87994616468A4601
:102C30009000FFF79DFD05001CD05420FFF798FD84
:102C4000040014D00020256384F85100CDE902402F
:102C5000CDE900874B46324651465846FFF7F2FC15
:102C60002046FFF717FC012004B0BDE8F09F28467E
:102C7000FFF786FE4FF0FF30F6E7F0B585B0DDE9EF
:102C80000B640A9DA6B1DCB1542700972663022687
:102C900084F85160002604AFCDE90246CDE9005723
:102CA000FFF7D0FC2046FFF7F5FB049805B0F0BD18
:102CB000502080F31188BFF34F8FBFF36F8FFEE773
:102CC000502080F31188BFF34F8FBFF36F8FFEE763
:102CD0002DE9F0412F4C0026206B28B1A069401C43
:102CE000A0613046BDE8F081E5686D1CE56013D158
:102CF000606B006838B1502080F31188BFF34F8FAC
:102D0000BFF36F8FFEE7606BA16B6163A063206A06
:102D1000401C2062FFF708FDA06ADFF87C80854236
:102D200009D3606B0068A0B1606BC068C768786841
:102D3000854211D2A0622068C06A00EB800158F879
:102D40002100012800D90126E0690028C9D0012608
:102D5000C7E74FF0FF30EDE7381DFFF78DFDB86A8C
:102D600018B107F11800FFF787FDF96A0120226901
:102D700088401043206101EB810108EB8100391D7F
:102D8000FFF7BEFDF86A2168C96A8842C9D30126E7
:102D9000C7E70000180000204C0300202DE9F04791
:102DA0002C4D00242746286B38B1FFF7B5FD286B62
:102DB000401E2863286B40B146E0502080F3118804
:102DC000BFF34F8FBFF36F8FFEE7A968224E01203C
:102DD000D1B3A6F1B40980463068E8B1F068C468A0
:102DE00004F11800FFF748FD201DFFF745FDE06ADC
:102DF0002A6908FA00F11143296100EB800109EB0F
:102E00008100211DFFF77CFDE06A2968C96A8842BC
:102E1000E2D3C5F81C80DFE70CB1FFF785FCAC6995
:102E200044B14646FFF754FF00B1EE61641EF9D18C
:102E30000020A861E86938B108490127380708600F
:102E4000BFF34F8FBFF36F8FFFF786FD3846BDE8A6
:102E5000F0870000180000200004002004ED00E0CE
:102E600021F00042A2F16052B2F5801F01F0004350
:102E700028BFD2F17F6C0BD95FEA001C43EAC20283
:102E800042EB507018BF704728BF20F00100704718
:102E9000B2F5801FBCBF184670474FEA410C1CF5C5
:102EA000001F02D2084600F04DBA70B500F0B4F829
:102EB00000000089FFF7F6BF4FF00040A0F580004A
:102EC00070470000DFF848C170B51CEA111E1EBF34
:102ED0001CEA13159EEA0C0F95EA0C0F00F06F80A8
:102EE00081EA030423EA4C134EEAD47E21EA4C1112
:102EF00041F4801143F48013AE44A1FB024CA0FBCB
:102F00000365AEF17F7E361955EB0C05A1FB034C32
:102F10004CF10003A0FB021C16EB0C06654153F1BB
:102F20000003094218BF46F0010613F4007F0BD1DD
:102F30004FEA03314FEA0530340341EA155140EAC4
:102F400016506FF003020AE04FEAC3214FEAC52092
:102F5000F40241EA555140EA56506FF0020202EB8A
:102F60002E4201EB025585EACE710AD05FEA440C8D
:102F700018BF24F0004450F1000041F1000120EAA4
:102F8000D47040F2FE7C624500D270BDA84214BFEE
:102F90004FF080444FF04044002E08BF0024BEF1A3
:102FA000806FA8BFA1F1C041BDE8704080F282806F
:102FB0004FF0000001F1C04101F0004170479EEA6E
:102FC0000C0F0CEA131518BF95EA0C0F06D04FF042
:102FD000000081EA030E0EF0004170BD00F01CF805
:102FE0008900013E00F007B800F009B84FEA430C31
:102FF0005FEA5C5C08D081EA030100F05BB84FEA4D
:10300000410C5FEA5C5CF6D14FF00000014970476B
:103010000000FF070000F87F0EF1020E2EF0030EF5
:103020005EF8046B364205D4012A43EB030515F51F
:10303000001F12D8012841EB010C1CF5001F0CD811
:103040000ED14FEAD17C15F5001F0CEB4C0C0CF1A6
:10305000020C08BF4CEBD37C04E04FF0080C01E0FD
:103060004FEAD37C0CEB4C0526FA05F606F0070672
:10307000B6F1040C06D20EEB860CBDE870404CF0A5
:10308000010C6047DFE80CF0090B02024FF0004131
:103090004FF00000A1F5002170BD1946104601282F
:1030A00051EB010418BFD4F5001484BF002001F0D7
:1030B000004170BD0808A0F500114FEA31017047CA
:1030C0002DE9F04101F5801CBCF5001FC0F2A9807C
:1030D0004FEA115C21EA0C510CF1FD0C41F4801116
:1030E0005FEA5C0C0CF5C07C01D34000494130A480
:1030F000890241EA905187028E0E0A0CA45D04FBFE
:1031000004F602FB06F6C6F14046A4FB0662F60D85
:1031100046EA422606FB06F4A4FB01235242C3F111
:10312000404338BF5B1EA6FB02420024E6FB03249B
:10313000D20B42EA4446A6FB0623A1FB02E2A3FB14
:1031400007E4E3FB61426442C2F1404E38BFAEF196
:10315000010EA6FB04234FF00002E6FB0E32A2FB99
:1031600003463400E2FB6264A1FB06E6A4FB07E829
:10317000E4FB61687642C8F1405838BFA8F1010805
:10318000A2FB06E4A3FB08E5E2FB6854A1FB05E60D
:10319000A7FB04E8E1FB648618F1200556F1000660
:1031A000A809A8F11B08B10908F03F08B8F10A0FF7
:1031B00040EA86601CD901EB0C51BDE8F08100BFEC
:1031C000FCF5EEE8E2DDD8D3CFCBC7C3C0BDB9B6BE
:1031D000B4B1AEACA9A7A5A3A19F9D9B9A989695C3
:1031E0009392908F8D8C8B8988878685848382814A
:1031F000A0FB006800FB01F208EB4208B8EB87284F
:1032000007D5341858EB0104D5D5401C51F1000105
:10321000D1E7341A78EB0104CDD4401E71F10001DE
:10322000C9E75FEA4C0C5FEA9C5C0DD105D34FF017
:10323000000001F00041BDE8F081BDE8F04170B54B
:10324000FFF7EAFE6DDBFFBEBDE8F0414FF0000086
:10325000004970470000F87F43004FEAD30C4FEA63
:103260003C0C43401FBF40070CF1605113F0FE4F70
:1032700070471CF0006F03D100200CF00041704734
:103280000CF0004343EA507010B540EACC0000F067
:103290000EF800BF000000924FEA0001FFF70ABFDE
:1032A0004FF000414FF00000A1F5002170470EF1F2
:1032B000020E2EF0030E5EF8044B244204D44FEAB3
:1032C0004102B2F17F4F11D84FEA4003B3F17F4F73
:1032D0000CD80ED14FEAD07CB2F17F4F0CEB4C0CE6
:1032E0000CF1020C08BF4CEBD17C04E04FF0080C51
:1032F00001E04FEAD17C0CEB4C0324FA03F404F018
:103300000704B4F1040C06D20EEB840CBDE81040A7
:103310004CF0010C6047DFE80CF0070802024FF0A8
:103320000040A0F5800010BD0846420018BFD2F151
:10333000807288BF00F0004010BD4FF04070E1EE99
:10334000100A7047FF2141EAD050C00570470000C5
:10335000B0330008A12000080000000000000000B9
:10336000800000000000000000000000A033000802
:1033700061060008FEFF0000000000008000000061
:10338000000000000000000000000000000000003D
:1033900001020304060708090000000001020304FB
:1033A000444A495F4D6F746F725F4374726C5F0083
:1033B00064656661756C745461736B00DC3300087E
:1033C0000000002088000000E801000864340008C4
:1033D00088000020184C00000402000800000000D3
:1033E00000000000010000001000000000000000CC
:1033F0000024F400000000000000000000000000B5
:1034000000000000000000000000000000000000BC
:1034100000000000000000000000000000000000AC
:10342000000000000000000000000000000000009C
:10343000000000000000000000000000000000008C
:10344000000000000000000000000000000000007C
:1034500000000000AAAAAAAA0000000000000000C4
:043460000000000068
:04000005080001AD41
:00000001FF
