:020000040800F2
:10000000805400208102000895470008DD37000871
:10001000C5440008650C0008415E000800000000AF
:10002000000000000000000000000000C101000806
:100030001D120008000000001D020008E553000822
:100040009B0200089B0200089B0200089B0200081C
:100050009B0200089B0200089B0200089B0200080C
:100060009B0200089B0200089B0200089B020008FC
:100070009B0200089B0200089B0200089B020008EC
:1000800055110008611100089B020008750C00085A
:10009000690C00089B0200089B0200089B020008F4
:1000A0009B020008B55400089B0200089B02000850
:1000B0009B0200089B0200089B0200089B020008AC
:1000C0009B0200089B0200089B0200089B0200089C
:1000D0009B020008F95D0008115E00089B02000801
:1000E0009B0200089B0200089B0200089B0200087C
:1000F0009B0200089B0200089B0200089B0200086C
:100100009B0200089B0200089B0200089B0200085B
:100110009B0200089B0200089B0200089B0200084B
:100120009B0200089B0200086D1100089B0200085A
:100130009B0200089B0200089B0200089B0200082B
:100140009B0200089B0200089B0200089B0200081B
:100150009B0200089B0200089B020008295E000821
:100160009B0200089B0200089B0200089B020008FB
:100170009B0200089B0200089B0200080000000090
:100180009B0200089B020008F55A0008015B00086A
:100190009B0200089B0200089B0200089B020008CB
:1001A00000000000000000009B020008DFF80CD0F7
:1001B00000F092FC004800471D8A0008805400208F
:1001C0002C4B19680868B0E8F04F80F30988BFF33A
:1001D0006F8F4FF0000080F311887047000000001F
:1001E00008480068006880F308884FF0000080F33A
:1001F000148862B661B6BFF34F8FBFF36F8F00DF15
:1002000000BF00BF08ED00E0DFF80C00016841F41A
:1002100070010160704700BF88ED00E0EFF30980D6
:10022000BFF36F8F134B1A681EF0100F08BF20ED3D
:10023000108A20E9F04F106009B44FF0500080F3AD
:100240001188BFF34F8FBFF36F8F09F059F84FF04C
:10025000000080F3118809BC19680868B0E8F04F05
:100260001EF0100F08BFB0EC108A80F30988BFF3AE
:100270006F8F70472C000020EFF30580704700005F
:100280000648804706480047FEE7FEE7FEE7FEE730
:10029000FEE7FEE7FEE7FEE7FEE7FEE7A5540008FF
:1002A000AD0100082DE9F05F0546002092469B460F
:1002B00088460646814640241BE02846414647467C
:1002C000224600F08AFA53465A46C01A914110D38A
:1002D00011461846224600F071FA2D1A67EB010804
:1002E0004F4622460120002100F068FA17EB000972
:1002F0004E41201EA4F10104DFDC484631462A4667
:100300004346BDE8F09F40EA01039B0703D009E0A4
:1003100008C9121F08C0042AFAD203E011F8013BF1
:1003200000F8013B521EF9D27047D2B201E000F84A
:10033000012B491EFBD270470022F6E710B5134689
:100340000A4604461946FFF7F0FF204610BD70B577
:10035000064606F021F8046805460A2200213046C8
:1003600000F05DFA2C6070BD2DE9FE4F804681EAF9
:100370000300C00F0C46009021F0004123F000451F
:10038000B8EB0200A94105D24046214690461C46E2
:100390000B46024623F00040104347D0270DC7F319
:1003A0000A00C3F30A510290401A019040286BDA08
:1003B000C3F3130040F4801B0098924620B1002341
:1003C000D2EB030A63EB0B0B01985946C0F14002D4
:1003D000504600F0F3F906460D4650465946019A3C
:1003E00000F00BFA10EB08006141002487EA11527B
:1003F00084EAE7731A4340D0009A62B3019A012A53
:100400004FEA075215DC001B61EB02014FF000427E
:1004100002EA0752CDE90042001C41F58011324644
:100420002B4600F07AFA03B0BDE8F08F4046214633
:10043000F9E7001B61EB0201001C41F58013001875
:100440005B412018A2F5001747EB030140EAD57085
:10045000B6196D4111E06D084FEA360645EAC075E0
:100460004FEA0752001B61EB0201001C41F58011AD
:1004700049084FEA30000019514132462B4603B07B
:10048000BDE8F04F00F03ABA009801224000002386
:10049000D0EB020263EBE073009821464FEAE07470
:1004A000B8EB000061EB0401E9E783F000435BE790
:1004B00081F0004158E72DE9FE4F81EA030404F082
:1004C000004421F0004100944FF0000B23F0004362
:1004D00050EA01045ED052EA03045BD0C3F30A542D
:1004E000C1F30A552C44A4F2F3340194A0FB025446
:1004F000C1F3130141F48011C3F3130343F48013D8
:1005000001FB024400FB034E840A970A44EA81542B
:1005100047EA8357A4FB076802958D0A05FB078508
:100520004FEA932C04FB0C542705029D4FEA065812
:1005300047EA1637B5EB08056EEB070C870E920EEF
:1005400047EA811742EA8312A7FB0201B6EB0B01CF
:1005500064EB00042B0D43EA0C335E1844EB1C5093
:10056000DA465146E7FB0201C5F313044FEA0B33A9
:1005700043EA14534FEA0432019C43EA0603A4F110
:100580000C040294009CCDE900B400F0C6F903B05D
:10059000BDE8F08F00200146F9E72DE9F04D81EA32
:1005A000030404F0004B21F0004514464FF0000A0C
:1005B00023F0004150EA050220D054EA01021DD088
:1005C000C5F30A570246C5F31303C1F31300C1F381
:1005D0000A5640F4801543F48013A7EB0608101B5D
:1005E000D64608F2FD3873EB050002D308F1010886
:1005F00001E092185B41B8F1000F03DA00200146D8
:10060000BDE8F08D00204FF48011064684460EE0D0
:10061000171B73EB050705D3121B63EB050306439A
:100620004CEA010C49084FEA300092185B4150EA4D
:100630000107EDD152EA030012D082EA040083EAF6
:100640000501084305D0101BAB4106D2012200234F
:1006500006E000224FF0004302E06FF00102531069
:100660001AEB06004CEB085110EB0A0041EB0B01B2
:10067000BDE8F04D00F042B90EB540F233410291B1
:100680000021CDE900110A460B4600F046F903B0FF
:1006900000BD70B5C1F30A5201F000450024C1F35A
:1006A000130140F2FF3341F480119A4201DA002035
:1006B00070BD40F233439A42A2F2334203DC52420D
:1006C00000F08BF800E090402C43F1D0404270BD28
:1006D000C1F30A5210B5C1F3130140F2FF3341F4E4
:1006E00080119A4201DA002010BD40F233439A4251
:1006F000A2F2334203DC524200F06FF810BD90408A
:1007000010BD00F0004230F000400AD0C10D01F5EC
:100710006071C0F3160042EA0151C208400711435C
:10072000704700200146704730B5041E71F1000487
:1007300004DB4FF00044404264EB0101141E73F1EE
:10074000000405DB1C464FF00043524263EB0403F8
:10075000994208BF904230BD01F0004330B421F00F
:10076000004150EA010206D00A0DA2F56072C1F301
:100770001301002A02DC30BC00207047440F44EA19
:10078000C104C100E01830BC00EBC25000F07FB8DB
:1007900030B50B46014600202022012409E021FA51
:1007A00002F59D4205D303FA02F5491B04FA02F54E
:1007B0002844151EA2F10102F1DC30BD202A04DB21
:1007C000203A00FA02F1002070479140C2F1200364
:1007D00020FA03F3194390407047202A04DB203AA3
:1007E00021FA02F00021704721FA02F3D040C2F151
:1007F00020029140084319467047202A06DBCB1798
:10080000203A41FA02F043EAE07306E041FA02F3CB
:10081000D040C2F1200291400843194670472DE9AB
:10082000F04791460F4680460446002614F8015BC7
:100830002DB100F063F90068405DC007F6D12B2DA3
:1008400002D02D2D18D0641E4A463946204600F0AD
:1008500059F927B13968A14201D1C7F80080710563
:100860004FF002040BD54042002803DD05F094FD53
:100870000460A007BDE8F08746F48066E4E700283E
:10088000F8DA05F089FD04606FF00040F2E7002916
:10089000A8BF7047401C490008BF20F00100704706
:1008A00010B4B0FA80FC00FA0CF050EA010404BF66
:1008B00010BC704749B1CCF1200421FA04F411FABC
:1008C0000CF118BF012121430843A3EB0C01CB1D00
:1008D0004FEA00614FEA102042BF002010BC704771
:1008E00000EBC35010440029A4BF10BC7047401C4B
:1008F000490008BF20F0010010BC704710B5141E5D
:1009000073F1000408DA401C41F1000192185B41C8
:100910001A4301D120F0010010BD2DE9F04D92469F
:100920009B4611B1B1FA81F202E0B0FA80F22032B6
:100930009046FFF743FF04460F4640EA0A0041EAAB
:100940000B0153465A46084313D0114653EA01009F
:1009500019D0C8F140025046FFF73FFF05460E464A
:10096000504659464246FFF729FF084305D001206B
:1009700004E020463946BDE8F08D0020054346EAF4
:10098000E0762C4337430A986305E40AA0EB08009D
:100990000022FD0A44EA47540A3002D500200146ED
:1009A000E9E7010510196941DDE9084500196941C8
:1009B000BDE8F04DA2E770B521F0004303430CD031
:1009C000C1F30A550024D5EB040564EB0403D617E4
:1009D000AD1AB34102DB0020014670BD201841EB87
:1009E000025170BD2DE9F04D00231A461B1A8A41B1
:1009F00003DB00200146BDE8F08DC1F30A52C1F3CC
:100A0000130141F480154FF0000BD10702D10018FB
:100A10006D41521E0027044640F2FF11384601EB9B
:100A2000620A3E468046024600204FF48011FFF7DE
:100A3000D4FEC2197141BB1846EB0100B4EB030CA4
:100A400075EB000C04D3E41A65EB000517460E465F
:100A5000241908F101006D4180463428E3DDF919BD
:100A600046EB0600091BA84103D24FF0FF321346A4
:100A700001E0002213461BEB070046EB0A51BDE8DC
:100A8000F04DFFF73BBF0EB5C10F80EAE0700844A0
:100A9000CA07002140F233438DE80E000A460B4698
:100AA000FFF73BFF03B000BDC1F30A52C1F31301CE
:100AB00040F2FF3341F480119A4202DA00200146ED
:100AC000704740F233439A42A2F2334202DC524270
:100AD000FFF783BEFFF772BE064C074D06E0E068E5
:100AE00040F0010394E8070098471034AC42F6D375
:100AF000FFF760FBE89D0008089E0008004870476B
:100B0000849D00082DE9F05F824600780027154695
:100B10008B460AF10104B946302801D09DB113E09B
:100B200014F8010B0127782803D0582801D045B1CB
:100B30000AE00DB1102D07D10027102514F8010B84
:100B400002E0082500E00A250026B0460EE005FB7D
:100B5000080005FB06F1012701EB10461FFA80F89B
:100B6000B6F5803F00D3B94614F8010B294600F0D2
:100B700018F80028EBDABBF1000F05D00FB1641EA6
:100B800000E05446CBF80040B9F1000F06D005F064
:100B900003FC02210160C81EBDE8F09F48EA064040
:100BA000FAE73A2800D2303820F02002412A01D357
:100BB000A2F13700884201D34FF0FF30704770B583
:100BC0008C1810F8015B15F0070301D110F8013BF8
:100BD0002A1106D110F8012B03E010F8016B01F87F
:100BE000016B5B1EF9D12B0705D40023521E0DD4D7
:100BF00001F8013BFAE710F8013BCB1A921C03E025
:100C000013F8015B01F8015B521EF9D5A142D8D35C
:100C1000002070BD70B588B0202210496846FFF7EB
:100C200072FB082000246D4600EBD0760DE000BF7B
:100C300035F83400C82180B207F0ECFC05EBC400A5
:100C40004068800007F024FF641CB4EB660FEFDB04
:100C500003490020086008B070BD0000A497000898
:100C600034180040FEE70000014800F078BD0000A5
:100C700050060020014800F072BD00005006002020
:100C800000B58BB000200121CDE90601089100904C
:100C9000019002900390059004906946054800F089
:100CA00063FC044800F086FF0221024800F0E6FBE6
:100CB0000BB000BD5006002010B5D1E900329A1AE1
:100CC0004B60D0F8943003EBD374B2EB640F00DDCB
:100CD000D21A64106442944200DD1A4400EE102AD5
:100CE000D0ED100AB8EEC00A30EE800ADFED060A39
:100CF00080ED100A91ED030AB8EEC00A20EE200A3A
:100D000080ED040A10BD000063CF0B3E0C480121AA
:100D1000C0F8A4100221C0F84C110321C0F8F4114E
:100D20000421C0F89C120521C0F844130621C0F824
:100D3000EC130721C0F894140821C0F83C15704743
:100D4000A447002052492DED028B9FED528A524854
:100D5000B0EE480A07F0B0FC4D494F48091DB0EE0F
:100D6000480A103007F0A8FCDFF830814C4D4D4E9A
:100D70009FED4D8A484C483CB8F80200012803D04A
:100D800003283FD0E8B351E04848B0F90A1049427F
:100D900000EE101AB8EEC01ADFED450A454F81EE9D
:100DA000200A87ED000AB0F90C10494201EE101A32
:100DB000B8EEC11AC1EE201AB3EE0C1AC7ED011A33
:100DC000B0F90800404200EE900A3348F8EEE00A1D
:100DD000C0EE811AC7ED021A07F059FC2E4897EDB4
:100DE000010A103007F053FC2B4890ED010A103037
:100DF00084ED000A90ED010A84ED010A97ED020AE4
:100E00000BE00DE02C4890ED000A84ED000A90ED17
:100E1000010A84ED010A90ED020A84ED020A05E060
:100E200084ED008A84ED018A84ED028A2068A8425C
:100E300003DAB04201D284ED008A6068A84203DA86
:100E4000B04201D284ED018A1348483800F0D6FA46
:100E50001148483803F02CF994ED0A0A002004F0F8
:100E60003FFA94ED0B0A012004F03AFA94ED0C0AD3
:100E70000220B1EE400A04F033FA94ED0D0A03208B
:100E8000B1EE400A04F02CFA052007F001FE73E7EA
:100E90009C9B00080AD7233CCC4D00201850002012
:100EA0000AD7233C0AD723BC00000000EC4D0020E9
:100EB00000004843E4000020444E00202DE9F041AA
:100EC00017462DED0E8B0E460446B0EE42AAF0EE0C
:100ED00062AAB0EE418AF0EE618A9FED7FCBB0EE60
:100EE0004A0AF0EE6A0AB0EE4C1AF0EE6C1A05F0FF
:100EF0005BFEB0EE401AF0EE601AB0EE419AF0EEF2
:100F0000619AB0EE4C1AF0EE6C1AB0EE480AF0EEB0
:100F1000680A05F049FE53EC192B51EC100BFFF752
:100F200023FA41EC100B06F02FFDB0EE408AF0EEF4
:100F3000608A9FED6B0B51EC180B53EC102BFFF7F5
:100F4000BAFA41EC1B0BB0EE4C1AF0EE6C1A9FEDA6
:100F500066DBB0EE4D0AF0EE6D0A05F025FEB0EE50
:100F6000409AF0EE609AB0EE4C1AF0EE6C1AB0EEC9
:100F7000480AF0EE680A05F017FEB0EE40EAF0EE1F
:100F800060EAB0EE4C1AF0EE6C1AB0EE4D0AF0EEDC
:100F90006D0A05F009FEB0EE401AF0EE601A53EC4F
:100FA0001E2B51EC110BFFF7DFF953EC192BFFF758
:100FB0007CFA53EC1B2BFFF7F0FA41EC100B05F019
:100FC000EFF9B0EE40BAF0EE60BA53EC1C2B51ECE6
:100FD000180BFFF770FA53EC1D2BFFF76CFA41EC7E
:100FE000190BB0EE4C1AF0EE6C1AB0EE4D0AF0EEA2
:100FF0006D0A05F0D9FDB0EE40EAF0EE60EAB0EE21
:101000004C1AF0EE6C1AB0EE4D0AF0EE6D0A05F0D7
:10101000CBFDB0EE40DAF0EE60DAB0EE4C1AF0EE56
:101020006C1AB0EE480AF0EE680A05F0BDFD53EC0C
:101030001D2B51EC100BFFF797F953EC1E2BFFF70C
:1010400034FA53EC192BFFF7A8FA41EC100B05F01A
:10105000A7F9B0EE409AF0EE609A9FED250B53ECA5
:10106000182B84ED000B51EC1A0BFFF796FA0D4686
:10107000044645EC100B05F03FFBB0EE401AF0EED5
:10108000601A53EC1B2B51EC110BFFF711FA9FED7B
:101090001A1B53EC112BFFF70EFAC6E9000145ECC1
:1010A000104B05F029FB9FED161B51EC100B53EC78
:1010B000112BFFF7FDF953EC192BFFF7F6F99FED14
:1010C000121B53EC112BFFF7F6F9C7E90001BDEC39
:1010D0000E8BBDE8F0810000000000000000004021
:1010E0000000000000006E400000000000005E40B4
:1010F000000000000080564012143FC6DCA54CC022
:10110000182D4454FB21F93F12143FC6DCA54C4076
:10111000FFF7FCFD02221146002000F081F80222B8
:101120001146012000F07CF802221146104600F022
:1011300077F802221146032000F072F805220121FF
:10114000042000F06DF800BF03F0BEF9012007F0A5
:101150009FFCF9E7014800F0BBBD00001C0900201E
:10116000014800F0B5BD00005C080020014800F017
:10117000AFBD0000BC08002001681823CAB2103AB5
:10118000B2FBF3F2054B6FF30901032A9B5CC365C5
:1011900000D9091D81650846704700005497000872
:1011A00010B5014600208B698A6A4FF0C07453B1B4
:1011B000B3F5005F15D072B1012A0CD0022A0AD013
:1011C000032A09D104E01AB1012A06D0022A03D168
:1011D000C96AC90100D5012010BDC96AA142FAD06F
:1011E00010BD002AF7D0012AF2D0022AF3D0032A38
:1011F000F3D010BD30B50468256825F4802525603E
:10120000046863608368402B036803D099600068BA
:10121000C26030BD9A600068C16030BD7047000098
:101220002DE9F041C0EBC0033A4D03EB43061746EE
:1012300005EBC604012222725203C4F894209FEDEC
:10124000361A00EB800305F5A86202EB830884EDF3
:10125000101A88F8081003F023FA98F80800DFED58
:101260002F1A9FED2F0ADFED2F0A01282CD002281C
:1012700028D145F836709FED2C2ADFED2C2A84ED1D
:101280000B2AC4ED0C2AF1EE082AC4ED0F2ADFED7B
:10129000282AC4ED072A84ED182A9FED262A84ED1A
:1012A000172AC4ED1B1A84ED090A84ED0A0A84ED9D
:1012B000051A84ED150A9FED200A00BF84ED140A7B
:1012C000C4ED1A0ABDE8F0819FED1C2A45F836707E
:1012D00084ED0B2A9FED1A2A84ED0C2AB3EE042A22
:1012E00084ED0F2A9FED172A84ED072A9FED162A19
:1012F00084ED181A84ED172AC4ED1B1A84ED090A2F
:1013000084ED0A0A84ED051A84ED150A9FED0F0A93
:10131000D4E70000A447002000000000CDCC4C3FE3
:1013200000007A44000020C3CDCC4C3DA69B443B3A
:10133000000016451B2FDD3C0000E143CDCCCC3D29
:101340006F12833A0000A044AE47E13D0000C8435D
:1013500072B6FEE710EE100A10B50549040E020C35
:10136000CC70030A08704B708A70084610BD0000EC
:10137000E000002070B500F031FF164C606160782D
:10138000012804D0E0680025012805D013E01249A7
:101390000888401C088070BD0E49FF2309222031B7
:1013A0000E4802F075F818B9A068401CC4E902059F
:1013B00000F014FF2061D4E90410401A41F2883192
:1013C0008842E8DB20210648FEF7B6FF25700120A1
:1013D000E06070BD98000020185000200807002031
:1013E00060470020014890ED040A7047844D0020BA
:1013F000014890ED050A7047844D002010B5044661
:101400002DED068B90ED00AAD0ED019A03F012FBB2
:101410009FED188ADFED188A84ED030AC0EE080AF2
:1014200020EEA80A05F018FBD4ED030A20EE0A9A74
:1014300080EE880A20EE280A06F0DEF9D4ED030AD1
:1014400009EEC09A80EE880A20EE280A05F004FB17
:1014500060EE299A94ED030AC0EE080A20EEA80A6D
:1014600006F0CAF94AEE009A84EC029ABDEC068BAB
:1014700010BD000000003443DB0F49C090F820206D
:10148000012A07D0022A05D0416A41F48021416235
:1014900001207047006842690A434261002070479A
:1014A000F0B590F820500468A468012D05D0022DF5
:1014B00003D0416A41F4802153E014F0406F01D120
:1014C000E5004BD5C4F30164022C03D9416A41F411
:1014D000000146E00125A5401D608D684FF4C073F2
:1014E0009DB1CE6835434E6845EAC605066803EBF4
:1014F0000417F5514FF4C275076805EB04150E6922
:101500007E51097D012905D009E00E88CD6845EAA4
:101510004655EBE701684E5946F480764E511179F5
:10152000D2F805504FF4C67641EA0525016806EB6E
:1015300004168D511178D2F801204FF4C47541EA98
:101540000221026805EB04155151006803EB0411F8
:10155000425842F0010242500020F0BD416A41F47D
:10156000001141620120F0BD10B590F82020012A41
:1015700007D0022A05D0416A41F48021416201204E
:1015800010BD3B48D0F8002242F00102C0F8002212
:10159000D0F8002222F47C52C0F80022D0F80022B9
:1015A0004B6A42EA0322C0F800220A7D02F01F03C0
:1015B00001229A40D0F81C329343C0F81C32CB6908
:1015C000B3B9D0F80C329343C0F80C328C894B6815
:1015D00064F31F434C6900EBC404C4F840320C8927
:1015E0000B6864F31F434C6900EBC404C4F8443235
:1015F000CB69012B16D1D0F80C321343C0F80C3252
:101600000C884B6864F31F434C6900EBC404C4F8B6
:1016100040320C89CB6864F31F434C6900EBC4046F
:10162000C4F844328B69002BD0F804320ED0134337
:10163000C0F804320B69002BD0F8143208D01343E1
:10164000C0F81432096A012904D008E09343EFE797
:101650009343F5E7D0F81C121143C0F81C12D0F8E0
:10166000001221F00101C0F80012002010BD00009E
:1016700000640040704730B590F82040012C05D040
:10168000022C03D0416A41F480215DE00468002906
:1016900055D02469A40754D04FF4D874056804EBDE
:1016A00001142D5915F00405956005682D594ED08B
:1016B000ED08556005682C5904F00204D4604FF41D
:1016C000DA74056804EB01142D5905F00F05156156
:1016D00005682D59C5F30725956105682C59240C1B
:1016E00054614FF4DC72046802EB0112A4581C70C0
:1016F0000468A458240A5C700468A458240C9C70E4
:101700000468A258120EDA704FF4DE72046802EB1D
:101710000112A4581C710468A458240A5C7104685E
:10172000A458240C9C710468A258120EDA71006847
:1017300081B1016941F020010161002030BDE46800
:10174000A8E7416A41F400114162012030BD6D0DEE
:101750001560AFE7C16841F02001C160EDE72DE9F8
:10176000F05F0546006800244669D0F80490876859
:10177000D0F80CB0D0F810A0D0F81880F10748D0FD
:10178000F90714D001218160B80703D5284600F07D
:101790003EFA0CE0780702D54FF4006407E0380702
:1017A00002D54FF4805402E0284600F02FFAF805E5
:1017B00016D529684FF480708860B80503D528468F
:1017C00000F027FA0CE0780502D544F4005407E055
:1017D000380502D544F4804402E0284600F018FAA7
:1017E000F80316D529684FF480308860B80303D514
:1017F000284600F010FA0CE0780302D544F40044C7
:1018000007E0380302D544F4803402E0284600F0B3
:1018100001FA300707D55FEACB6004D529681020AC
:1018200044F40074C86070074FF0080707D55FEAFA
:101830000B7004D52868C760284600F05FF9B00730
:1018400006D52868C068800702D0284600F058F9FD
:10185000700607D55FEACA6004D52968102044F4F1
:1018600080640861B00607D55FEA0A7004D528686D
:101870000761284600F09AF9F00606D52868006945
:10188000800702D0284600F092F9B00308D55FEA3D
:10189000C96005D5296810204860284600F088F9FD
:1018A000F00307D55FEA097004D528684760284629
:1018B00000F0B2F9300446D55FEA497040D5F00532
:1018C00004D55FEAC87001D044F00104B00504D526
:1018D0005FEA887001D544F00204700504D55FEA20
:1018E000487001D544F00404300529D518F0700F74
:1018F00026D008F07000402815D006DC102809D04A
:1019000020280AD0302816D10AE050280ED06028AE
:1019100011D10EE044F008040DE044F010040AE098
:1019200044F0200407E044F0400404E044F0800464
:1019300001E044F480742868816921F070018161BC
:10194000296804204860002C05D0686A204368623A
:101950002846FFF78FFEBDE8F09F70B5040003D066
:1019600094F8200010B104E0012070BD204600F082
:1019700081F82068016841F00101016000F02EFC4F
:101980000546052604E000F029FC401B0A2811D872
:1019900020684068C007F6D02068016821F0020185
:1019A000016000F01BFC05460BE000F017FC401B3B
:1019B0000A2806D9606A40F40030606284F820602A
:1019C000D2E7206840688007EFD4207E0128206895
:1019D00001683DD021F080010160607E012820680F
:1019E000016838D021F040010160A07E0128206804
:1019F000016833D021F020010160E07E01282068D9
:101A000001682ED041F010010160207F012820687C
:101A1000016829D021F008010160607F0128206859
:101A2000016824D021F004010160D4E902010843D7
:101A3000D4E90412114308436168491E0843216830
:101A4000C86100206062012084F82000002070BD81
:101A500041F08001C0E741F04001C5E741F02001BD
:101A6000CAE721F01001CFE741F00801D4E741F0C7
:101A70000401D9E710B586B0044614216846FEF784
:101A80005BFC1B49206888422FD11A48002102685C
:101A900042F000720260006800F000700590154886
:101AA0001038026842F0080202600068022200F06A
:101AB000080005900320CDE90210CDE900020920BD
:101AC000049069460C4800F061FA002205211320B9
:101AD00000F010FC132000F0FFFB00220521142071
:101AE00000F008FC142000F0F7FB06B010BD000069
:101AF0000064004040380240000C02407047000083
:101B0000274910B54A68274B521C4A60A3F11C02B2
:101B10000021FFF7B0FD23491C390868A0F50072C9
:101B2000013A19D0A0F50072023A15D0A0F5007262
:101B3000033A11D0B0F5017F0ED0A0F50072053A3E
:101B40000AD0A0F50072063A06D0A0F50072073A56
:101B500002D0B0F5027F22D14A7F0B7F401EC0B277
:101B600002EB032200EB80030F4840F8232000EB38
:101B7000830090F91330322B03DA4260C27C521C8E
:101B8000C274CA7F11F81E3F1B0202FA83F2C260C0
:101B9000CA788B7802EB032202820979817410BD26
:101BA000C40000209C470020E44C00207047704790
:101BB0007047000070B5044690F82000012804D05A
:101BC000606A40F40020606218E0022084F820007F
:101BD0002068016821F00101016000F0FFFA05466C
:101BE0000EE000BF00F0FAFA401B0A2808D9606A2C
:101BF00040F400306062052084F82000012070BDB0
:101C000020684068C007EDD1606270BD70477047C2
:101C1000704770477047704770472DE9F0410446A0
:101C2000876D00F0DBFA064694F83500002502289F
:101C300006D08020606584F834500120BDE8F08132
:101C40002068016821F0160101602068416921F0D7
:101C500080014161206C08B9A06C20B12068016846
:101C600021F0080101602068016821F00101016094
:101C70000CE000F0B3FA801B052807D9202060652E
:101C8000032084F8350084F83450D7E720680068D2
:101C9000C007EED194F85C103F208840B860012066
:101CA00084F8350084F834500020C7E790F83510E8
:101CB000022903D08021416501207047052180F869
:101CC00035100068016821F00101016000207047B3
:101CD0002DE9F84304464FF00009CDF80090634821
:101CE0004FF41651A56D0068B0FBF1F72E6894F81B
:101CF0005C10082000FA01F131420FD021680A6817
:101D000052070BD50A6822F004020A6094F85C10AE
:101D10008840A860606D40F00100606594F85C1038
:101D20004FF0010808FA01F0304208D021684969F3
:101D3000090604D5A860606D40F00200606594F863
:101D40005C1004208840304208D021680968890767
:101D500004D5A860606D40F00400606594F85C10E4
:101D600010208840304218D021680968090714D52E
:101D7000A86020680168490304D50068000308D5FD
:101D8000A16C07E00168C90503D4016821F00801CE
:101D90000160216C09B12046884794F85C1020202E
:101DA0008840304231D021680968C9062DD5A86025
:101DB00094F8350005282068016806D0490347D506
:101DC000006800031DD4616C1CE021F01601016065
:101DD0002068416921F080014161206C08B9A06C44
:101DE00020B12068016821F00801016094F85C10BE
:101DF0003F208840A86084F8358084F83490216DB5
:101E00001FE0E16B09B120468847606D00282BD0A8
:101E1000606DC00714D0052084F835002068016883
:101E200021F0010101600098401C0090B84203D8E5
:101E300020680068C007F6D184F8358084F83490B3
:101E4000E16C002910D001B02046BDE8F0430847FE
:101E50000168C905D5D4016821F01001016084F83A
:101E6000358084F83490CCE7BDE8F8832800002062
:101E70002DE9F041044600F0B1F906465CB10220BC
:101E800084F83500002584F834502068016821F07A
:101E9000010101600DE00120BDE8F08100F09EF934
:101EA000801B052805D920206065032084F83500B3
:101EB000F2E720680068C007F0D122681168204866
:101EC0000140D4E901031843D4E9033633431843EE
:101ED00063691843A3691843E3691843236A1843E5
:101EE0000843616A042903D1D4E90B131943084359
:101EF000106020684069666A20F0070130460E4392
:101F0000012704280CD1A06A0643E06A40B12046AC
:101F1000FFF746F920B14020606584F83570BAE7D4
:101F2000206846612046FFF727F994F85C203F219E
:101F300091408160656584F835700020ACE7000051
:101F40003F8010F070B5044690F834000025012859
:101F50000CD0012084F8340094F835600020012E64
:101F600006D084F834000225284670BD022070BDDA
:101F7000022684F8356060652046FFF73BF920684B
:101F8000016841F001010160EEE700002DE9F84F22
:101F9000DFF8F8A10022012403254FF00F090AF110
:101FA000040BAAF1040E00BF0B6804FA02F63340DA
:101FB000B34270D10F7907F00307012F01D0022F30
:101FC00016D187684FEA420805FA08FC27EA0C0791
:101FD000D1F80CC00CFA08FC4CEA070CC0F808C099
:101FE0004768B7430E79C6F3001696403E434660F5
:101FF0000E79F643B6070AD0C7684FEA420C05FAD5
:102000000CF6B7438E6806FA0CF63E43C6600E79AE
:1020100006F00306022E10D1D60800EB8608D8F889
:10202000206057074FEAD76C09FA0CF7BE430F69D7
:1020300007FA0CF73743C8F8207006684FEA420CDD
:1020400005FA0CF7BE430F7907F0030707FA0CF700
:10205000374307604E6816F4403F1CD04C4E37683B
:1020600047F480473760366822F0030706F480465D
:102070000096484E07EB060CDCF8086897073F0F00
:1020800009FA07F826EA0806DFF80C81404503D173
:102090004FF0000841E072E0DFF80081404502D1D6
:1020A0004FF0010839E0DFF8F880404502D14FF0E9
:1020B000020832E0DFF8EC80404502D14FF003081F
:1020C0002BE0DFF8E480404502D14FF0040824E023
:1020D000DFF8D880404502D14FF005081DE0DFF859
:1020E000D080404502D14FF0060816E0DFF8C480EA
:1020F000404502D14FF007080FE0DFF8BC804045B3
:1021000002D14FF0080808E0DFF8B080404502D166
:102110004FF0090801E04FF00A0808FA07F848EA0A
:102120000608CCF80888DAF800605746D1F804C0F1
:102130009E435FEACC2C00D51E433E60DBF8006076
:102140005F46D1F804C09E435FEA8C2C00D51E4345
:102150003E60DEF800607746D1F804C09E435FEA37
:102160008C3C00D51E433E60084F083F3E68D1F8C6
:1021700004C09E435FEACC3C00D51E433E60521C27
:10218000102AFFF411AFBDE8F88F0000083C0140B1
:102190004438024000300140000002400004024088
:1021A00000080240000C02400010024000140240EF
:1021B00000180240001C024000200240002402409F
:1021C000426921EA02030A4043EA02418161704701
:1021D0000AB1816170470904FBE70000014880688B
:1021E000704700001C0000200248816802781144FA
:1021F000816070471C0000200B4810B5016841F455
:1022000000710160016841F480610160016841F47E
:1022100080710160032000F08DF80F2000F006F8B7
:1022200000F03EF8002010BD003C024010B5014611
:1022300088B00022192000F05DF8192000F04CF859
:1022400013480024016841F001010160006805A9FC
:1022500000F001000690684600F018F900F046F919
:102260000C494000B0FBF1F10C480B4A491E0260DA
:1022700040F2E732C0E90324C0E9011400F078FB22
:1022800010B1012008B010BD044800F09FFBF9E731
:102290004438024040420F00000001407C09002009
:1022A0000C4882B0016841F480410160006800F48C
:1022B000804000900748001F016841F08051016094
:1022C0000068002200F0805000900F21901E02B0A4
:1022D00000F010B844380240002809DB00F01F026B
:1022E000012191404009800000F1E020C0F8001178
:1022F00070470000F0B40E4B1B680C46C3F302237A
:10230000C3F10705042D00D90425191D072901D2A1
:10231000002300E0DB1E012606FA05F1491E2140DC
:1023200099409E40761E16403143F0BC04F023B81D
:102330000CED00E0064900F0070208684FF6FF03C5
:10234000184040EA0220034A10430860704700002A
:102350000CED00E00000FA052DE9F0470E460500FF
:1023600065D0DFF81481D8F80000F7B200F00F0054
:10237000B04207D288F80070D8F8000000F00F00D3
:10238000B04254D128683D4C810712D5400703D58F
:10239000206840F4E05020602878000703D52068CA
:1023A00040F4604020602068A96820F0F0000843F5
:1023B00020602878C0072DD0304968680839012886
:1023C00012D0022813D0032811D0096889070029E8
:1023D0002DDA216821F0030101432160FFF7FEFEA1
:1023E000814641F2883A0EE009688903EFE70968FF
:1023F0008901ECE7FFF7F2FEA0EB0901514502D994
:102400000320BDE8F0872068696800F00C00B0EB9D
:10241000810FEFD1D8F80010404601F00F01B14212
:1024200007D90770006800F00F00B04201D001200A
:10243000E7E72878400705D52068E96820F4E050F0
:10244000084320602878000706D52068296920F411
:10245000604040EAC100206000F058F82168084A56
:10246000C1F30311515CC840064908600648006882
:10247000FFF7DCFE0020C4E7003C024008380240C1
:102480005C97000828000020200000200F22026036
:102490000C4A136803F003034360136803F0F0036E
:1024A0008360136803F4E053C36012684FF4E05391
:1024B00003EAD20202610448006800F00F000860DD
:1024C0007047000008380240003C024004480549BB
:1024D00000680968044AC1F38221515CC840704712
:1024E00028000020083802406C970008044805497D
:1024F00000680968044AC1F34231515CC840704722
:1025000028000020083802406C970008154810B5D4
:10251000006810F00C02144813D01449042A0FD09C
:10252000082A0ED10F4C241F2268236802F03F02B4
:102530005B0207D52068C0F38810A0FB010106E00C
:10254000084610BD2168C1F38811A1FB00010023DA
:10255000FDF7A8FE2168C1F30141491C4900B0FB09
:10256000F1F010BD083802400024F400001BB70051
:102570002DE9F84F04006ED02078DFF84C93C007A7
:10258000A9F104054AD009F104000168C1F38101F1
:10259000012908D00068C0F3810002280AD1D9F8C7
:1025A0000000400206D52868800337D560680028FF
:1025B000E1D033E06068B0F5803F10D0B0F5A02FD7
:1025C000286810D020F480302860286820F480200B
:1025D00028606068A8B1FFF701FE06460DE0286894
:1025E00040F48030F4E740F480202860F7E700BF33
:1025F000FFF7F4FD801B642873D828688003F7D5A3
:102600000CE0FFF7EBFD064605E000BFFFF7E6FD37
:10261000801B6428F0D828688003F7D42078DFF87E
:10262000AC8280074FF0000A3ED5A748001D016824
:1026300011F00C0F08D00068C0F3810002280BD104
:10264000D9F80000400207D42868800716D5E06852
:10265000012800D112E033E1E068B8B10120C8F8E8
:102660000000FFF7BBFD064605E000BFFFF7B6FD23
:10267000801B0228C0D828688007F7D52868216900
:1026800020F0F80040EAC10028600DE0C8F800A082
:10269000FFF7A4FD064604E0FFF7A0FD801B02281B
:1026A0001FD828688007F7D42078000722D5864FE6
:1026B00087486169703771B101210160FFF78EFDB4
:1026C000064604E0FFF78AFD801B022809D8386817
:1026D0008007F7D50EE0C0F800A0FFF77FFD0646A3
:1026E00005E082E0FFF77AFD801B02287DD838687C
:1026F0008007F7D42078400768D5DFF8CCB10027F1
:102700000BF13C0BDBF80000C0000BD4DBF8001031
:1027100041F08051CBF80010DBF80000012700F0F9
:10272000805000906B4E3068C00510D4306840F483
:1027300080703060FFF752FD009005E0FFF74EFD1E
:102740000099401A022850D83068C005F6D55E4E70
:10275000A0686C3601280FD00528306810D020F012
:1027600001003060306820F004003060A068B8B12B
:10277000FFF734FD00900FE0306840F00100F4E70F
:1027800040F004003060F7E7FFF728FD0099411A98
:1027900041F28830814266D830688007F4D50EE077
:1027A000FFF71CFD009007E0FFF718FD0099411AA4
:1027B00041F28830814256D830688007F4D42FB176
:1027C000DBF8001021F08051CBF80010A069C8B3ED
:1027D0003D49091D0968C1F3810102294AD0022837
:1027E000504607D0C8F8600000E03CE0FFF7F6FC78
:1027F00004463BE04746C8F86000FFF7EFFC06469A
:1028000005E000BFFFF7EAFC801B02282BD82868F0
:102810008001F7D4D4E907010843A16A2E4A490888
:1028200002EB0141626A41EA8211084394F82C10DC
:1028300040EA0161C9F8001001203866FFF7CEFCBC
:10284000044606E03EE000BFFFF7C8FC001B02287C
:1028500009D828688001F7D534E000BFFFF7BEFC37
:10286000001B022802D90320BDE8F88F28688001E8
:10287000F4D427E00128F7D0D9F80000E26900F489
:10288000800191421CD1226A00F03F01914217D190
:1028900047F6C071626A0140B1EB821F10D1A26A93
:1028A0004FF0FF3300F4403103EB5202B1EB024F23
:1028B00006D194F82C1000F07060B0EB016F01D0DD
:1028C0000120D1E70020CFE7043802400000474252
:1028D000800E4742007000400000FFFF70477047C5
:1028E00070B590F83C20012A32D0012480F83C4099
:1028F000022280F83D2003685A689D6822F0700625
:102900000A6832435A60134B02689A4214D0B2F1FB
:10291000804F11D0104B9A420ED0104B9A420BD0E0
:102920000F4B9A4208D00F4B9A4205D00E4B9A4259
:1029300002D00E4B9A4204D1496825F08003194316
:10294000916080F83D40002180F83C10084670BD41
:10295000022070BD0000014000040040000800405B
:10296000000C0040000401400040014000180040FD
:1029700010B5040003D094F83D0010B107E0012029
:1029800010BD002084F83C00204600F01EF8022014
:1029900084F83D00211D206802F092FD012084F89A
:1029A000460084F83E0084F83F0084F8400084F834
:1029B000410084F8420084F8430084F8440084F81D
:1029C000450084F83D00002010BD704790F83D1090
:1029D000012901D001207047022180F83D100168D3
:1029E000CA6842F00102CA6000681149884214D0E6
:1029F000B0F1804F11D00F4988420ED00E49884265
:102A00000BD00E49884208D00D49884205D00D49A7
:102A1000884202D00C49884204D1816801F0070144
:102A2000062903D0016841F00101016000207047D0
:102A3000000001400004004000080040000C00407D
:102A4000000401400040014000180040704770B58C
:102A50000446006801694FF00005C943890715D491
:102A6000C168C943890711D4E91E0161012020779B
:102A7000206880698007204602D0FFF7E7FF04E066
:102A800000F0EEF8204600F09FF9257720680169F4
:102A9000C943490717D4C168C943490713D46FF024
:102AA00004010161022020772068806910F4407FD2
:102AB000204602D0FFF7CAFF04E000F0D1F820461C
:102AC00000F082F9257720680169C943090716D407
:102AD000C168C943090712D46FF0080101610420DD
:102AE00020772068C0698007204602D0FFF7AEFF3C
:102AF00004E000F0B5F8204600F066F9257720687C
:102B00000169C943C90617D4C168C943C90613D4AA
:102B10006FF010010161082020772068C06910F46F
:102B2000407F204602D0FFF791FF04E000F098F8C4
:102B3000204600F049F9257720680169C943C90793
:102B400008D1C168C943C90704D1891E0161204663
:102B500000F0A0F920680169C943090609D4C168D9
:102B6000C943090605D46FF0800101612046FFF7D3
:102B7000B5FE20680169C943490609D4C168C94343
:102B8000490605D46FF040010161204600F08CF940
:102B900020680169C94389060BD4C168C943890605
:102BA00007D46FF0200101612046BDE87040FFF7B7
:102BB00096BE70BD70B586B0044614216846FDF718
:102BC000BBFB224A2068002421490225214E904265
:102BD00023D1086840F480700860086800F48070B1
:102BE0000590086840F0800008600868694600F0B9
:102BF0008000059001200090CDE901541648CDE9F0
:102C00000345FFF7C3F94FF4E0500090CDE90154BC
:102C100069463046CDE9034513E0104A904212D18F
:102C2000086840F0800008600868694600F080008D
:102C3000059040200090CDE901540920CDE90340E2
:102C40003046FFF7A3F906B070BD0000000C00404D
:102C500030380240001C02400020024000180040B2
:102C6000704770B5044690F83C0000260D460128D8
:102C70000FD0012084F83C006AB1042A1DD0082A34
:102C80002FD00C2A3FD00126002084F83C0030468B
:102C900070BD022070BD206802F084FC206881694C
:102CA00041F0080181612068816921F0040181619E
:102CB000206881692A69114311E0206802F0A2FCB2
:102CC0002068816941F4006181612068816921F493
:102CD00080618161206881692A6941EA02218161FC
:102CE000D2E7206802F0C4FC2068C16941F0080105
:102CF000C1612068C16921F00401C1612068C16916
:102D00002A69114311E0206802F0E6FC2068C169DD
:102D100041F40061C1612068C16921F48061C16131
:102D20002068C1692A6941EA0221C161ACE710B596
:102D3000040003D094F83D0010B107E0012010BD5D
:102D4000002084F83C00204600F01EF8022084F8A1
:102D50003D00211D206802F0B3FB012084F84600ED
:102D600084F83E0084F83F0084F8400084F8410075
:102D700084F8420084F8430084F8440084F8450055
:102D800084F83D00002010BD08B50C4A01680C48CD
:102D9000914207D1016841F008010160006800F02C
:102DA000080009E0074A914207D1016841F040015B
:102DB0000160006800F04000009008BD000C004079
:102DC00040380240001800407047000010B504462B
:102DD000022249B104290ED0082913D094F84100E9
:102DE000012816D0012010BD94F83E000128F9D129
:102DF00084F83E200FE094F83F000128F2D184F8D7
:102E00003F2008E094F840000128EBD184F84020EE
:102E100001E084F841200122206802F0B5FB164948
:102E20002068164A884201D0904203D1436C43F493
:102E3000004343642068884213D0B0F1804F10D023
:102E40000F4988420DD00F4988420AD00E49884266
:102E500007D0904205D00D49884202D00C498842E3
:102E600004D1816801F00701062903D0016841F00F
:102E700001010160002010BD00000140000401407C
:102E80000004004000080040000C004000400140E9
:102E90000018004000680349884201D1FFF7A4B937
:102EA0007047000000000140704770477047000005
:102EB000F8B5016804460868CA684B6910F00F0F3E
:102EC0004FF0000559D003F0010602F49077374324
:102ED00065D0C10705D0D10503D5216C41F00101B2
:102EE0002164410705D5D90703D0216C41F00201C7
:102EF0002164810705D5D90703D0216C41F0040175
:102F00002164010707D502F02001314303D0216C71
:102F100041F008012164216C00293AD0800604D5D3
:102F2000900602D5204602F026FE20684069216CFA
:102F3000C0F38010090700D460B3204602F0F4FD0E
:102F400020684069400621D52068143050E8001FF1
:102F500021F0400140E80012002AF5D1A06BA8B191
:102F60006C490165A06BFEF7A1FE002811D0A06B93
:102F7000016D01B0BDE8F040084783060FD5930608
:102F80000DD52046BDE8F84002F0F5BD2046FFF71C
:102F90008DFFF8BD2046FFF789FF2564F8BD266B3D
:102FA0002023012E79D1C60677D5D60675D50868B7
:102FB000486800904869400640D5A16B08684068A1
:102FC0000004000CEAD0A28D8242E7D9E085C869EE
:102FD000B0F5807F2DD020680C3050E8001F21F420
:102FE000807140E80012002AF5D12068143050E8C2
:102FF000001F21F0010140E80012002AF5D12068ED
:10300000143050E8001F21F0400140E80012002A6F
:10301000F5D184F83E30256320680C3050E8001F5D
:1030200021F0100140E80012002AF5D1A06BFEF754
:10303000F4FDA08DE18D401A81B229E0A08DE18DD3
:10304000401A81B2E08D0028A8D00029A6D02068BF
:103050000C3050E8002F22F4907240E80026002E39
:10306000F5D12068143050E8002F22F0010240E82A
:103070000026002EF5D184F83E30256320680C3000
:1030800050E8002F22F0100240E80023002BF5D179
:103090002046FFF70AFFF8BDFFE705062BD515060A
:1030A00029D594F83D002128F5D1A068B0F5805FBE
:1030B00001D12069B0B1206A411C216221680078E9
:1030C0004860E08C401E0004000CE084E3D12068DE
:1030D000C16821F08001C1602068C16841F04001F1
:1030E000C160D8E7206A0088C0F308004860206A01
:1030F000801C2062E5E74006CDD55006CBD5CA68D6
:10310000204622F04002CA6084F83D3000F038FAD0
:10311000C1E70000195B000870B5040004D094F802
:103120003D00002510B106E0012070BD84F83C5040
:10313000204600F023F8242084F83D002068C16870
:1031400021F40051C160204602F076FD206801693B
:1031500021F4904101612068416921F02A01416117
:103160002068C16841F40051C1602564202084F8C2
:103170003D0084F83E00002070BD00002DE9F04FB6
:1031800087B0054614216846FDF7D6F88B498A4E6C
:103190002F6800248948103902230322DFF820A277
:1031A0004FF0080CB7421FD1056845F08045056017
:1031B000006800F080400590086840F0100008604A
:1031C0000868694600F010000590D0018DE81900EC
:1031D000CDE9032C5046FEF7D9FE002205215220EE
:1031E000FFF788F852203AE0DFF8D8814FF4806684
:1031F0004FF48079474537D1076847F000470760AB
:10320000006800F000400590086840F01000086079
:1032100008688DE81C0000F01000CDE904C0694684
:1032200003925046FEF7B2FE684F674838600005CB
:10323000C7E90104C7E903467C61C7E906493C6266
:1032400038467C62FEF714FE08B1FEF781F8AF63E2
:10325000002205215320BD63FFF74CF85320FFF7F0
:103260003BF807B0BDE8F08FDFF86481DFF84CA1D0
:103270004FF0070B0AF1040A474539D1DAF800701C
:1032800047F01007CAF80070DAF8000000F01000EC
:103290000590086840F0020008600868694600F080
:1032A00002000590C0208DE81900CDE9032B4948A4
:1032B000FEF76CFE454F4848603738604FF00060BD
:1032C000C7E90104C7E903467C61C7E906493C62D6
:1032D00038467C62FEF7CCFD08B1FEF739F8AF63E3
:1032E000002205212520BD63FFF704F82520B6E75D
:1032F000DFF8E880474537D1076847F400370760B3
:10330000006800F400300590086840F0080008608C
:103310000868694600F00800059060208DE81900F3
:10332000CDE9032B2E48FEF731FE284F2648C03743
:10333000183838604FF00060C7E90104C7E9034658
:103340007C61C7E906493C6238467C62FEF790FD25
:1033500008B1FDF7FDFFAF63002205212620BD6304
:10336000FEF7C8FF26207AE71E4887427FF479AF30
:10337000DAF8005045F02005CAF80050DAF80000ED
:1033800000F020000590086840F0400008600868E0
:10339000694600F0400005904FF484408DE8190024
:1033A000CDE9032C1048FEF7F1FD0022052147204E
:1033B000FEF7A0FF472052E7007800404038024067
:1033C00000100240007C0040A06002405C08002029
:1033D00000100140000402404064024000440040EC
:1033E000000C0240001401400018024090F83E30EA
:1033F000202B0ED159B152B190F83C30012B08D09E
:10340000012380F83C300023036302F09BBC0120C1
:10341000704702207047000070B500681849884264
:103420002CD1184C184DA1780D2904D0207829549E
:10343000401C20701AE035F8070FA4F80300A878A4
:1034400060711048C01CFCF782FFA061A888A4F836
:103450000300A87960710B48C01CFCF778FFE0619D
:1034600020210948FCF768FF01206070BDE870402A
:1034700004490122891C0548FFF7B8BF70BD000050
:1034800000780040980000206047002008070020D6
:103490002DE9F843044690F83D001F4616460D46B8
:1034A00020284CD1C5B1BEB194F83C00012846D0CB
:1034B000012084F83C004FF00008C4F8408021202F
:1034C00084F83D00FEF78AFEA6848146E684A06863
:1034D000B0F5805F03D004E00120BDE8F8832069E7
:1034E00028B12E465FF0000584F83C800EE00026EF
:1034F000FAE78021204602F042FCA0B9AEB116F8EE
:10350000010B21684860E08C401EE084E08C4B4653
:103510004FF0000200970028EBD14FF04001204609
:1035200002F02DFC30B10320D7E735F8020BC0F3D1
:103530000800E6E7202084F83D000020CDE70220C7
:10354000CBE790F83D30202B18D1A9B1A2B190F86B
:103550003C30012B12D001628284C28400210164BC
:10356000212280F83D2080F83C100068C16841F0BD
:103570008001C16000207047012070470220704721
:103580007047000070B52B482B4C90ED020AB1EE4D
:10359000400A84ED030A90ED010AB1EE400A84ED81
:1035A000040A90ED000A84ED050A606A48B901F04A
:1035B00035FAB5EEC00AF1EE10FA02D001206062D1
:1035C00018E01E4D052095ED010A00F03FF895ED3D
:1035D000030A072000F03AF895ED050A092000F0EB
:1035E00035F81748008800EE100A0D20B8EE400AA2
:1035F00000F02CF8134890F90E00012808D002289A
:1036000009D00E209FED100ABDE8704000F01EB8F2
:10361000B7EE000A01E0B0EE000A0E2000F016F846
:1036200094ED030A152000F011F894ED040A162019
:10363000EAE7000028470020F8000020104E002094
:1036400018500020154700200000000010B5FDEEC6
:10365000C00A0D2849D01BDC07283AD00CDC40B347
:1036600005285CD110EE100AFDF74BF841EC100B69
:103670002BA053EC102B35E0092850D110EE100A86
:10368000FDF73FF841EC100B29A053EC102B29E07B
:103690000E282ED015283ED0162840D110EE901AB4
:1036A00027A000BF02F02CFEBDE8104028A002F0C9
:1036B00027BE10EE901A4FF47A7091FBF0F200FBE7
:1036C000121210EE901A91FBF0F122A002F018FEF7
:1036D000EAE710EE100AFDF714F841EC100B21A0F8
:1036E00053EC102B02F00CFEDEE710EE901A21A036
:1036F000D8E710EE100AB0F17E5F06D010EE100A87
:10370000B0F1804F03D01FA002E024A000E029A068
:1037100002F0F6FDC8E710EE901A2CA0C2E710BD2B
:1037200074352E7478743D22252E326622000000F6
:1037300074392E7478743D22252E326622000000E2
:103740007431362E7478743D222564220000000006
:10375000FFFFFF0074302E7478743D2225642B2502
:103760006422000074372E7478743D22252E326650
:10377000220000007431332E7478743D22256422B7
:10378000000000007431342E7478743D2257414992
:103790005420564953494F4E220000007431342EB4
:1037A0007478743D22564953494F4E204C554D5024
:1037B000212200007431342E7478743D225649530E
:1037C000494F4E2052494E47212200007431352E78
:1037D0007478743D2225642200000000FEE700009A
:1037E00000B590ED1A0A014680ED060A103002F08D
:1037F000FFFBD1ED1B0A00F049FC81ED1E0A91EDA3
:10380000040AB0EEC00A10EE100AB0F1804F1CDCC2
:10381000486F401C4867B0F5FA7F15DB05209FED27
:103820000C0ADFED0C0A81ED100AC1ED110A81EDE1
:103830001E0A81ED050A81ED060A81ED0E0A81ED71
:10384000030A81ED0D0A086000BD0020486700BD35
:1038500000000000000000462DE9F143E24D04465F
:103860002DED0A0B2DED108BB0EE40AAF0EE60AA04
:10387000B0EE449AF0EE649AB0EE42CAF0EE62CA3C
:10388000B0EE41EAF0EE61EA80ED00AB95ED0C0B95
:1038900080ED020B9FEDD58B51EC100B53EC182BE8
:1038A000FCF709FE95ED0E1B53EC112BFCF75CFDAC
:1038B00053EC192BFCF771FE41EC1B0B53EC1A2B4C
:1038C00051EC1C0BFCF7F1FD0F4647EC100B0646C4
:1038D0009FEDC8AB51EC100B53EC1A2BFCF7EBFD32
:1038E00041EC1C0B9FEDC51BB0EE490AF0EE690AD6
:1038F00003F05AF953EC1C2B51EC100BFCF7DBFDD9
:1039000053EC1B2BFCF7D1FD47EC106BC4E9040111
:1039100053EC182B51EC100BFCF7CDFD41EC1B0BBD
:103920009FEDB81BB0EE490AF0EE690A03F03CF9CE
:1039300053EC1B2B51EC100BFCF7BDFD41EC1D0BA8
:10394000B0EE481AF0EE681AB0EE490AF0EE690AD5
:1039500003F02AF995ED0CBB95ED0EFBB0EE40CAD5
:10396000F0EE60CA53EC1B2B51EC1F0BFCF7FCFC78
:1039700053EC1C2BFCF711FE53EC1D2BFCF795FDB3
:10398000C4E9060184ED08EB84ED0ABB53EC182B67
:1039900051EC1B0BFCF78FFD53EC1F2BFCF7E4FCE9
:1039A00053EC192BFCF7F9FD9DED160B41EC1B0BAD
:1039B00053EC1E2B51EC100BFCF777FD0F4647EC38
:1039C000100B064653EC1A2B51EC100BFCF773FD51
:1039D00041EC1C0B9FED891BB0EE490AF0EE690A21
:1039E00003F0E2F853EC1C2B51EC100BFCF763FDD9
:1039F00053EC1B2BFCF759FD47EC106BC4E90C0191
:103A000053EC182B51EC100BFCF755FD41EC1B0B44
:103A10009FED7C1BB0EE490AF0EE690A03F0C4F892
:103A200053EC1B2B51EC100BFCF745FD41EC1B0B31
:103A3000B0EE481AF0EE681AB0EE490AF0EE690AE4
:103A400003F0B2F8B0EE401AF0EE601A95ED0C0BF0
:103A5000B0EE41CA53EC102B95ED0E0BF0EE61CA9F
:103A600051EC100BFCF780FC53EC1C2BFCF795FD84
:103A700053EC1B2BFCF719FD9FED640BC4E90E0101
:103A800053EC102B51EC190BFCF787FDFCF720FED3
:103A9000288000279EE000BF07EB87004FF6FF71EC
:103AA00001EA8000FCF7E8FD8846064648EC100B6A
:103AB000B0EE4A1AF0EE6A1A03F076F894ED061B9F
:103AC00051EC100B53EC112BFCF7F5FC41EC190BEE
:103AD00048EC106BB0EE481AF0EE681A03F064F888
:103AE00094ED041B51EC100B53EC112BFCF7E3FC91
:103AF00048EC106B94ED021B41EC1B0B53EC112BAB
:103B000051EC100BFCF7D7FC94ED001B53EC112B80
:103B1000FCF72AFC53EC1B2BFCF726FC53EC192B6F
:103B2000FCF722FC41EC190B48EC106BB0EE4A1A82
:103B3000F0EE6A1A03F038F894ED0E1B51EC100BFE
:103B400053EC112BFCF7B7FC41EC1B0B48EC106B52
:103B5000B0EE481AF0EE681A03F026F894ED0C1B4C
:103B600051EC100B53EC112BFCF7A5FC48EC106B3F
:103B700094ED0A1B41EC1C0B53EC112B51EC100B78
:103B8000FCF799FC94ED081B53EC112BFCF7ECFBB4
:103B900053EC1C2BFCF7E8FB53EC1B2BFCF7E4FB72
:103BA000114A41EC120B6832A2F10801A1F10800A0
:103BB000B0EE491AF0EE691A9FED160BFDF77EF98B
:103BC00005F1580090EC060B01F0AEFB142004F058
:103BD0005FFF7F1C28888742FFF65EAFBDEC108B2D
:103BE0000BB0BDE8F08300003801002000000000A9
:103BF000000000400000000000000840000000003D
:103C0000000000C000000000000008C0000000002C
:103C100000003440000000000000000071EE602A47
:103C200070EE600A32EE611A80EEA20A40EE011ACE
:103C3000BDEEE10A10EE100A00B270470F4810B551
:103C40000D4901600321416000214FF41022816081
:103C5000C0E903124FF40012426101764176817689
:103C6000C17601774177FDF778FE002803D0BDE8E3
:103C70001040FDF76DBB10BD0064004050060020F1
:103C8000154808B5016841F480010160016801F43C
:103C900080010091016841F4001101600068002278
:103CA00000F40010009005211020FEF723FB1020E7
:103CB000FEF712FB002205211120FEF71BFB11204D
:103CC000FEF70AFB002205213A20FEF713FBBDE8B0
:103CD00008403A20FEF700BB3038024010B5B2B0C1
:103CE0001C2227496846FCF70EFB0021684604F0B9
:103CF000DBFE244C22491C2220601C3107A8FCF763
:103D000002FB002107A804F0CFFE1D4960601C22C1
:103D100038310EA8FCF7F7FA00210EA804F0C4FE13
:103D20001749A0601C22543115A8FCF7ECFA0021B9
:103D300015A804F0B9FE1249E0601C2270311CA8DD
:103D4000FCF7E1FA00211CA804F0AEFE0C4920614A
:103D50001C228C3123A8FCF7D6FA002123A804F0FA
:103D6000A3FE074960611C22A8312AA8FCF7CBFA00
:103D700000212AA804F098FEA06132B010BD000016
:103D80009096000800000020F0B587B01421684626
:103D9000FCF7D2FA2D480024016841F010010160BF
:103DA000016801F010010591016841F040010160D6
:103DB000016801F040010591016841F001010160D5
:103DC000016801F001010591016841F00201016003
:103DD000016801F002010591016841F008010160EC
:103DE000016801F008010591016841F480710160EA
:103DF000016801F480710591016841F08001016062
:103E00000068134E00F08000059000223C213046EF
:103E1000FEF7DEF90F4F002206213846FEF7D8F9EB
:103E20003C2000900125CDE90154694630460394B9
:103E3000FEF7ACF806200090CDE9015469463846FB
:103E40000394FEF7A3F807B0F0BD0000303802403D
:103E5000001C02400018024010B588B01C216846C2
:103E6000FCF76AFA14481349002401605321C0E9A1
:103E7000011440F2F311C0E903148461FEF757FF07
:103E800008B1FDF765FA6020CDE900040294002234
:103E9000694609480494FEF7E4FE08B1FDF758FAB4
:103EA00000210548FEF792FF0348FEF783FE08B0A5
:103EB00010BD000000180040C006002010B58AB0F8
:103EC000002407941C2168460894FCF735FA23481F
:103ED0002149016040F24731C0E9011440F2CF713D
:103EE000C0E903148461FEF722FF08B1FDF730FA40
:103EF000079407A919480894FEF7F2FC08B1FDF7EA
:103F000027FA6020CDE90004029400226946134894
:103F10000494FEF7A6FE08B1FDF71AFA04226946DA
:103F20000E48FEF79EFE08B1FDF712FA0822694618
:103F30000A48FEF796FE08B1FDF70AFA0C22694618
:103F40000648FEF78EFE08B1FDF702FA0348FEF7B9
:103F500031FE0AB010BD0000000C004078060020C1
:103F600010B50E4C0C480C2120604FF416506060C8
:103F70000020A060E060C4E90401A061E061204687
:103F8000FFF7CAF808B1FDF7E3F92068C16841F00E
:103F90002001C16010BD000000780040080700202B
:103FA0000C4810B50A4901604FF4E131416000212D
:103FB00081600C22C160C0E904128161C161FFF718
:103FC000ABF8002803D0BDE81040FDF7C1B910BD23
:103FD000007C00404C0700200E4810B50C490160E1
:103FE0000D4941604FF4805181604900C160C910A2
:103FF00001610C21416100218161C161FFF78CF8F1
:10400000002803D0BDE81040FDF7A2B910BD0000A4
:104010000010014090070020A08601000C4810B558
:104020000A4901604FF4E1314160002181600C22B6
:10403000C160C0E904128161C161FFF76DF8002819
:1040400003D0BDE81040FDF783B910BD0044004027
:10405000D40700200C4810B50A4901604FF4E13143
:104060004160002181600C22C160C0E904128161BD
:10407000C161FFF751F8002803D0BDE81040FDF7FB
:1040800067B910BD0014014018080020B4EEE00A22
:10409000F1EE10FA01DDB0EE600AF1EE600AB4EE66
:1040A000E00AF1EE10FA01D2B0EE600A70470000AB
:1040B00070B504002DED0A8B6CD0A5682846FCF77E
:1040C00020FB9FED369B53EC192BFCF7F4F994ED94
:1040D00000CAD4ED018A41EC1A0B3CEE688A18EE56
:1040E000100AFCF70EFB53EC1A2BFCF7DEF99FEDE0
:1040F0002DAB53EC1A2BFCF7DEF9FCF72DFBA0627D
:104100002846FCF7FEFA53EC192BFCF7D4F97CEEA9
:10411000288A41EC1B0B18EE900AFCF7F2FA53ECDC
:104120001B2BFCF7C2F953EC1A2BFCF7C4F9FCF774
:1041300013FBE0622846FCF7E4FA53EC192BFCF77A
:10414000BAF941EC1B0B18EE100AFCF7DAFA53EC43
:104150001B2BFCF709F953EC1A2BFCF7ACF9FCF715
:10416000FBFA20632846FCF7CCFA53EC192BFCF73A
:10417000A2F941EC190B18EE900AFCF7C2FA53ECC5
:10418000192BFCF7F1F853EC1A2BFCF794F9FCF718
:10419000E3FA6063BDEC0A8B70BD000022DBF97EA0
:1041A0006ABCCC3FABAAAAAAAAAA404010B5040098
:1041B0002DED0C8B7DD000202422424900EB8003A2
:1041C00001EB8303DB6893FBF2F300EE103A04EBA0
:1041D0008003401CB8EEC00A042883ED0E0AEDDB14
:1041E00094ED0E8AD4ED0F8A94ED10BAD4ED11BA85
:1041F00038EE280AB1EE4BAAF1EE6BAA30EE4B0A6C
:1042000030EE6B0A10EE100AFCF77BFA9FED2E9B46
:1042100053EC192BFCF74FF9FCF79EFA38EEC80A5D
:10422000206130EE0B0A30EE6B0A10EE100AFCF73C
:1042300068FA53EC192BFCF73EF9FCF78DFA606134
:104240001AEE900AFCF75DFA9FED21DB53EC1D2B73
:10425000FCF731F941EC1B0B1AEE100AFCF751FA8E
:1042600053EC1D2BFCF727F941EC1C0B18EE900AC0
:10427000FCF747FA53EC1D2BFCF71DF941EC1A0B28
:1042800018EE100AFCF73DFA9FED131B53EC112BAF
:10429000FCF711F953EC1A2BFCF707F953EC1C2B24
:1042A000FCF762F853EC1B2BFCF75EF853EC192B70
:1042B00000E004E0FCF7FFF8FCF74EFAA061BDEC6B
:1042C0000C8B10BDE44C0020B81E85EB51B87E3F2E
:1042D0001AD48C493FD111401AD48C493FD111C016
:1042E0002DED108B002004F077FF9FED5C8B9FED90
:1042F0005D9B9FED5EAB9FED5FBB9FED60CB9FED48
:1043000061DB9FED62EB9FED63FB00BFB0EE483ACF
:10431000F0EE683A9FED612B9FED621BB0EE490A0B
:10432000F0EE690A00F0F0F9B0EE483AF0EE683AC3
:10433000B0EE4A2AF0EE6A2AB0EE4B1AF0EE6B1A93
:10434000B0EE490AF0EE690A00F0DEF9B0EE483A44
:10435000F0EE683AB0EE4C2AF0EE6C2AB0EE4D1A50
:10436000F0EE6D1AB0EE490AF0EE690A00F0CCF9F1
:10437000B0EE483AF0EE683AB0EE4E2AF0EE6E2A11
:10438000B0EE4F1AF0EE6F1AB0EE490AF0EE690A7D
:1043900000F0BAF9B0EE483AF0EE683A9FED432BE0
:1043A0009FED441BB0EE490AF0EE690A00F0ACF94B
:1043B000B0EE483AF0EE683A9FED3C2B9FED3F1B84
:1043C000B0EE490AF0EE690A00F09EF9B0EE483A04
:1043D000F0EE683A9FED352B9FED361BB0EE490AA3
:1043E000F0EE690A00F090F9B0EE483AF0EE683A63
:1043F000B0EE4E2AF0EE6E2AB0EE4F1AF0EE6F1AC3
:10440000B0EE490AF0EE690A00F07EF9B0EE483AE3
:10441000F0EE683AB0EE4C2AF0EE6C2AB0EE4D1A8F
:10442000F0EE6D1AB0EE490AF0EE690A00F06CF990
:10443000B0EE483AF0EE683AB0EE4A2AF0EE6A2A58
:10444000B0EE4B1AF0EE6B1AB0EE490AF0EE690AC4
:1044500000F05AF90A2004F01BFB57E700000000A7
:1044600000006940000000000000000000000000A3
:1044700000005E4000000000000059400000000005
:104480000080514000000000008056400000000005
:1044900000004940000000000040604000000000B3
:1044A000008061400000000000E06040000000006B
:1044B00000003E400000000000A06440000000003A
:1044C00000806640FEE700002DE9F04120212DED3F
:1044D000028B88B06846FBF72FFF6D4F0026A7F5CB
:1044E000A8659FED6C8A00BF06EB860007EB800194
:1044F000087A032831D0C6EBC60000EB400805EB74
:10450000C8042046FCF7D8FB207A012802D084EDAD
:10451000038A1FE055F83800022810D0052802D081
:10452000062817D18FE004F1400000F08BFC94EDD9
:10453000190A04F1100184ED050A084602E004F1AD
:104540001000014601F07AFD084601F051FD00BF60
:1045500084ED030A761C082EC6DB0020DFED4E0A30
:10456000B3EE041A9FED4D0AF2EE041A4FEA0D0164
:1045700000EB800207EB8202127A012A69D0022A3C
:1045800075D001EB800282ED008A401C0828EFDB29
:104590009DED030ABDEEC00A10EE100A9DED020A61
:1045A00003B2BDEEC00A10EE100A9DED010A02B280
:1045B000BDEEC00A10EE100A9DED000A01B2BDEE7C
:1045C000C00A10EE100A00B200F01AFE9DED040AB7
:1045D000B5EEC00AF1EE10FA14D0DDED050AF5EEE5
:1045E000C00AF1EE10FA0DD0DDED060AF5EEC00AB4
:1045F000F1EE10FA06D0DDED070AF5EEC00AF1EE95
:1046000010FA1BD1DDED070ABDEEC00AFDEEE00A8F
:1046100010EE900ADDED060A03B2FDEEE00A10EEA0
:10462000900ADDED050A02B2FDEEE00A10EE900AF6
:1046300001B210EE100A00B200F016FE08B0BDEC98
:10464000028BBDE8F0812046FFF7CAF894ED1E0A00
:104650007EE7C0EBC00202EB420205EBC20292ED24
:10466000032A22EE202AC2EE012A0CE0FFE7C0EB6B
:10467000C00202EB420205EBC20292ED032A22EED7
:10468000002AC2EE212A01EB8002C2ED002A7CE75B
:10469000E44C0020000000000000804600401C4662
:1046A000C0EBC001154A01EB4101144B52F8312017
:1046B0009FED130A03EBC101052A02D0022A05D09F
:1046C0000AE0D1ED100AC1ED110A05E081ED050AFD
:1046D00081ED060A81ED070A81ED080A094B81ED9B
:1046E0000D0A00EB800081ED0E0A03EB800081EDE6
:1046F000030A0022C260012008727047A44700200C
:1047000000000000E44C002010B5204A2DED088B7D
:10471000A2F10801B0EE438AF0EE638AB0EE429A4D
:10472000F0EE629AB0EE41AAF0EE61AAB0EE40BAA5
:10473000F0EE60BAA1F10800FCF7C0FB1348B0EE40
:10474000484A5038F0EE684A90ED0A1B90ED080B8D
:10475000B0EE493AF0EE693AB0EE4A2AF0EE6A2A33
:104760000B48FFF779F8B0EE492AF0EE692AB0EE6F
:104770004A1AF0EE6A1AB0EE4B0AF0EE6B0ABDEC84
:10478000088BBDE8104000F0FBBD00008801002050
:1047900040500020FEE70000174870EEC00A19499B
:1047A00090ED000A90ED013A30EEC02AB6EE000A14
:1047B00080ED012A62EE002AC0ED000A0F4843EEA8
:1047C000002A20EE810AD0ED060A9FED0D1A02EEB6
:1047D000A10A70EE600A00EE810A10EE100A88420B
:1047E00002DDB2EE040A704710EE100A0649884254
:1047F000F9D9BAEE040A7047F0000020844D002079
:10480000CDCC4C3E00002041000020C126482DEDBB
:10481000028B82B000F16C03A0F16C02A0F1D80110
:104820000090A0F58C7000F00BF9214C9FED1F0A51
:104830009FED208A84ED000A84ED020A84ED040ACB
:1048400004F134051A491C4800F0C6F81B48FFF76C
:10485000ADFCFCF7C7FD164820EE080AD4EC020AAE
:10486000403004F08DF885ED000AFCF7C1FD0E48DC
:1048700020EE080A94ED031AD4ED020A6C3804F015
:104880007FF885ED010AD4ED040A94ED050AF7EEF0
:10489000001AB0EE001AFFF77FFF85ED020A05202F
:1048A00004F0F6F8CEE70000284F002000000000DA
:1048B000104E002000007A4448470020844D00201C
:1048C0001CB50949498841EA401081B207A0D0E9E6
:1048D0000020CDE900206A46064800F023F80520B4
:1048E00004F0D6F81CBD0000D00000200800000035
:1048F00000000000500600201CB508496A46C9891E
:1049000041EA401081B2002000900190044800F07C
:1049100009F8052004F0BCF81CBD0000D000002000
:104920005006002000B589B008AB02910391002128
:10493000049105910821069111788DF800105178A5
:104940008DF8011091788DF80210D1788DF8031050
:1049500011798DF8041051798DF8051091798DF841
:104960000610D1798DF807106A4602A9FCF798FD68
:1049700009B000BD1CB50A4BDB8843EA4010002398
:10498000009380B201938DF800108DF80420014649
:104990006A460448FFF7C6FF052004F079F81CBDFD
:1049A000D0000020500600201CB50949498941EA81
:1049B000401084B2002000900190FCF7CBFC00680E
:1049C00000906A4621460348FFF7ACFF1CBD00007B
:1049D000D00000205006002010B50C4600F024F84E
:1049E000B1EE400A84ED010A00F018F884ED030AE4
:1049F00000F020F884ED050A10BD0A780D2A0CD1CC
:104A00004A780A2A09D18A7E0A2A06D1CA7E0D2A44
:104A100003D11822891CFBF776BC7047014890ED42
:104A2000030A704748470020014890ED040A704788
:104A300048470020014890ED000A70474847002091
:104A40002DE9F0411E462DED0A8B17460446F0EE87
:104A5000005A9FED4D8AB0EE485A9FED4C9AF0EE09
:104A6000494ADFED4B9AF0EE483AB0EE483AB0EEE4
:104A7000694A9FED48AAB0EE492AF0EE4A2ADFEDD6
:104A800046AAF0EE6A1A9FED45BAB0EE4B1ADFED7A
:104A900044BAF0EE6B0A9FED43CA0846109DB0EE93
:104AA0004C0A03F019FFDFED408AB2EE045AF2EE31
:104AB0000E4AF0EE685AB2EE084AF0EE003AB7EE4F
:104AC000003AF3EE022AB2EE0E2AF0EE6A1AB0EEC7
:104AD0004B1AF0EE6B0AB0EE4C0A304603F0FCFEC7
:104AE000F0EE005AB0EE485AF0EE494AB0EE694A8C
:104AF000F0EE483AB0EE483AF0EE4A2AB0EE492AD3
:104B0000F0EE6A1AB0EE4B1AF0EE6B0AB0EE4C0AF9
:104B1000384603F0E1FEF6EE005AB0EE485AF0EEE9
:104B2000494AB0EE694AF0EE483AB0EE483AF0EE43
:104B30004A2AB0EE492AF0EE6A1AB0EE4B1AF0EEAD
:104B40006B0AB0EE4C0A284603F0C6FE0B2084F830
:104B50002300152084F8220084ED098A84ED0A8A56
:104B6000002084F8200084F82100C4ED0B8AC4EDF5
:104B70000C8A84ED008A84ED028A84ED048ABDECFF
:104B80000A8BBDE8F0810000000000008FC2753C78
:104B9000A69B443CBC74933C0000C8420000C8C2C1
:104BA00000007A4300007AC30000484270B56FF0FD
:104BB00009012DED028B422000F0DEFA6FF05E015C
:104BC000432000F0D9FA9FED278A0420B0EE480A6E
:104BD00000F07AFB4FF47A74204603F059FF9FED02
:104BE000220A0120FFF7E0FE204603F051FF9FED6F
:104BF0001F0A042000F068FB6510284603F048FFF8
:104C00002321422000F0B8FA4FF4967003F040FFE1
:104C1000B0EE480A042000F057FB9FED150A012072
:104C2000FFF7C2FE204603F033FF9FED120A042077
:104C300000F04AFB40F2DC5003F02AFF6FF00E0157
:104C4000422000F099FA284603F022FFB0EE480A0D
:104C5000042000F039FBBDEC028B2046BDE870401B
:104C600003F016BF000000001B2FDDBC000050C782
:104C70005396E13E0000B2C870B56FF009012DED0A
:104C8000028B422000F078FA6FF01001432000F010
:104C900073FA9FED278A0420B0EE480A00F014FB57
:104CA0004FF47A74204603F0F3FE9FED220A0120B0
:104CB000FFF77AFE204603F0EBFE9FED1F0A04206B
:104CC00000F002FB6510284603F0E2FE232142209B
:104CD00000F052FA4FF4967003F0DAFEB0EE480A94
:104CE000042000F0F1FA9FED150A0120FFF75CFEA9
:104CF000204603F0CDFE9FED120A042000F0E4FAF6
:104D000040F2DC5003F0C4FE6FF00E01422000F0D0
:104D100033FA284603F0BCFEB0EE480A042000F047
:104D2000D3FABDEC028B2046BDE8704003F0B0BE64
:104D3000000000001B2FDDBC000050C75396E13E71
:104D40000000B2C870B56FF009012DED028B422052
:104D500000F012FA4121432000F00EFA9FED278A5D
:104D60000420B0EE480A00F0AFFA4FF47A742046FF
:104D700003F08EFE9FED220A0120FFF715FE20466C
:104D800003F086FE9FED1F0A042000F09DFA6510D7
:104D9000284603F07DFE2321422000F0EDF94FF478
:104DA000967003F075FEB0EE480A042000F08CFA0D
:104DB0009FED150A0120FFF7F7FD204603F068FE7E
:104DC0009FED120A042000F07FFA40F2DC5003F05D
:104DD0005FFE6FF00E01422000F0CEF9284603F08E
:104DE00057FEB0EE480A042000F06EFABDEC028BCC
:104DF0002046BDE8704003F04BBE000000000000FC
:104E00001B2FDDBC000050C75396E13E0000B2C826
:104E10000B490A4A91F9030052F82020401CC8703F
:104E2000012A05D0022A05D0032A05D1FFF78ABF3F
:104E3000FFF7BCBEFFF720BF704700000050002006
:104E4000F800002010B504462DED048BF7EE008A23
:104E500090ED010AD0ED000A30EE600A80ED020A02
:104E6000D0ED070A90ED081AB5EEC00A20EE208AB0
:104E7000D0ED030A80ED030A70EE600A01EE208A8D
:104E8000F1EE10FA01D2FFEE008AD4ED050A9FED93
:104E90001B1A60EE810A60EEA80A20EE800A10EE6E
:104EA000100AFBF72EFC41EC100B02F06DFDB0EE8A
:104EB000409AF0EE609A18EE900AFBF722FC53EC51
:104EC000192BFBF7F8FAFBF747FC00EE100AB0EEDF
:104ED000C81AF0EEC00AF4EEC10AF1EE10FA01D2DF
:104EE000B0EE408AD4ED040AB0EE480AFFF7CEF8DF
:104EF00084ED090ABDEC048B10BD00003333B33FD1
:104F00000949002001F1120448840849064800F0CC
:104F100067F82146044800F029F8204600F008F818
:104F2000032003F0B5FDF0E7EC4D0020B44600206F
:104F300000B5024600780023012802D10A494880C2
:104F400013705078012800D153709078012802D155
:104F500000F03EF89370107A012800D11372507A55
:104F6000012800D1537200BD1850002010B50478FC
:104F700001220023012C12D00B714478012C14D093
:104F80004B71C478012C16D08B718078E0B1887A8F
:104F9000B8B1C87A002801D1CA724A7210BD0C7922
:104FA000002CEAD10A710A70E7E74C79002CE8D1AD
:104FB0004A714A70E5E78C79002CE6D18A718A70D3
:104FC000E3E78A720A7210BD8B72CB7210BD0000CB
:104FD00002480188491C01807047000018500020D9
:104FE0002DE9F04FC87D0C2803D0087808B10122C4
:104FF00000E000225E488277EAB3B1F80120C2F3F4
:105000000A045C4A14808B78CD78DB0843EA4513A8
:10501000C3F30A035380CD780E79AD0945EA8605BE
:105020004E7945EA8625C5F30A0797804D798E7932
:105030006D0845EAC615C5F30A08A2F806808D7901
:10504000CE792D0945EA0615C5F30A051581AB464B
:10505000CD790E7AED0945EA46054E7AC14645EA14
:105060004625C5F30A055581AA464D7A8E7AAD08C4
:1050700045EA861500E020E0C5F30A0696818D7AA0
:1050800091F80BC06D0945EACC05D581B1F80CC08B
:10509000CCF30A0CA2F810C091F80D80897B4FEA7E
:1050A000D80848EA4111C1F30A01A9F2F738518240
:1050B000B8F1130F08D2002208E000210181C1805D
:1050C00081814181BDE8F08FA9F580620281A7F25C
:1050D000A6625242132A01D2002202E0A7F29D6783
:1050E0007A42C280A4F2F732132A01D2002401E0EE
:1050F000A4F58064A3F2F7328481132A01D200233D
:1051000001E0A3F580634FF47A724381934501DD9A
:10511000012300E0002340F2E2440370A24501DDD8
:10512000012300E000234370BCF5FA7F09DD40F263
:10513000E733ACF2F51C9C4501D2012302E00223C7
:1051400000E000238370914201DD012100E0002195
:10515000C170A6F5997240F26D518A4200D30026C3
:10516000A5F59972C6818A4200D300250582A9E778
:10517000EC4D00203447002000EE101A00B5024626
:105180009FED0F2ADFED0F1A9FED0F1ADFED0F0ACB
:10519000B8EEC00AFEF742FD412A07D0422A08D0E5
:1051A000432A0AD0442A07D1094904E008490C31AE
:1051B00001E007490831086000BD0549091DFAE70B
:1051C00000007A43000048420000B4420000B4C22C
:1051D000340C004010B500210848FDF7F7FD04210C
:1051E0000648FDF7F3FD08210448FDF7EFFDBDE893
:1051F00010400C210148FDF7E9BD000078060020B1
:1052000030B5174C89B025686D1C25604FF40075CA
:105210000295039500250495059508250695050A30
:105220008DF800508DF80100080A8DF80200100A70
:105230008DF804008DF80520180A8DF806008DF809
:1052400003108DF8073008AB6A4602A90548FCF741
:1052500027F9002802D0A068401CA06009B030BD2A
:10526000C40000205006002030B5154C89B02568D8
:105270006D1C256040F2FF140294039400240494F2
:10528000059408240694040A8DF800408DF8010066
:10529000080A8DF80200100A8DF804008DF8052028
:1052A000180A8DF806008DF803108DF8073008AB4A
:1052B0006A4602A90348FCF7F3F809B030BD0000C4
:1052C000C400002050060020C0EBC000034900EBE2
:1052D000400001EBC00080ED110A7047A447002098
:1052E00000EB80020C49C0EBC00001EB82010B4ACD
:1052F000097A00EB400002EBC000022909D0012925
:1053000006D1DFED070A00BF20EE200A80ED050A76
:105310007047DFED040AF7E7E44C0020A4470020C3
:10532000420626404F499D4010B52DED068BB0EE4C
:10533000419AF0EE619AB0EE428AF0EE628AB0EEE7
:1053400040AAF0EE60AA51EC190BFBF7A2F9014656
:105350004120FFF711FF51EC180BFBF79AF90146BA
:105360004220FFF709FF054880ED02AB80ED049B6A
:1053700080ED068BBDEC068B10BD000038010020CF
:1053800010B5104A2DED048BA2F10801B0EE428A4F
:10539000F0EE628AB0EE419AF0EE619AA1F1080057
:1053A000FBF78CFD074C503C04F1400090EC060BE1
:1053B000FFF7BAFF84ED089B84ED0A8BBDEC048BEC
:1053C00010BD000088010020054C4FF4FA75022141
:1053D0002046FCF7F5FE284603F05AFBF7E70000ED
:1053E0000018024010B5502080F31188BFF34F8F92
:1053F000BFF36F8F04F084F818B104494FF0805068
:105400000860002080F3118810BD000004ED00E06A
:1054100030B593B030216846FAF78EFF14210CA8FE
:10542000FAF78AFF1D480025016841F080510160AC
:10543000006800F0805011901948016841F4404123
:1054400001600068022400F44040119001200090A7
:10545000000401908001CDE9064006200890A820B4
:10546000CDE9090404200B906846FDF781F808B1E6
:1054700072B6FEE70CA90F2081E831004FF4A0506E
:105480000F904FF48050109005210CA8FCF764FF9A
:10549000002801D072B6FEE713B030BD403802409C
:1054A000007000400248016841F4700101607047DB
:1054B00088ED00E00148FDF7CABA00007C09002031
:1054C000F0B50268254C264D264E274F274B4FF04E
:1054D000804CA04209D0604507D0A84205D0B04218
:1054E00003D0B84201D0984204D122F0700E4A682D
:1054F00042EA0E02A0421BD0604519D0A84217D044
:10550000B04215D0B84213D0984211D0184DA842DD
:105510000ED0184DA8420BD0174DA84208D0174DF9
:10552000A84205D0164DA84202D0164DA84203D17C
:1055300022F44075CA682A434D6922F080022A434A
:1055400002608A68C2620A688262A04201D0984200
:1055500001D10969016301214161F0BD00000140F1
:105560000004004000080040000C0040000401401E
:105570000040014000440140004801400018004044
:10558000001C00400020004010B501F01F03012165
:10559000046A99408C430462016A9A401143016293
:1055A00010BD0000F0B5026A22F001020262036A37
:1055B00042688469124E24F073050C682C4323F072
:1055C00002058B682B430D4DA84201D0B04205D196
:1055D00023F00807CB683B4323F00403A84201D023
:1055E000B04205D14D6922F4407215438A692A43BD
:1055F00042608461496841630362F0BD000001407C
:1056000000040140F0B5026A22F010020262026A50
:10561000436884690D6824F4E64444EA05248D68EF
:1056200022F0200242EA05120F4D104EA84201D08E
:10563000B04206D1CF6822F0800242EA071222F07F
:105640004002A84201D0B04207D14D6923F4406323
:1056500043EA85038D6943EA8503436084614968B1
:1056600081630262F0BD00000000014000040140BF
:10567000F0B5026A22F480720262026A4368C46969
:1056800022F4007224F073050C68124E2C438D68CE
:1056900042EA05220E4DA84201D0B04206D1CF68A1
:1056A00022F4006242EA072222F48062A84201D07A
:1056B000B04207D14D6923F4405343EA05138D6985
:1056C00043EA05134360C4614968C1630262F0BDE7
:1056D000000001400004014030B5026A22F480520B
:1056E0000262046A4268C3690D6823F4E64343EA30
:1056F00005238D6824F4005444EA0534084DA8427B
:1057000002D0084DA84204D14D6922F4804242EAF9
:1057100085124260C36149680164046230BD0000C3
:1057200000000140000401402DED048B0122D94905
:10573000D948FDF75BFEFFF74DFD40F6B83003F0AA
:10574000A7F90120FFF7D8F8052203210120FFF770
:1057500011F90120FFF7B4F8DFEDD09A0120B0EE87
:10576000690AFFF721F900214320FFF705FD002119
:105770004220FFF701FDCA4D00202880FBF74AFABE
:10578000012068809FEDC70A0020FDF75FFFC64C2F
:10579000B7EE000A4FF00A0884ED090A84ED0A0A00
:1057A000DFEDC28A9FEDC29A9FEDC28AB94E0A3ED2
:1057B000632728880F286ED00BDC0F282CD2DFE857
:1057C00000F02B1F2C6B752B2B2B2B2BAAD8E3FE59
:1057D000FD00152820D008DCA0F110010529EDD22C
:1057E000DFE801F0EDEC59EDEE0047287ED002DC59
:1057F000412811D10EE05B2879D05C28F9D143E132
:10580000032068809FEDAC0A84ED000A9FEDAB0A8F
:1058100084ED020AFBF7AEFD30E1DFF8A492DFF879
:10582000A4A2D9F8000000EB4001C1EBC011DAF8E6
:10583000000000EBC10000EE100A0020B8EEC00A24
:10584000FDF704FF6423D9F80000954990FBF3F2BB
:1058500018390A6090FBF3F203FB120C42469CFBE2
:10586000F2FCC1F804C090FBF2FC08FB1C0088604D
:10587000DAF8000090FBF3FCC1F80CC090FBF3FCDD
:1058800003FB1C0393FBF2F30B6190FBF8F308FBA3
:1058900013004861E7E0BFE09FED8B0A8B4984ED80
:1058A000020AE068884235DC0420D8E09FED880ACF
:1058B00084ED000A9FED870A84ED020A9FED860AB7
:1058C000012084ED040AB0EE680AFFF76DF894ED4C
:1058D000010AD4ED000A30EE600AD4ED090AB0EEF8
:1058E000C00AB4EEE00AF1EE10FA01E0BEE0C0E05A
:1058F00010D294ED030AD4ED020A30EE600AD4ED22
:105900000A0AB0EEC00AB4EEE00AF1EE10FA01D2D3
:10591000A5F80080B2E09FED710A84ED000A9FEDCA
:10592000700A012084ED020A84ED049AB0EE690A3F
:10593000FFF73AF894ED010AD4ED000A30EE600A60
:10594000D4ED090AB0EEC00AB4EEE00AF1EE10FAA6
:105950000ED294ED030AD4ED020A30EE600AD4EDC3
:105960000A0AB0EEC00AB4EEE00AF1EE10FA7AD3F9
:1059700084E003225B495C48FDF7E3FDB0EE680A72
:105980000120FFF711F86EE09FED580A84ED000A40
:10599000DFED570AC4ED020A84ED049A94ED011A72
:1059A00031EE400A94ED091AB0EEC00AB4EEC10A15
:1059B000F1EE10FA62D294ED030A02E023E011E066
:1059C0004FE030EE600AD4ED0A0AB0EEC00AB4EE41
:1059D000E00AF1EE10FA51D294ED050A0D2086EDA1
:1059E000080A3CE0D6ED040A96ED050AFDEEE00A51
:1059F00010EE901AD6ED030AFDEEE00A10EE900AC2
:105A000000F06EFB3AE0FFF703FA94ED030A30EE84
:105A1000080A84ED020A26E094ED010AD4ED000A9A
:105A200030EE600AD4ED090AB0EEC00AB4EEE00A26
:105A3000F1EE10FA22D294ED030AD4ED020A30EE10
:105A4000600AD4ED0A0AB0EEC00AB4EEE00AF1EE44
:105A500010FA13D294ED050A86ED080A04E02880B6
:105A60000CE0FFF7D5F92888401CF8E7FFF79EF80F
:105A700003E01C490322C91C08E02F80FDF782FDCA
:105A8000322003F005F894E6164903221648FDF784
:105A900058FDF2E70201002008070020EE7C3F3E9F
:105AA00018500020A0C22249104E00205396E13E1B
:105AB00000000000000016430080094400005C4321
:105AC000B0000020B40000200000F0420000FA42C4
:105AD0000000B444000048430000B4C20040E74462
