:020000040800F2
:10000000E853002081020008B5380008F12F0008ED
:1000100071360008410A0008B946000800000000D7
:10002000000000000000000000000000C101000806
:100030008D0D0008000000001D020008114000089E
:100040009B0200089B0200089B0200089B0200081C
:100050009B0200089B0200089B0200089B0200080C
:100060009B0200089B0200089B0200089B020008FC
:100070009B0200089B0200089B0200089B020008EC
:100080009B020008D10C00089B020008510A0008DE
:10009000450A00089B0200089B0200089B0200081A
:1000A0009B020008E14000089B0200089B02000838
:1000B0009B0200089B0200089B0200089B020008AC
:1000C0009B0200089B0200089B0200089B0200089C
:1000D0009B020008894600089B0200089B0200085A
:1000E0009B0200089B0200089B0200089B0200087C
:1000F0009B0200089B0200089B0200089B0200086C
:100100009B0200089B0200089B0200089B0200085B
:100110009B0200089B0200089B0200089B0200084B
:100120009B0200089B020008DD0C00089B020008EF
:100130009B0200089B0200089B0200089B0200082B
:100140009B0200089B0200089B0200089B0200081B
:100150009B0200089B0200089B020008A1460008C1
:100160009B0200089B0200089B0200089B020008FB
:100170009B0200089B0200089B0200080000000090
:100180009B0200089B0200089B02000891430008A4
:100190009B0200089B0200089B0200089B020008CB
:1001A00000000000000000009B020008DFF80CD0F7
:1001B00000F0E0FB00480047855A0008E8530020A3
:1001C0002C4B19680868B0E8F04F80F30988BFF33A
:1001D0006F8F4FF0000080F311887047000000001F
:1001E00008480068006880F308884FF0000080F33A
:1001F000148862B661B6BFF34F8FBFF36F8F00DF15
:1002000000BF00BF08ED00E0DFF80C00016841F41A
:1002100070010160704700BF88ED00E0EFF30980D6
:10022000BFF36F8F134B1A681EF0100F08BF20ED3D
:10023000108A20E9F04F106009B44FF0500080F3AD
:100240001188BFF34F8FBFF36F8F05F0F5FF4FF0AD
:10025000000080F3118809BC19680868B0E8F04F05
:100260001EF0100F08BFB0EC108A80F30988BFF3AE
:100270006F8F704728000020EFF305807047000063
:100280000648804706480047FEE7FEE7FEE7FEE730
:10029000FEE7FEE7FEE7FEE7FEE7FEE7D1400008E7
:1002A000AD0100082DE9F05F0546002092469B460F
:1002B00088460646814640241BE02846414647467C
:1002C000224600F038FA53465A46C01A914110D3DC
:1002D00011461846224600F01FFA2D1A67EB010856
:1002E0004F4622460120002100F016FA17EB0009C4
:1002F0004E41201EA4F10104DFDC484631462A4667
:100300004346BDE8F09F40EA01039B0703D009E0A4
:1003100008C9121F08C0042AFAD203E011F8013BF1
:1003200000F8013B521EF9D27047D2B201E000F84A
:10033000012B491EFBD270470022F6E710B5134689
:100340000A4604461946FFF7F0FF204610BD2DE986
:10035000FE4F804681EA0300C00F0C46009021F05A
:10036000004123F00045B8EB0200A94105D2404608
:10037000214690461C460B46024623F0004010439F
:1003800047D0270DC7F30A00C3F30A510290401A61
:10039000019040286BDAC3F3130040F4801B0098EF
:1003A000924620B10023D2EB030A63EB0B0B0198BA
:1003B0005946C0F14002504600F0AEF906460D46DF
:1003C00050465946019A00F0C6F910EB0800614109
:1003D000002487EA115284EAE7731A4340D0009A56
:1003E00062B3019A012A4FEA075215DC001B61EB48
:1003F00002014FF0004202EA0752CDE90042001C20
:1004000041F5801132462B4600F0FDF903B0BDE8FE
:10041000F08F40462146F9E7001B61EB0201001C0A
:1004200041F5801300185B412018A2F5001747EB37
:10043000030140EAD570B6196D4111E06D084FEA2D
:10044000360645EAC0754FEA0752001B61EB020110
:10045000001C41F5801149084FEA30000019514154
:1004600032462B4603B0BDE8F04F00F0BDB900980E
:10047000012240000023D0EB020263EBE0730098FE
:1004800021464FEAE074B8EB000061EB0401E9E7B4
:1004900083F000435BE781F0004158E72DE9FE4F10
:1004A00081EA030404F0004421F0004100944FF07D
:1004B000000B23F0004350EA01045ED052EA03042B
:1004C0005BD0C3F30A54C1F30A552C44A4F2F334AD
:1004D0000194A0FB0254C1F3130141F48011C3F352
:1004E000130343F4801301FB024400FB034E840A10
:1004F000970A44EA815447EA8357A4FB07680295A8
:100500008D0A05FB07854FEA932C04FB0C54270545
:10051000029D4FEA065847EA1637B5EB08056EEB21
:10052000070C870E920E47EA811742EA8312A7FB57
:100530000201B6EB0B0164EB00042B0D43EA0C3314
:100540005E1844EB1C50DA465146E7FB0201C5F346
:1005500013044FEA0B3343EA14534FEA0432019C6D
:1005600043EA0603A4F10C040294009CCDE900B414
:1005700000F049F903B0BDE8F08F00200146F9E72B
:100580002DE9F04D81EA030404F0004B21F0004511
:1005900014464FF0000A23F0004150EA050220D033
:1005A00054EA01021DD0C5F30A570246C5F31303EE
:1005B000C1F31300C1F30A5640F4801543F48013CD
:1005C000A7EB0608101BD64608F2FD3873EB0500B2
:1005D00002D308F1010801E092185B41B8F1000F65
:1005E00003DA00200146BDE8F08D00204FF48011B1
:1005F000064684460EE0171B73EB050705D3121B56
:1006000063EB050306434CEA010C49084FEA30004E
:1006100092185B4150EA0107EDD152EA030012D073
:1006200082EA040083EA0501084305D0101BAB41B0
:1006300006D20122002306E000224FF0004302E030
:100640006FF0010253101AEB06004CEB085110EB4F
:100650000A0041EB0B01BDE8F04D00F0C5B800F019
:10066000004230F000400AD0C10D01F56071C0F3C6
:10067000160042EA0151C2084007114370470020AA
:100680000146704730B5041E71F1000404DB4FF0E1
:100690000044404264EB0101141E73F1000405DBC9
:1006A0001C464FF00043524263EB0403994208BFDB
:1006B000904230BD01F0004330B421F0004150EAD7
:1006C000010206D00A0DA2F56072C1F31301002ADF
:1006D00002DC30BC00207047440F44EAC104C10072
:1006E000E01830BC00EBC25000F047B830B50B4604
:1006F000014600202022012409E021FA02F59D4252
:1007000005D303FA02F5491B04FA02F52844151E25
:10071000A2F10102F1DC30BD202A04DB203A00FA0C
:1007200002F1002070479140C2F1200320FA03F348
:10073000194390407047202A04DB203A21FA02F046
:100740000021704721FA02F3D040C2F1200291400B
:10075000084319467047202A06DBCB17203A41FA96
:1007600002F043EAE07306E041FA02F3D040C2F13E
:10077000200291400843194670470029A8BF7047DE
:10078000401C490008BF20F00100704710B4B0FAC7
:1007900080FC00FA0CF050EA010404BF10BC704762
:1007A00049B1CCF1200421FA04F411FA0CF118BF7C
:1007B000012121430843A3EB0C01CB1D4FEA00614B
:1007C0004FEA102042BF002010BC704700EBC3501E
:1007D00010440029A4BF10BC7047401C490008BF4A
:1007E00020F0010010BC704710B5141E73F1000416
:1007F00008DA401C41F1000192185B411A4301D113
:1008000020F0010010BD2DE9F04D92469B4611B13C
:10081000B1FA81F202E0B0FA80F220329046FFF79E
:100820007BFF04460F4640EA0A0041EA0B015346AB
:100830005A46084313D0114653EA010019D0C8F1B3
:1008400040025046FFF777FF05460E465046594690
:100850004246FFF761FF084305D0012004E020462F
:100860003946BDE8F08D0020054346EAE0762C438A
:1008700037430A986305E40AA0EB08000022FD0A4A
:1008800044EA47540A3002D500200146E9E7010551
:1008900010196941DDE9084500196941BDE8F04DCD
:1008A000A2E72DE9F04D00231A461B1A8A4103DB0B
:1008B00000200146BDE8F08DC1F30A52C1F31301D7
:1008C00041F480154FF0000BD10702D100186D41A3
:1008D000521E0027044640F2FF11384601EB620A1F
:1008E0003E468046024600204FF48011FFF723FF6A
:1008F000C2197141BB1846EB0100B4EB030C75EB58
:10090000000C04D3E41A65EB000517460E462419C3
:1009100008F101006D4180463428E3DDF91946EB0A
:100920000600091BA84103D24FF0FF32134601E035
:10093000002213461BEB070046EB0A51BDE8F04DC1
:10094000FFF752BFC1F30A52C1F3130140F2FF3364
:1009500041F480119A4202DA00200146704740F2C9
:1009600033439A42A2F2334202DC5242FFF7E3BE23
:10097000FFF7D2BE064C074D06E0E06840F00103E9
:1009800094E8070098471034AC42F6D3FFF712FC06
:10099000606B0008806B000870B58C1810F8015B64
:1009A00015F0070301D110F8013B2A1106D110F808
:1009B000012B03E010F8016B01F8016B5B1EF9D10C
:1009C0002B0705D40023521E0DD401F8013BFAE792
:1009D00010F8013BCB1A921C03E013F8015B01F8FD
:1009E000015B521EF9D5A142D8D3002070BD000092
:1009F00070B588B0202210496846FFF784FC0820B3
:100A000000246D4600EBD0760DE000BF35F83400D1
:100A1000C82180B204F03EFE05EBC40040688000AF
:100A200005F060F8641CB4EB660FEFDB03490020AF
:100A3000086008B070BD0000F0660008341800407F
:100A4000FEE70000014800F0FABB00006805002046
:100A5000014800F0F4BB00006805002000B58BB031
:100A600000200121CDE9060108910090019002903B
:100A70000390059004906946054800F0E5FA0448A3
:100A800000F008FE0221024800F068FA0BB000BD39
:100A90006805002010B5D1E900329A1A4B60D0F8F1
:100AA000943003EBD374B2EB640F00DDD21A641000
:100AB0006442944200DD1A4400EE102AD0ED100A80
:100AC000B8EEC00A30EE800ADFED060A80ED100AAB
:100AD00091ED030AB8EEC00A20EE200A80ED040A68
:100AE00010BD000063CF0B3E0C480121C0F8A410DC
:100AF0000221C0F84C110321C0F8F4110421C0F800
:100B00009C120521C0F844130621C0F8EC130721FC
:100B1000C0F894140821C0F83C157047884500209F
:100B200052492DED028B9FED528A5248B0EE480A91
:100B300004F0F6FD4D494F48091DB0EE480A10304B
:100B400004F0EEFDDFF830814C4D4D4E9FED4D8AA7
:100B5000484C483CB8F80200012803D003283FD095
:100B6000E8B351E04848B0F90C10494200EE101AC1
:100B7000B8EEC01ADFED450A454F81EE200A87ED39
:100B8000000AB0F90E10494201EE101AB8EEC11A6F
:100B9000C1EE201AB3EE0C1AC7ED011AB0F90A0023
:100BA000404200EE900A3348F8EEE00AC0EE811AA7
:100BB000C7ED021A04F09FFD2E4897ED010A103090
:100BC00004F099FD2B4890ED010A103084ED000AE5
:100BD00090ED010A84ED010A97ED020A0BE00DE0A9
:100BE0002C4890ED000A84ED000A90ED010A84ED96
:100BF000010A90ED020A84ED020A05E084ED008A04
:100C000084ED018A84ED028A2068A84203DAB042AA
:100C100001D284ED008A6068A84203DAB04201D2B2
:100C200084ED018A1348483800F058F911484838D3
:100C300002F006FC94ED0A0A002003F0B7F994EDE7
:100C40000B0A012003F0B2F994ED0C0A0220B1EE78
:100C5000400A03F0ABF994ED0D0A0320B1EE400A0F
:100C600003F0A4F9052004F03DFF73E7E86A0008EB
:100C70000AD7233CB04B0020B80000200AD7233C01
:100C80000AD723BC00000000D04B002000004843DE
:100C9000A0000020304C0020FFF726FF0222114662
:100CA000002000F075F802221146012000F070F8D3
:100CB00002221146104600F06BF802221146032072
:100CC00000F066F802F0D6FC012004F00BFFF9E713
:100CD000014800F06DBD0000EC060020014800F066
:100CE00067BD00004C07002001681823CAB2103A03
:100CF000B2FBF3F2054B6FF30901032A9B5CC3655A
:100D000000D9091D8165084670470000A0660008EB
:100D100010B5014600208B698A6A4FF0C07453B148
:100D2000B3F5005F15D072B1012A0CD0022A0AD0A7
:100D3000032A09D104E01AB1012A06D0022A03D1FC
:100D4000C96AC90100D5012010BDC96AA142FAD003
:100D500010BD002AF7D0012AF2D0022AF3D0032ACC
:100D6000F3D010BD30B50468256825F480252560D2
:100D7000046863608368402B036803D0996000684F
:100D8000C26030BD9A600068C16030BD704700002D
:100D90002DE9F041C0EBC0033A4D03EB4306174683
:100DA00005EBC604012222725203C4F894209FED81
:100DB000361A00EB800305F5A86202EB830884ED88
:100DC000101A88F8081002F041FD98F80800DFEDCD
:100DD0002F1A9FED2F0ADFED2F0A01282CD00228B1
:100DE00028D145F836709FED2C2ADFED2C2A84EDB2
:100DF0000B2AC4ED0C2AF1EE082AC4ED0F2ADFED10
:100E0000282AC4ED072A84ED182A9FED262A84EDAE
:100E1000172AC4ED1B1A84ED090A84ED0A0A84ED31
:100E2000051A84ED150A9FED200A00BF84ED140A0F
:100E3000C4ED1A0ABDE8F0819FED1C2A45F8367012
:100E400084ED0B2A9FED1A2A84ED0C2AB3EE042AB6
:100E500084ED0F2A9FED172A84ED072A9FED162AAD
:100E600084ED181A84ED172AC4ED1B1A84ED090AC3
:100E700084ED0A0A84ED051A84ED150A9FED0F0A28
:100E8000D4E700008845002000000000CDCC4C3F96
:100E900000007A44000020C3CDCC4C3DA69B443BCF
:100EA000000016451B2FDD3C0000E143CDCCCC3DBE
:100EB0006F12833A0000A044AE47E13D0000484273
:100EC00072B6FEE7014890ED040A7047684B0020B7
:100ED000014890ED050A7047684B002010B50446A4
:100EE0002DED068B90ED00AAD0ED019A02F0A8FD41
:100EF0009FED188ADFED188A84ED030AC0EE080A18
:100F000020EEA80A03F0ECFCD4ED030A20EE0A9AC6
:100F100080EE880A20EE280A03F08AFDD4ED030A49
:100F200009EEC09A80EE880A20EE280A03F0D8FC69
:100F300060EE299A94ED030AC0EE080A20EEA80A92
:100F400003F076FD4AEE009A84EC029ABDEC068B23
:100F500010BD000000003443DB0F49C090F8202092
:100F6000012A07D0022A05D0416A41F4802141625A
:100F700001207047006842690A43426100207047BF
:100F8000F0B590F820500468A468012D05D0022D1A
:100F900003D0416A41F4802153E014F0406F01D145
:100FA000E5004BD5C4F30164022C03D9416A41F436
:100FB000000146E00125A5401D608D684FF4C07317
:100FC0009DB1CE6835434E6845EAC605066803EB19
:100FD0000417F5514FF4C275076805EB04150E6947
:100FE0007E51097D012905D009E00E88CD6845EACA
:100FF0004655EBE701684E5946F480764E5111791B
:10100000D2F805504FF4C67641EA0525016806EB93
:1010100004168D511178D2F801204FF4C47541EABD
:101020000221026805EB04155151006803EB04111D
:10103000425842F0010242500020F0BD416A41F4A2
:10104000001141620120F0BD10B590F82020012A66
:1010500007D0022A05D0416A41F480214162012073
:1010600010BD3B48D0F8002242F00102C0F8002237
:10107000D0F8002222F47C52C0F80022D0F80022DE
:101080004B6A42EA0322C0F800220A7D02F01F03E5
:1010900001229A40D0F81C329343C0F81C32CB692D
:1010A000B3B9D0F80C329343C0F80C328C894B683A
:1010B00064F31F434C6900EBC404C4F840320C894C
:1010C0000B6864F31F434C6900EBC404C4F844325A
:1010D000CB69012B16D1D0F80C321343C0F80C3277
:1010E0000C884B6864F31F434C6900EBC404C4F8DC
:1010F00040320C89CB6864F31F434C6900EBC40495
:10110000C4F844328B69002BD0F804320ED013435C
:10111000C0F804320B69002BD0F8143208D0134306
:10112000C0F81432096A012904D008E09343EFE7BC
:101130009343F5E7D0F81C121143C0F81C12D0F805
:10114000001221F00101C0F80012002010BD0000C3
:1011500000640040704730B590F82040012C05D065
:10116000022C03D0416A41F480215DE0046800292B
:1011700055D02469A40754D04FF4D874056804EB03
:1011800001142D5915F00405956005682D594ED0B0
:10119000ED08556005682C5904F00204D4604FF442
:1011A000DA74056804EB01142D5905F00F0515617B
:1011B00005682D59C5F30725956105682C59240C40
:1011C00054614FF4DC72046802EB0112A4581C70E5
:1011D0000468A458240A5C700468A458240C9C7009
:1011E0000468A258120EDA704FF4DE72046802EB43
:1011F0000112A4581C710468A458240A5C71046884
:10120000A458240C9C710468A258120EDA7100686C
:1012100081B1016941F020010161002030BDE46825
:10122000A8E7416A41F400114162012030BD6D0D13
:101230001560AFE7C16841F02001C160EDE72DE91D
:10124000F05F0546006800244669D0F8049087687E
:10125000D0F80CB0D0F810A0D0F81880F10748D022
:10126000F90714D001218160B80703D5284600F0A2
:101270003EFA0CE0780702D54FF4006407E0380727
:1012800002D54FF4805402E0284600F02FFAF8050A
:1012900016D529684FF480708860B80503D52846B4
:1012A00000F027FA0CE0780502D544F4005407E07A
:1012B000380502D544F4804402E0284600F018FACC
:1012C000F80316D529684FF480308860B80303D539
:1012D000284600F010FA0CE0780302D544F40044EC
:1012E00007E0380302D544F4803402E0284600F0D9
:1012F00001FA300707D55FEACB6004D529681020D2
:1013000044F40074C86070074FF0080707D55FEA1F
:101310000B7004D52868C760284600F05FF9B00755
:1013200006D52868C068800702D0284600F058F922
:10133000700607D55FEACA6004D52968102044F416
:1013400080640861B00607D55FEA0A7004D5286892
:101350000761284600F09AF9F00606D5286800696A
:10136000800702D0284600F092F9B00308D55FEA62
:10137000C96005D5296810204860284600F088F922
:10138000F00307D55FEA097004D52868476028464E
:1013900000F0B2F9300446D55FEA497040D5F00557
:1013A00004D55FEAC87001D044F00104B00504D54B
:1013B0005FEA887001D544F00204700504D55FEA45
:1013C000487001D544F00404300529D518F0700F99
:1013D00026D008F07000402815D006DC102809D06F
:1013E00020280AD0302816D10AE050280ED06028D4
:1013F00011D10EE044F008040DE044F010040AE0BE
:1014000044F0200407E044F0400404E044F0800489
:1014100001E044F480742868816921F070018161E1
:10142000296804204860002C05D0686A204368625F
:101430002846FFF78FFEBDE8F09F70B5040003D08B
:1014400094F8200010B104E0012070BD204600F0A7
:1014500081F82068016841F00101016000F02EFC74
:101460000546052604E000F029FC401B0A2811D897
:1014700020684068C007F6D02068016821F00201AA
:10148000016000F01BFC05460BE000F017FC401B60
:101490000A2806D9606A40F40030606284F820604F
:1014A000D2E7206840688007EFD4207E01282068BA
:1014B00001683DD021F080010160607E0128206834
:1014C000016838D021F040010160A07E0128206829
:1014D000016833D021F020010160E07E01282068FE
:1014E00001682ED041F010010160207F01282068A2
:1014F000016829D021F008010160607F012820687F
:10150000016824D021F004010160D4E902010843FC
:10151000D4E90412114308436168491E0843216855
:10152000C86100206062012084F82000002070BDA6
:1015300041F08001C0E741F04001C5E741F02001E2
:10154000CAE721F01001CFE741F00801D4E741F0EC
:101550000401D9E710B586B0044614216846FEF7A9
:10156000EBFE1B49206888422FD11A4800210268EF
:1015700042F000720260006800F0007005901548AB
:101580001038026842F0080202600068022200F08F
:10159000080005900320CDE90210CDE900020920E2
:1015A000049069460C4800F061FA002205211320DE
:1015B00000F010FC132000F0FFFB00220521142096
:1015C00000F008FC142000F0F7FB06B010BD00008E
:1015D0000064004040380240000C024070470000A8
:1015E000274910B54A68274B521C4A60A3F11C02D8
:1015F0000021FFF7B0FD23491C390868A0F50072EF
:10160000013A19D0A0F50072023A15D0A0F5007287
:10161000033A11D0B0F5017F0ED0A0F50072053A63
:101620000AD0A0F50072063A06D0A0F50072073A7B
:1016300002D0B0F5027F22D14A7F0B7F401EC0B29C
:1016400002EB032200EB80030F4840F8232000EB5D
:10165000830090F91330322B03DA4260C27C521CB3
:10166000C274CA7F11F81E3F1B0202FA83F2C260E5
:10167000CA788B7802EB032202820979817410BD4B
:101680009400002080450020C84A00207047704721
:101690007047000070B5044690F82000012804D07F
:1016A000606A40F40020606218E0022084F82000A4
:1016B0002068016821F00101016000F0FFFA054691
:1016C0000EE000BF00F0FAFA401B0A2808D9606A51
:1016D00040F400306062052084F82000012070BDD5
:1016E00020684068C007EDD1606270BD70477047E8
:1016F000704770477047704770472DE9F0410446C6
:10170000876D00F0DBFA064694F8350000250228C4
:1017100006D08020606584F834500120BDE8F08157
:101720002068016821F0160101602068416921F0FC
:1017300080014161206C08B9A06C20B1206801686B
:1017400021F0080101602068016821F001010160B9
:101750000CE000F0B3FA801B052807D92020606553
:10176000032084F8350084F83450D7E720680068F7
:10177000C007EED194F85C103F208840B86001208B
:1017800084F8350084F834500020C7E790F835100D
:10179000022903D08021416501207047052180F88E
:1017A00035100068016821F00101016000207047D8
:1017B0002DE9F84304464FF00009CDF80090634846
:1017C0004FF41651A56D0068B0FBF1F72E6894F840
:1017D0005C10082000FA01F131420FD021680A683C
:1017E00052070BD50A6822F004020A6094F85C10D4
:1017F0008840A860606D40F00100606594F85C105E
:101800004FF0010808FA01F0304208D02168496918
:10181000090604D5A860606D40F00200606594F888
:101820005C1004208840304208D02168096889078C
:1018300004D5A860606D40F00400606594F85C1009
:1018400010208840304218D021680968090714D553
:10185000A86020680168490304D50068000308D522
:10186000A16C07E00168C90503D4016821F00801F3
:101870000160216C09B12046884794F85C10202053
:101880008840304231D021680968C9062DD5A8604A
:1018900094F8350005282068016806D0490347D52B
:1018A000006800031DD4616C1CE021F0160101608A
:1018B0002068416921F080014161206C08B9A06C69
:1018C00020B12068016821F00801016094F85C10E3
:1018D0003F208840A86084F8358084F83490216DDA
:1018E0001FE0E16B09B120468847606D00282BD0CE
:1018F000606DC00714D0052084F8350020680168A9
:1019000021F0010101600098401C0090B84203D80A
:1019100020680068C007F6D184F8358084F83490D8
:10192000E16C002910D001B02046BDE8F043084723
:101930000168C905D5D4016821F01001016084F85F
:10194000358084F83490CCE7BDE8F883240000208B
:101950002DE9F041044600F0B1F906465CB10220E1
:1019600084F83500002584F834502068016821F09F
:10197000010101600DE00120BDE8F08100F09EF959
:10198000801B052805D920206065032084F83500D8
:10199000F2E720680068C007F0D12268116820488B
:1019A0000140D4E901031843D4E903363343184313
:1019B00063691843A3691843E3691843236A18430A
:1019C0000843616A042903D1D4E90B13194308437E
:1019D000106020684069666A20F0070130460E43B7
:1019E000012704280CD1A06A0643E06A40B12046D2
:1019F000FFF78EF920B14020606584F83570BAE7B2
:101A0000206846612046FFF76FF994F85C203F217B
:101A100091408160656584F835700020ACE7000076
:101A20003F8010F070B5044690F83400002501287E
:101A30000CD0012084F8340094F835600020012E89
:101A400006D084F834000225284670BD022070BDFF
:101A5000022684F8356060652046FFF783F9206828
:101A6000016841F001010160EEE700002DE9F84F47
:101A7000DFF8F8A10022012403254FF00F090AF135
:101A8000040BAAF1040E00BF0B6804FA02F63340FF
:101A9000B34270D10F7907F00307012F01D0022F55
:101AA00016D187684FEA420805FA08FC27EA0C07B6
:101AB000D1F80CC00CFA08FC4CEA070CC0F808C0BE
:101AC0004768B7430E79C6F3001696403E4346601A
:101AD0000E79F643B6070AD0C7684FEA420C05FAFA
:101AE0000CF6B7438E6806FA0CF63E43C6600E79D4
:101AF00006F00306022E10D1D60800EB8608D8F8AF
:101B0000206057074FEAD76C09FA0CF7BE430F69FC
:101B100007FA0CF73743C8F8207006684FEA420C02
:101B200005FA0CF7BE430F7907F0030707FA0CF725
:101B3000374307604E6816F4403F1CD04C4E376860
:101B400047F480473760366822F0030706F4804682
:101B50000096484E07EB060CDCF8086897073F0F25
:101B600009FA07F826EA0806DFF80C81404503D198
:101B70004FF0000841E072E0DFF80081404502D1FB
:101B80004FF0010839E0DFF8F880404502D14FF00E
:101B9000020832E0DFF8EC80404502D14FF0030844
:101BA0002BE0DFF8E480404502D14FF0040824E048
:101BB000DFF8D880404502D14FF005081DE0DFF87E
:101BC000D080404502D14FF0060816E0DFF8C4800F
:101BD000404502D14FF007080FE0DFF8BC804045D8
:101BE00002D14FF0080808E0DFF8B080404502D18C
:101BF0004FF0090801E04FF00A0808FA07F848EA30
:101C00000608CCF80888DAF800605746D1F804C016
:101C10009E435FEACC2C00D51E433E60DBF800609B
:101C20005F46D1F804C09E435FEA8C2C00D51E436A
:101C30003E60DEF800607746D1F804C09E435FEA5C
:101C40008C3C00D51E433E60084F083F3E68D1F8EB
:101C500004C09E435FEACC3C00D51E433E60521C4C
:101C6000102AFFF411AFBDE8F88F0000083C0140D6
:101C700044380240003001400000024000040240AD
:101C800000080240000C0240001002400014024014
:101C900000180240001C02400020024000240240C4
:101CA000426921EA02030A4043EA02418161704726
:101CB0000AB1816170470904FBE7000001488068B0
:101CC0007047000018000020024881680278114423
:101CD00081607047180000200B4810B5016841F47E
:101CE00000710160016841F480610160016841F4A4
:101CF00080710160032000F08DF80F2000F006F8DD
:101D000000F03EF8002010BD003C024010B5014636
:101D100088B00022192000F05DF8192000F04CF87E
:101D200013480024016841F001010160006805A921
:101D300000F001000690684600F018F900F046F93E
:101D40000C494000B0FBF1F10C480B4A491E0260FF
:101D500040F2E732C0E90324C0E9011400F078FB47
:101D600010B1012008B010BD044800F09FFBF9E756
:101D70004438024040420F0000000140AC07002000
:101D80000C4882B0016841F480410160006800F4B1
:101D9000804000900748001F016841F080510160B9
:101DA0000068002200F0805000900F21901E02B0C9
:101DB00000F010B844380240002809DB00F01F0290
:101DC000012191404009800000F1E020C0F800119D
:101DD00070470000F0B40E4B1B680C46C3F302239F
:101DE000C3F10705042D00D90425191D072901D2C7
:101DF000002300E0DB1E012606FA05F1491E214002
:101E000099409E40761E16403143F0BC02F057BD0B
:101E10000CED00E0064900F0070208684FF6FF03EA
:101E2000184040EA0220034A10430860704700004F
:101E30000CED00E00000FA052DE9F0470E46050024
:101E400065D0DFF81481D8F80000F7B200F00F0079
:101E5000B04207D288F80070D8F8000000F00F00F8
:101E6000B04254D128683D4C810712D5400703D5B4
:101E7000206840F4E05020602878000703D52068EF
:101E800040F4604020602068A96820F0F00008431A
:101E900020602878C0072DD03049686808390128AB
:101EA00012D0022813D0032811D00968890700290D
:101EB0002DDA216821F0030101432160FFF7FEFEC6
:101EC000814641F2883A0EE009688903EFE7096824
:101ED0008901ECE7FFF7F2FEA0EB0901514502D9B9
:101EE0000320BDE8F0872068696800F00C00B0EBC3
:101EF000810FEFD1D8F80010404601F00F01B14238
:101F000007D90770006800F00F00B04201D001202F
:101F1000E7E72878400705D52068E96820F4E05015
:101F2000084320602878000706D52068296920F436
:101F3000604040EAC100206000F058F82168084A7B
:101F4000C1F30311515CC8400649086006480068A7
:101F5000FFF7DCFE0020C4E7003C024008380240E6
:101F6000A8660008240000201C0000200F22026048
:101F70000C4A136803F003034360136803F0F00393
:101F80008360136803F4E053C36012684FF4E053B6
:101F900003EAD20202610448006800F00F00086002
:101FA0007047000008380240003C024004480549E0
:101FB00000680968044AC1F38221515CC840704737
:101FC0002400002008380240B8660008044805498B
:101FD00000680968044AC1F34231515CC840704747
:101FE0002400002008380240B8660008154810B5E3
:101FF000006810F00C02144813D01449042A0FD0C2
:10200000082A0ED10F4C241F2268236802F03F02D9
:102010005B0207D52068C0F38810A0FB010106E031
:10202000084610BD2168C1F38811A1FB00010023FF
:10203000FEF738F92168C1F30141491C4900B0FBA2
:10204000F1F010BD083802400024F400001BB70076
:102050002DE9F84F04006ED02078DFF84C93C007CC
:10206000A9F104054AD009F104000168C1F3810116
:10207000012908D00068C0F3810002280AD1D9F8EC
:102080000000400206D52868800337D56068002824
:10209000E1D033E06068B0F5803F10D0B0F5A02FFC
:1020A000286810D020F480302860286820F4802030
:1020B00028606068A8B1FFF701FE06460DE02868B9
:1020C00040F48030F4E740F480202860F7E700BF58
:1020D000FFF7F4FD801B642873D828688003F7D5C8
:1020E0000CE0FFF7EBFD064605E000BFFFF7E6FD5D
:1020F000801B6428F0D828688003F7D42078DFF8A4
:10210000AC8280074FF0000A3ED5A748001D016849
:1021100011F00C0F08D00068C0F3810002280BD129
:10212000D9F80000400207D42868800716D5E06877
:10213000012800D112E033E1E068B8B10120C8F80D
:102140000000FFF7BBFD064605E000BFFFF7B6FD48
:10215000801B0228C0D828688007F7D52868216925
:1021600020F0F80040EAC10028600DE0C8F800A0A7
:10217000FFF7A4FD064604E0FFF7A0FD801B022840
:102180001FD828688007F7D42078000722D5864F0B
:1021900087486169703771B101210160FFF78EFDD9
:1021A000064604E0FFF78AFD801B022809D838683C
:1021B0008007F7D50EE0C0F800A0FFF77FFD0646C8
:1021C00005E082E0FFF77AFD801B02287DD83868A1
:1021D0008007F7D42078400768D5DFF8CCB1002716
:1021E0000BF13C0BDBF80000C0000BD4DBF8001057
:1021F00041F08051CBF80010DBF80000012700F01F
:10220000805000906B4E3068C00510D4306840F4A8
:1022100080703060FFF752FD009005E0FFF74EFD43
:102220000099401A022850D83068C005F6D55E4E95
:10223000A0686C3601280FD00528306810D020F037
:1022400001003060306820F004003060A068B8B150
:10225000FFF734FD00900FE0306840F00100F4E734
:1022600040F004003060F7E7FFF728FD0099411ABD
:1022700041F28830814266D830688007F4D50EE09C
:10228000FFF71CFD009007E0FFF718FD0099411AC9
:1022900041F28830814256D830688007F4D42FB19B
:1022A000DBF8001021F08051CBF80010A069C8B312
:1022B0003D49091D0968C1F3810102294AD002285C
:1022C000504607D0C8F8600000E03CE0FFF7F6FC9D
:1022D00004463BE04746C8F86000FFF7EFFC0646BF
:1022E00005E000BFFFF7EAFC801B02282BD8286816
:1022F0008001F7D4D4E907010843A16A2E4A4908AE
:1023000002EB0141626A41EA8211084394F82C1001
:1023100040EA0161C9F8001001203866FFF7CEFCE1
:10232000044606E03EE000BFFFF7C8FC001B0228A1
:1023300009D828688001F7D534E000BFFFF7BEFC5C
:10234000001B022802D90320BDE8F88F286880010D
:10235000F4D427E00128F7D0D9F80000E26900F4AE
:10236000800191421CD1226A00F03F01914217D1B5
:1023700047F6C071626A0140B1EB821F10D1A26AB8
:102380004FF0FF3300F4403103EB5202B1EB024F48
:1023900006D194F82C1000F07060B0EB016F01D002
:1023A0000120D1E70020CFE7043802400000474277
:1023B000800E4742007000400000FFFF70477047EA
:1023C00070B590F83C20012A32D0012480F83C40BE
:1023D000022280F83D2003685A689D6822F070064A
:1023E0000A6832435A60134B02689A4214D0B2F121
:1023F000804F11D0104B9A420ED0104B9A420BD006
:102400000F4B9A4208D00F4B9A4205D00E4B9A427E
:1024100002D00E4B9A4204D1496825F0800319433B
:10242000916080F83D40002180F83C10084670BD66
:10243000022070BD00000140000400400008004080
:10244000000C004000040140004001400018004022
:1024500010B5040003D094F83D0010B107E001204E
:1024600010BD002084F83C00204600F01EF8022039
:1024700084F83D00211D206801F038FE012084F819
:10248000460084F83E0084F83F0084F8400084F859
:10249000410084F8420084F8430084F8440084F842
:1024A000450084F83D00002010BD704790F83D10B5
:1024B000012901D001207047022180F83D100168F8
:1024C000CA6842F00102CA6000681149884214D00B
:1024D000B0F1804F11D00F4988420ED00E4988428A
:1024E0000BD00E49884208D00D49884205D00D49CD
:1024F000884202D00C49884204D1816801F007016A
:10250000062903D0016841F00101016000207047F5
:10251000000001400004004000080040000C0040A2
:10252000000401400040014000180040704770B5B1
:102530000446006801694FF00005C943890715D4B6
:10254000C168C943890711D4E91E016101202077C0
:10255000206880698007204602D0FFF7E7FF04E08B
:1025600000F0EEF8204600F09FF925772068016919
:10257000C943490717D4C168C943490713D46FF049
:1025800004010161022020772068806910F4407FF7
:10259000204602D0FFF7CAFF04E000F0D1F8204641
:1025A00000F082F9257720680169C943090716D42C
:1025B000C168C943090712D46FF008010161042002
:1025C00020772068C0698007204602D0FFF7AEFF61
:1025D00004E000F0B5F8204600F066F925772068A1
:1025E0000169C943C90617D4C168C943C90613D4D0
:1025F0006FF010010161082020772068C06910F495
:10260000407F204602D0FFF791FF04E000F098F8E9
:10261000204600F049F9257720680169C943C907B8
:1026200008D1C168C943C90704D1891E0161204688
:1026300000F0A0F920680169C943090609D4C168FE
:10264000C943090605D46FF0800101612046FFF7F8
:10265000B5FE20680169C943490609D4C168C94368
:10266000490605D46FF040010161204600F08CF965
:1026700020680169C94389060BD4C168C94389062A
:1026800007D46FF0200101612046BDE87040FFF7DC
:1026900096BE70BD70B586B0044614216846FDF73D
:1026A0004BFE224A2068002421490225214E9042F7
:1026B00023D1086840F480700860086800F48070D6
:1026C0000590086840F0800008600868694600F0DE
:1026D0008000059001200090CDE901541648CDE915
:1026E0000345FFF7C3F94FF4E0500090CDE90154E2
:1026F00069463046CDE9034513E0104A904212D1B5
:10270000086840F0800008600868694600F08000B2
:10271000059040200090CDE901540920CDE9034007
:102720003046FFF7A3F906B070BD0000000C004072
:1027300030380240001C02400020024000180040D7
:10274000704770B5044690F83C0000260D460128FD
:102750000FD0012084F83C006AB1042A1DD0082A59
:102760002FD00C2A3FD00126002084F83C003046B0
:1027700070BD022070BD206801F02AFD20688169CB
:1027800041F0080181612068816921F004018161C3
:10279000206881692A69114311E0206801F048FD31
:1027A0002068816941F4006181612068816921F4B8
:1027B00080618161206881692A6941EA0221816121
:1027C000D2E7206801F06AFD2068C16941F0080184
:1027D000C1612068C16921F00401C1612068C1693B
:1027E0002A69114311E0206801F08CFD2068C1695D
:1027F00041F40061C1612068C16921F48061C16157
:102800002068C1692A6941EA0221C161ACE710B5BB
:10281000040003D094F83D0010B107E0012010BD82
:10282000002084F83C00204600F01EF8022084F8C6
:102830003D00211D206801F059FC012084F846006C
:1028400084F83E0084F83F0084F8400084F841009A
:1028500084F8420084F8430084F8440084F845007A
:1028600084F83D00002010BD08B50C4A01680C48F2
:10287000914207D1016841F008010160006800F051
:10288000080009E0074A914207D1016841F0400180
:102890000160006800F04000009008BD000C00409E
:1028A00040380240001800407047000010B5044650
:1028B000022249B104290ED0082913D094F841000E
:1028C000012816D0012010BD94F83E000128F9D14E
:1028D00084F83E200FE094F83F000128F2D184F8FC
:1028E0003F2008E094F840000128EBD184F8402014
:1028F00001E084F841200122206801F05BFC1649C8
:102900002068164A884201D0904203D1436C43F4B8
:10291000004343642068884213D0B0F1804F10D048
:102920000F4988420DD00F4988420AD00E4988428B
:1029300007D0904205D00D49884202D00C49884208
:1029400004D1816801F00701062903D0016841F034
:1029500001010160002010BD0000014000040140A1
:102960000004004000080040000C0040004001400E
:102970000018004000680349884201D1FFF7A4B95C
:10298000704700000000014070477047704700002A
:10299000F8B5016804460868CA684B6910F00F0F63
:1029A0004FF0000559D003F0010602F49077374349
:1029B00065D0C10705D0D10503D5216C41F00101D7
:1029C0002164410705D5D90703D0216C41F00201EC
:1029D0002164810705D5D90703D0216C41F004019A
:1029E0002164010707D502F02001314303D0216C97
:1029F00041F008012164216C00293AD0800604D5F9
:102A0000900602D5204601F0FEFC20684069216C4A
:102A1000C0F38010090700D460B3204601F0CCFC5D
:102A200020684069400621D52068143050E8001F16
:102A300021F0400140E80012002AF5D1A06BA8B1B6
:102A40006C490165A06BFEF7A1FE002811D0A06BB8
:102A5000016D01B0BDE8F040084783060FD593062D
:102A60000DD52046BDE8F84001F0CDBC2046FFF76B
:102A70008DFFF8BD2046FFF789FF2564F8BD266B62
:102A80002023012E79D1C60677D5D60675D50868DC
:102A9000486800904869400640D5A16B08684068C6
:102AA0000004000CEAD0A28D8242E7D9E085C86913
:102AB000B0F5807F2DD020680C3050E8001F21F445
:102AC000807140E80012002AF5D12068143050E8E7
:102AD000001F21F0010140E80012002AF5D1206812
:102AE000143050E8001F21F0400140E80012002A95
:102AF000F5D184F83E30256320680C3050E8001F83
:102B000021F0100140E80012002AF5D1A06BFEF779
:102B1000F4FDA08DE18D401A81B229E0A08DE18DF8
:102B2000401A81B2E08D0028A8D00029A6D02068E4
:102B30000C3050E8002F22F4907240E80026002E5E
:102B4000F5D12068143050E8002F22F0010240E84F
:102B50000026002EF5D184F83E30256320680C3025
:102B600050E8002F22F0100240E80023002BF5D19E
:102B70002046FFF70AFFF8BDFFE705062BD515062F
:102B800029D594F83D002128F5D1A068B0F5805FE3
:102B900001D12069B0B1206A411C2162216800780E
:102BA0004860E08C401E0004000CE084E3D1206803
:102BB000C16821F08001C1602068C16841F0400116
:102BC000C160D8E7206A0088C0F308004860206A26
:102BD000801C2062E5E74006CDD55006CBD5CA68FB
:102BE000204622F04002CA6084F83D3000F085F9AA
:102BF000C1E70000A943000870B5040004D094F8B0
:102C00003D00002510B106E0012070BD84F83C5065
:102C1000204600F023F8242084F83D002068C16895
:102C200021F40051C160204601F04EFC206801698A
:102C300021F4904101612068416921F02A0141613C
:102C40002068C16841F40051C1602564202084F8E7
:102C50003D0084F83E00002070BD00002DE9F043E7
:102C600087B0064614216846FDF766FB5648554A6C
:102C7000D6F800C0002403210223082507154FF4CD
:102C80008079944537D1504A1032D2F800C04CF0C8
:102C9000004CC2F800C0126802F0004205920268BF
:102CA00042F010020260006800F0100005908DE80C
:102CB0001A00CDE9031569464448FEF7D7FE454D95
:102CC000434828600005C5E90104C5E903476C6174
:102CD000C5E906492C6228466C62FEF739FE08B148
:102CE000FEF7EEF8B563002205215320AE63FFF72F
:102CF00071F853203CE0344ADFF8DC801432C445DC
:102D00003BD1156845F010051560126802F01002FD
:102D10000592026842F002020260006800F00200C0
:102D20000590C0208DE819000720CDE90310694601
:102D30002A48FEF79BFE274D2948603528604FF052
:102D40000060C5E90104C5E903476C61C5E90649AE
:102D50002C6228466C62FEF7FBFD08B1FEF7B0F866
:102D6000B563002205212520AE63FFF733F8252047
:102D7000FFF722F807B0BDE8F0831A4EB445F9D149
:102D8000166846F020061660126802F020020592CE
:102D9000026842F0400202600068CDE9024100F0A2
:102DA000400005904FF48440CDE900030495694646
:102DB0000D48FEF75BFE002205214720FFF70AF8C9
:102DC0004720D5E7007C0040303802400010024028
:102DD000A0600240EC060020001001400004024008
:102DE00040640240001401400018024090F83E3058
:102DF000202B0ED159B152B190F83C30012B08D0A4
:102E0000012380F83C300023036301F0E3BB012081
:102E1000704702207047000010B5006807498842DB
:102E20000AD10748007803F035FABDE810400122C6
:102E300003490448FFF7DABF10BD0000001001404D
:102E400008030020640600202DE9F843044690F8AA
:102E50003D001F4616460D4620284CD1C5B1BEB1D7
:102E600094F83C00012846D0012084F83C004FF043
:102E70000008C4F84080212084F83D00FEF71EFFC2
:102E8000A6848146E684A068B0F5805F03D004E0A4
:102E90000120BDE8F883206928B12E465FF00005C7
:102EA00084F83C800EE00026FAE78021204601F0FD
:102EB000AEFBA0B9AEB116F8010B21684860E08CFA
:102EC000401EE084E08C4B464FF000020097002843
:102ED000EBD14FF04001204601F099FB30B10320C7
:102EE000D7E735F8020BC0F30800E6E7202084F8A6
:102EF0003D000020CDE70220CBE7704710B50F4C16
:102F0000206848B900F090FDB5EEC00AF1EE10FA65
:102F100002D00120206010BD094C052094ED010A6B
:102F200000F010F894ED030A072000F00BF894ED80
:102F3000050ABDE81040092000F004B8B4000020E4
:102F4000F84B002010B5092821D030DC68B10528E5
:102F500013D007282BD110EE100AFDF780FB41ECAF
:102F6000100B13A053EC102B1AE0BDEEC00A14A0F6
:102F700010EE101A01F080FC14E010EE100AFDF7BC
:102F80006EFB41EC100B11A053EC102B08E010EE7F
:102F9000100AFDF764FB41EC100B10A053EC102B52
:102FA00001F06AFCBDE8104010A001F065BC10BD46
:102FB00074372E7478743D22252E3266220000006C
:102FC00074302E7478743D222564220074352E747A
:102FD00078743D22252E32662200000074392E744A
:102FE00078743D22252E326622000000FFFFFF008C
:102FF000FEE7000000B590ED1A0A014680ED060AD2
:10300000103001F0EFFBD1ED1B0A00F007FA81ED63
:103010001E0A91ED040AB0EEC00A10EE100AB0F1DB
:10302000804F1CDC486F401C4867B0F5FA7F15DB09
:1030300005209FED0C0ADFED0C0A81ED100AC1EDB1
:10304000110A81ED1E0A81ED050A81ED060A81ED66
:103050000E0A81ED030A81ED0D0A086000BD002013
:10306000486700BD00000000000000460F4810B592
:103070000D4901600321416000214FF4102281605D
:10308000C0E903124FF40012426101764176817665
:10309000C17601774177FEF7D0F9002803D0BDE86B
:1030A0001040FDF70DBF10BD006400406805002012
:1030B000114808B5016841F480010160016801F41C
:1030C00080010091016841F4001101600068002254
:1030D00000F40010009005211120FEF77BFE112066
:1030E000FEF76AFE002205213A20FEF773FEBDE8D6
:1030F00008403A20FEF760BE3038024010B5AAB052
:103100001C2221496846FDF7FEF80021684602F0BE
:10311000F5FC1E4C1C491C2220601C3107A8FDF741
:10312000F2F8002107A802F0E9FC174960601C22B0
:1031300038310EA8FDF7E7F800210EA802F0DEFCFA
:103140001149A0601C22543115A8FDF7DCF80021BC
:1031500015A802F0D3FC0C49E0601C2270311CA8B9
:10316000FDF7D1F800211CA802F0C8FC0649206137
:103170001C228C3123A8FDF7C6F8002123A802F0F9
:10318000BDFC60612AB010BDF86500080000002099
:10319000F0B587B014216846FDF7CEF82D4800241D
:1031A000016841F010010160016801F01001059112
:1031B000016841F040010160016801F040010591A2
:1031C000016841F001010160016801F00101059110
:1031D000016841F002010160016801F002010591FE
:1031E000016841F008010160016801F008010591E2
:1031F000016841F480710160016801F480710591FA
:10320000016841F0800101600068134E00F0800009
:10321000059000223C213046FEF74AFD0F4F002268
:1032200006213846FEF744FD3C2000900125CDE9FB
:103230000154694630460394FEF718FC06200090BE
:10324000CDE90154694638460394FEF70FFC07B0F8
:10325000F0BD000030380240001C0240001802405F
:1032600010B588B01C216846FDF766F8144813496C
:10327000002401605321C0E9011440F2F311C0E9B8
:1032800003148461FFF7C3FA08B1FDF719FE60204B
:10329000CDE9000402940022694609480494FFF72E
:1032A00050FA08B1FDF70CFE00210548FFF7FEFAC1
:1032B0000348FFF7EFF908B010BD00000018004008
:1032C000D805002010B58AB0002407941C21684658
:1032D0000894FDF731F823482149016040F2473155
:1032E000C0E9011440F2CF71C0E903148461FFF713
:1032F0008EFA08B1FDF7E4FD079407A91948089470
:10330000FFF75EF808B1FDF7DBFD6020CDE90004B2
:1033100002940022694613480494FFF712FA08B198
:10332000FDF7CEFD042269460E48FFF70AFA08B100
:10333000FDF7C6FD082269460A48FFF702FA08B100
:10334000FDF7BEFD0C2269460648FFF7FAF908B101
:10335000FDF7B6FD0348FFF79DF90AB010BD000068
:10336000000C0040900500200C4810B50A4901608F
:103370004FF4E1314160002181600C22C160C0E95D
:1033800004128161C161FFF737FC002803D0BDE85A
:103390001040FDF795BD10BD007C004020060020C8
:1033A0000E4810B50C4901600D4941604FF4805141
:1033B00081604900C160C91001610C214161002197
:1033C0008161C161FFF718FC002803D0BDE81040FF
:1033D000FDF776BD10BD000000100140640600201E
:1033E000A08601000C4810B50A4901604FF4E13194
:1033F0004160002181600C22C160C0E9041281613A
:10340000C161FFF7F9FB002803D0BDE81040FDF7CC
:1034100057BD10BD00140140A8060020B4EEE00A1C
:10342000F1EE10FA01DDB0EE600AF1EE600AB4EEE2
:10343000E00AF1EE10FA01D2B0EE600A7047000027
:1034400070B504002DED0A8B6CD0A5682846FDF7F9
:1034500006F99FED369B53EC192BFDF71FF894ED01
:1034600000CAD4ED018A41EC1A0B3CEE688A18EED2
:10347000100AFDF7F4F853EC1A2BFDF709F89FED4D
:103480002DAB53EC1A2BFDF709F8FDF713F9A062E9
:103490002846FDF7E4F853EC192BFCF7FFFF7CEE10
:1034A000288A41EC1B0B18EE900AFDF7D8F853EC74
:1034B0001B2BFCF7EDFF53EC1A2BFCF7EFFFFDF78E
:1034C000F9F8E0622846FDF7CAF853EC192BFCF72F
:1034D000E5FF41EC1B0B18EE100AFDF7C0F853ECAA
:1034E0001B2BFCF734FF53EC1A2BFCF7D7FFFDF72F
:1034F000E1F820632846FDF7B2F853EC192BFCF7EE
:10350000CDFF41EC190B18EE900AFDF7A8F853EC2B
:10351000192BFCF71CFF53EC1A2BFCF7BFFFFDF730
:10352000C9F86063BDEC0A8B70BD000022DBF97E38
:103530006ABCCC3FABAAAAAAAAAA404010B5040014
:103540002DED0C8B7DD000202422424900EB80031E
:1035500001EB8303DB6893FBF2F300EE103A04EB1C
:103560008003401CB8EEC00A042883ED0E0AEDDB90
:1035700094ED0E8AD4ED0F8A94ED10BAD4ED11BA01
:1035800038EE280AB1EE4BAAF1EE6BAA30EE4B0AE8
:1035900030EE6B0A10EE100AFDF761F89FED2E9BDE
:1035A00053EC192BFCF77AFFFDF784F838EEC80AC4
:1035B000206130EE0B0A30EE6B0A10EE100AFDF7B8
:1035C0004EF853EC192BFCF769FFFDF773F86061B7
:1035D0001AEE900AFDF743F89FED21DB53EC1D2B0B
:1035E000FCF75CFF41EC1B0B1AEE100AFDF737F8F5
:1035F00053EC1D2BFCF752FF41EC1C0B18EE900A0C
:10360000FDF72DF853EC1D2BFCF748FF41EC1A0B8E
:1036100018EE100AFDF723F89FED131B53EC112B46
:10362000FCF73CFF53EC1A2BFCF732FF53EC1C2B3E
:10363000FCF78DFE53EC1B2BFCF789FE53EC192B8A
:1036400000E004E0FCF72AFFFDF734F8A061BDECD0
:103650000C8B10BDC84A0020B81E85EB51B87E3FC8
:103660001AD48C493FD111401AD48C493FD111C092
:10367000FEE700002DE9F04120212DED028B88B0FE
:103680006846FCF759FE6D4F0026A7F5A8659FED2B
:103690006C8A00BF06EB860007EB8001087A0328DE
:1036A00031D0C6EBC60000EB400805EBC80420464D
:1036B000FDF7F0F9207A012802D084ED038A1FE09B
:1036C00055F83800022810D0052802D0062817D156
:1036D0008FE004F1400000F06BFA94ED190A04F158
:1036E000100184ED050A084602E004F110000146CD
:1036F00001F09EF8084601F075F800BF84ED030A5A
:10370000761C082EC6DB0020DFED4E0AB3EE041A4D
:103710009FED4D0AF2EE041A4FEA0D0100EB800214
:1037200007EB8202127A012A69D0022A75D001EBD6
:10373000800282ED008A401C0828EFDB9DED030A21
:10374000BDEEC00A10EE100A9DED020A03B2BDEEF6
:10375000C00A10EE100A9DED010A02B2BDEEC00AC9
:1037600010EE100A9DED000A01B2BDEEC00A10EE87
:10377000100A00B200F0B6FB9DED040AB5EEC00AD7
:10378000F1EE10FA14D0DDED050AF5EEC00AF1EE07
:1037900010FA0DD0DDED060AF5EEC00AF1EE10FAD2
:1037A00006D0DDED070AF5EEC00AF1EE10FA1BD1E6
:1037B000DDED070ABDEEC00AFDEEE00A10EE900A4C
:1037C000DDED060A03B2FDEEE00A10EE900ADDED33
:1037D000050A02B2FDEEE00A10EE900A01B210EE08
:1037E000100A00B200F0B2FB08B0BDEC028BBDE8DD
:1037F000F0812046FFF7FEFB94ED1E0A7EE7C0EB4A
:10380000C00202EB420205EBC20292ED032A22EE55
:10381000202AC2EE012A0CE0FFE7C0EBC00202EB57
:10382000420205EBC20292ED032A22EE002AC2EE0A
:10383000212A01EB8002C2ED002A7CE7C84A002061
:10384000000000000000804600401C46C0EBC001A4
:10385000154A01EB4101144B52F831209FED130A38
:1038600003EBC101052A02D0022A05D00AE0D1EDFE
:10387000100AC1ED110A05E081ED050A81ED060A85
:1038800081ED070A81ED080A094B81ED0D0A00EB75
:10389000800081ED0E0A03EB800081ED030A002217
:1038A000C2600120087270478845002000000000B7
:1038B000C84A0020FEE70000174870EEC00A194908
:1038C00090ED000A90ED013A30EEC02AB6EE000A03
:1038D00080ED012A62EE002AC0ED000A0F4843EE97
:1038E000002A20EE810AD0ED060A9FED0D1A02EEA5
:1038F000A10A70EE600A00EE810A10EE100A8842FA
:1039000002DDB2EE040A704710EE100A0649884242
:10391000F9D9BAEE040A7047AC000020684B0020C9
:10392000CDCC4C3E00002041000020C126482DEDAA
:10393000028B82B000F16C03A0F16C02A0F1D801FF
:103940000090A0F58E7000F081F8214C9FED1F8A49
:103950009FED200A84ED008ADFED1F8A84ED020AC4
:1039600004F138051A491D4800F03CF81C48FFF7DF
:10397000E5FDFDF7A7FA164820EE080AD4EC020A86
:10398000443002F031F885ED000AFDF7A1FA0E4847
:1039900020EE080A94ED031AD4ED020A6C3802F006
:1039A00023F885ED010A94ED050AF7EE001AB0EE52
:1039B000001AF0EE680AFFF77FFF85ED020A052086
:1039C00002F090F8CEE70000144D002000007A4489
:1039D000F84B0020000000000000B4424C450020DD
:1039E000684B002010B50C4600F024F8B1EE400AF8
:1039F00084ED010A00F018F884ED030A00F020F8C5
:103A000084ED050A10BD0A780D2A0CD14A780A2ADD
:103A100009D18A7E0A2A06D1CA7E0D2A03D118222C
:103A2000891CFCF770BC7047014890ED030A704791
:103A30004C450020014890ED040A70474C45002099
:103A4000014890ED000A70474C4500202DE9F041F7
:103A50001E462DED0A8B17460446F0EE005A9FEDE8
:103A60004B8AB0EE485A9FED4A9AF0EE494ADFED94
:103A7000499AF0EE483AB0EE483AB0EE694A9FED06
:103A800046AAB0EE492AF0EE4A2ADFED44AAF0EE4B
:103A90006A1A9FED43BAB0EE4B1ADFED42BAF0EE70
:103AA0006B0A9FED41CA0846109DB0EE4C0A01F02A
:103AB00047FFDFED3E8AB2EE045AF2EE0E4AF0EE18
:103AC000685AB2EE084AF0EE003AB7EE003AF3EE6A
:103AD000022AB2EE0E2AF0EE6A1AB0EE4B1AF0EE9F
:103AE0006B0AB0EE4C0A304601F02AFFF0EE005AA5
:103AF000B0EE485AF0EE494AB0EE694AF0EE483A64
:103B0000B0EE483AF0EE4A2AB0EE492AF0EE6A1AD0
:103B1000B0EE4B1AF0EE6B0AB0EE4C0A384601F0EC
:103B20000FFFF6EE005AB0EE485AF0EE494AB0EEFA
:103B3000694AF0EE483AB0EE483AF0EE4A2AB0EE62
:103B4000492AF0EE6A1AB0EE4B1AF0EE6B0AB0EEAC
:103B50004C0A284601F0F4FE0B2084F827001520BB
:103B600084F8260084ED0A8A84ED0B8A002084F80C
:103B7000240084F8250084ED058AC4ED0C8AC4ED88
:103B80000D8ABDEC0A8BBDE8F0810000000000004A
:103B90008FC2753CA69B443CBC74933C0000C84259
:103BA0000000C8C200007A4300007AC30000484207
:103BB00010B504462DED048BF7EE008A90ED010A56
:103BC000D0ED000A30EE600A80ED020AD0ED070A5F
:103BD00090ED081AB5EEC00A20EE208AD0ED030A57
:103BE00080ED030A70EE600A01EE208AF1EE10FA11
:103BF00001D2FFEE008AD4ED050A9FED1B1A60EE9C
:103C0000810A60EEA80A20EE800A10EE100AFCF786
:103C100026FD41EC100B00F0D3FFB0EE409AF0EE21
:103C2000609A18EE900AFCF71AFD53EC192BFCF77A
:103C300035FCFCF73FFD00EE100AB0EEC81AF0EEBE
:103C4000C00AF4EEC10AF1EE10FA01D2B0EE408AD9
:103C5000D4ED040AB0EE480AFFF7E0FB84ED090A50
:103C6000BDEC048B10BD00003333B33F094C002082
:103C700004F11405A0840849A01C00F067F8294647
:103C8000A01C00F029F8284600F008F8032001F0F5
:103C900029FFF0E7D04B0020E444002000B50246A5
:103CA00000780023012802D10A4948801370507817
:103CB000012800D153709078012802D100F03EF81D
:103CC0009370107A012800D11372507A012800D124
:103CD000537200BDB800002010B504780122002303
:103CE000012C12D00B714478012C14D04B71C47884
:103CF000012C16D08B718078E0B1887AB8B1C87A7F
:103D0000002801D1CA724A7210BD0C79002CEAD188
:103D10000A710A70E7E74C79002CE8D14A714A70C1
:103D2000E5E78C79002CE6D18A718A70E3E78A7224
:103D30000A7210BD8B72CB7210BD00000248018860
:103D4000491C018070470000B80000202DE9F04FA9
:103D5000C87D0C2801D0012000E00020DFF87CE1C4
:103D600083468EF82000B1F80100C0F30A045C48D5
:103D700004808A78CB78D20842EA4312C2F30A035D
:103D80004380CA780D79920942EA85024D7942EA68
:103D90008522C2F30A0787804A798D79520842EA60
:103DA000C512C2F30A02C2808D79CE792D0945EA87
:103DB0000615C5F30A050581AA46CD790E7AED09E7
:103DC00045EA46054E7A45EA4625C5F30A0545818A
:103DD000A9464D7A8E7AAD0845EA8615C5F30A06DE
:103DE00086818D7A91F80BC06D0945EACC05C581B5
:103DF000B1F80CC0CCF30A0CA0F810C091F80D80FB
:103E0000897B4FEAD80848EA4111C1F30A0141828F
:103E1000A2F2F730132801D2002201E0A2F580625D
:103E2000AEF80A20A7F2A66252427046132A01D2C7
:103E3000002202E0A7F29D677A420281A4F2F732E3
:103E4000132A01D2002401E0A4F58064A3F2F73222
:103E5000C481132A01D2002301E0A3F580634FF44B
:103E60007A728381924501DD012300E0002340F254
:103E7000E2448370A14501DD012300E00023C3700B
:103E8000BCF5FA7F09DD40F2E733ACF2F51C9C4546
:103E900001D2012302E0022300E0002303719142DA
:103EA00001DD012100E000214171A6F5997240F287
:103EB0006D518A4200D30026A5F5997206828A4286
:103EC00000D300254582BBF1000F05D100214181BF
:103ED0000181C181AEF80C10BDE8F08FD04B0020FD
:103EE0003645002030B5174C89B025686D1C25601B
:103EF0004FF4007502950395002504950595082556
:103F00000695050A8DF800508DF80100080A8DF815
:103F10000200100A8DF804008DF80520180A8DF8AB
:103F200006008DF803108DF8073008AB6A4602A929
:103F30000548FDF725F8002802D0A068401CA060C5
:103F400009B030BD940000206805002030B5154C44
:103F500089B025686D1C256040F2FF14029403941B
:103F600000240494059408240694040A8DF8004063
:103F70008DF80100080A8DF80200100A8DF804007F
:103F80008DF80520180A8DF806008DF803108DF8BD
:103F9000073008AB6A4602A90348FCF7F1FF09B0F5
:103FA00030BD0000940000206805002000EB800276
:103FB0000C49C0EBC00001EB82010B4A097A00EB0F
:103FC000400002EBC000022909D0012906D1DFED33
:103FD000070A00BF20EE200A80ED050A7047DFEDDA
:103FE000040AF7E7C84A0020884500204206264018
:103FF0004F499D40054C4FF4FA7502212046FDF7CC
:104000004FFE284601F06EFDF7E700000018024061
:1040100010B5502080F31188BFF34F8FBFF36F8F1F
:1040200002F022FA18B104494FF0805008600020D5
:1040300080F3118810BD000004ED00E030B593B0AE
:1040400030216846FCF778F914210CA8FCF774F9C4
:104050001D480025016841F080510160006800F0B2
:10406000805011901948016841F440410160006896
:10407000022400F4404011900120009000040190BF
:104080008001CDE9064006200890A820CDE909046A
:1040900004200B906846FDF7DBFF08B172B6FEE71F
:1040A0000CA90F2081E831004FF4A0500F904FF47D
:1040B0008050109005210CA8FDF7BEFE002801D00D
:1040C00072B6FEE713B030BD4038024000700040C9
:1040D0000248016841F470010160704788ED00E01A
:1040E0000148FEF724BA0000AC070020F0B50268D2
:1040F000254C264D264E274F274B4FF0804CA04293
:1041000009D0604507D0A84205D0B04203D0B842DC
:1041100001D0984204D122F0700E4A6842EA0E02A1
:10412000A0421BD0604519D0A84217D0B04215D08C
:10413000B84213D0984211D0184DA8420ED0184D55
:10414000A8420BD0174DA84208D0174DA84205D061
:10415000164DA84202D0164DA84203D122F4407554
:10416000CA682A434D6922F080022A4302608A68A5
:10417000C2620A688262A04201D0984201D10969F4
:10418000016301214161F0BD0000014000040040D5
:1041900000080040000C00400004014000400140C5
:1041A000004401400048014000180040001C00404D
:1041B0000020004010B501F01F030121046A99405E
:1041C0008C430462016A9A401143016210BD0000F1
:1041D000F0B5026A22F001020262036A4268846951
:1041E000124E24F073050C682C4323F002058B68F3
:1041F0002B430D4DA84201D0B04205D123F0080752
:10420000CB683B4323F00403A84201D0B04205D160
:104210004D6922F4407215438A692A4342608461E1
:10422000496841630362F0BD0000014000040140A1
:10423000F0B5026A22F010020262026A43688469E1
:104240000D6824F4E64444EA05248D6822F0200237
:1042500042EA05120F4D104EA84201D0B04206D1DD
:10426000CF6822F0800242EA071222F04002A84200
:1042700001D0B04207D14D6923F4406343EA85037E
:104280008D6943EA85034360846149688163026202
:10429000F0BD00000000014000040140F0B5026ADA
:1042A00022F480720262026A4368C46922F40072D6
:1042B00024F073050C68124E2C438D6842EA0522E7
:1042C0000E4DA84201D0B04206D1CF6822F4006260
:1042D00042EA072222F48062A84201D0B04207D10C
:1042E0004D6923F4405343EA05138D6943EA0513EE
:1042F0004360C4614968C1630262F0BD00000140CF
:104300000004014030B5026A22F480520262046A5D
:104310004268C3690D6823F4E64343EA05238D68C8
:1043200024F4005444EA0534084DA84202D0084D54
:10433000A84204D14D6922F4804242EA85124260CB
:10434000C36149680164046230BD0000000001409F
:10435000000401400C4C002020806080FCF748FBEA
:10436000012060809FED090A0020FEF7EBFD032588
:10437000208810B1012800D16580FEF7BFFD3220F2
:1043800001F0B0FBF4E70000B80000208079F047AE
:1043900010B5044800F0C4F9BDE810400148FEF72C
:1043A000F7BA00002006002010B5806B0021C185FF
:1043B000C184FEF7EBFA10BD01680C3151E8002F03
:1043C00022F4907241E80023002BF5D101681431EA
:1043D00051E8002F22F0010241E80023002BF5D123
:1043E000016B012909D101680C3151E8002F22F03D
:1043F000100241E80023002BF5D1202180F83E1067
:1044000000210163704708B590F83E10222901D0C1
:10441000022008BD82684FF480539A4201D101699D
:1044200021B1816A9A421BD04AB10AE00268816ACE
:104430005268C2F308020A80816A891C08E0026996
:1044400072B10268526802F07F020A70816A491CE8
:104450008162C18D491E0904090CC18503D019E090
:1044600002685268F1E70168CA6822F02002CA6057
:104470000168CA6822F48072CA6001684A6922F041
:1044800001024A61202180F83E10016B012903D00E
:10449000FEF7C2FC002008BD0021016301680C3159
:1044A00051E8002F22F0100241E80023002BF5D143
:1044B00001680A68D20602D50A6849680091818DB0
:1044C000FEF763FAE6E7000070B50446006801698C
:1044D000E26821F44051114301612169A068E26959
:1044E00008436169114308432168CA6849F20C63B3
:1044F0009A430243CA6020684169A26921F440716D
:104500001143416131492068884202D030498842D4
:1045100002D1FDF75BFD01E0FDF748FDE2690023F4
:10452000192164253226B2F5004F626828D0A0FB1D
:104530000101930F9200FBF7B5FE0146B0FBF5F0C9
:104540006FF01802504301EB800006EB0010B0FB47
:10455000F5F000F0F002B1FBF5F002EB0012B1FB58
:10456000F5F06FF01803584301EB800006EB0010E4
:10457000B0FBF5F000F00F0021681044886070BDBA
:10458000A0FB010192185B41FBF78CFE0146B0FBDA
:10459000F5F00201B1FBF5F06FF01803584301EBA1
:1045A000800006EBC000B0FBF5F000F0F80002EB75
:1045B0004002B1FBF5F0584301EB800006EBC00070
:1045C000B0FBF5F000F00700D6E700000010014056
:1045D0000014014081628285C2850021016422228B
:1045E00080F83E2080F83C10016921B10168CA685A
:1045F00042F48072CA6001684A6942F001024A616D
:104600000068C16841F02001C160002070472DE9B9
:10461000F041984617460E460446069D27E0681C62
:1046200025D02DB1FDF74AFBA0EB0800A8421ED90A
:1046300020680C3050E8001F21F4D07140E80012CF
:10464000002AF5D12068143050E8001F21F0010144
:1046500040E80012002AF5D1202084F83D0084F8BB
:104660003E00002084F83C000320BDE8F081206873
:10467000006836EA000004D00020B842CFD0002005
:10468000F3E70120F9E7000010B5044800F048F80E
:10469000BDE810400148FEF77BB900006406002029
:1046A0000148FEF775B90000A80600200146014840
:1046B000FFF7A9B94C450020FEE7000070B504469D
:1046C00000681249884205D1A06B00684168322118
:1046D000416070BD0E493825884203D1A06B006847
:1046E000416810E00B498842F3D1A06B016849682A
:1046F000094A1160006840681C2802D10748FFF78A
:10470000D5FFA06B0068456070BD0000001001403F
:1047100000140140007C004090000020194500205A
:1047200038B5044600680168C90614D5C168C906D1
:1047300011D5016840680090A06B0068016821F005
:10474000010101602046FFF7B9FFA06B0068016816
:1047500041F00101016038BD00681B4982B0884208
:104760000CD11A480068016841680091C16841F0A5
:104770001001C16032221649144820E015498842D0
:104780000DD115480068016841680091C16841F089
:104790001001C1600E49382219310F480FE00F494E
:1047A00088420FD10E480068016841680091C168D5
:1047B00041F01001C160064938220948353102B084
:1047C00001F0F0BB02B07047001001406406002009
:1047D000E444002000140140A8060020007C0040B2
:1047E0002006002000B590ED020AD0ED000A70EE20
:1047F000600AC0ED040A90ED090A90ED081A01EE76
:10480000200A80ED090AD0ED0B0AFEF707FE80EDC5
:10481000090AD0ED070A90ED041A00EE810A80ED36
:104820000A0AD0ED0B0AFEF7F9FD80ED0A0A00BD79
:10483000D0ED010A90ED051A90ED020A70EEC11A52
:10484000F4EEC01AF1EE10FA02DD30EE010A0AE0D1
:1048500090ED061A70EE811AF4EEC01AF1EE10FA1D
:1048600004D230EE410A80ED020A7047C0ED020A20
:1048700090ED020A704700000FB4054B10B503A974
:10488000044A029800F06EFB10BC5DF814FB0000B7
:10489000415700080C0300204100080218BF042003
:1048A0000A0E18BF40F001004FF07F4232EA0101CA
:1048B00008BF40F00200012808BF05207047090723
:1048C000090E002804DB00F1E02080F80014704796
:1048D00000F00F0000F1E02080F8141D7047000088
:1048E00010EE101A08B5444A6846B2EB410F28D9B9
:1048F0004FF0E640B0EB410F94BF00204FF0FF3087
:1049000000900098002861DB60EE000A10F0010FB3
:1049100045D010F0020FDFED391A9FED391A00EE85
:10492000E11ADFED381A40EE811A21EEA01AF0EEFE
:10493000400A40EE010A08BFF1EE600AB0EE600ADC
:1049400008BD314B21F0004293423CD911F0004F99
:10495000DFED2E0A20EE201ADFED2D0A19BF31EE11
:10496000601A71EE200A31EE201A71EE600ABDEE77
:10497000E01A11EE100A9FED271A00F0030000EE76
:10498000C10A9FED251A009000EEC10A9FED231A7F
:1049900000EEC10A9FED221A00EEC10AB1E79FEDB9
:1049A000211A9FED210A10F0020F00EE810A9FEDFF
:1049B0001F1A00EE801AB7EE000A00EE810A18BF37
:1049C000B1EE400A08BD00F04BF99AE710EE100A6C
:1049D0004000B0F17F4F3CBFB7EE000A08BD07D1E1
:1049E0004FF0010000F0F6F9BDE8084000F028B9EA
:1049F000BDE8084000F021B9B61F927E336D4C39F6
:104A0000DA82083CA0AA2ABE490E494683F9223F11
:104A10000000004B0000C93F00A0FD390020A23378
:104A20001A61342CB93AB2BACA9F2A3DDDFFFFBEE3
:104A300000B510EE101A2DED028B81B0524A684677
:104A4000B2EB410F2ED94FF0E640B0EB410F94BFCF
:104A500000204FF0FF3000900098B0EE408A002810
:104A60006ADB10F0010F4BD068EE080A9FED471A81
:104A70009FED470A00EE810A9FED461A10F0020FE3
:104A800000EE801AB7EE000A00EE810A02BF01B004
:104A9000BDEC028B00BD00BF01B0B1EE400ABDEC21
:104AA000028B00BD3C4B21F00042934241D911F0F2
:104AB000004FDFED3A0A20EE201ADFED390A19BF68
:104AC00031EE601A71EE200A31EE201A71EE600AA2
:104AD000BDEEE01A11EE100A9FED321A00F003004D
:104AE00000EEC10A9FED301A009000EEC10A9FED62
:104AF0002F1A00EEC10A9FED2E1A00EEC10AABE795
:104B000028EE080A9FED2B1ADFED2B0A10F0020F9A
:104B100040EE410A9FED291A00EE201A61EE000ACC
:104B2000B0EE480A08EE200AB6D101B0BDEC028B07
:104B300000BD00F095F88FE718EE100A4000B0F1C4
:104B40007F4F0DD218EE100AFFF7A6FE042808BF0B
:104B500000F07EF8B0EE480A01B0BDEC028B00BD5B
:104B600009D1012000F036F901B0BDEC028B5DF8EF
:104B700004EB00F065B801B0B0EE480ABDEC028B62
:104B80005DF804EB00F059B8B61F927EB93AB2BA9C
:104B9000CA9F2A3DDDFFFFBE490E494683F9223FE9
:104BA0000000004B0000C93F00A0FD390020A233E7
:104BB0001A61342C336D4C39DA82083CA0AA2ABE23
:104BC00000B52DED048BB0EE409AF0EE609A83B004
:104BD00051EC190BFBF765FE41EC180B18EE100AAF
:104BE00018EE901A8DED008B002818BF01200843A5
:104BF00020F00040C0F17F6000F1E040C00F14D011
:104C000019EE101A19EE900A8DED009B002918BFBD
:104C10000121084320F00040C0F17F6000F1E04036
:104C2000C00F04BF012000F0D5F8B0EE480A03B071
:104C3000F0EE680ABDEC048B00BD30EE000A704750
:104C4000DFED020A80EEA00A7047000000000000BD
:104C50009FED020A20EE000A7047000000000010DD
:104C60002DE9F0014FF07F42B2EB410F9FBF4FF0B3
:104C7000FF310160BDE8F00170474FF0004242EAA9
:104C80000123C1F3C752783A551112F01F0C434C5F
:104C9000CCF120067C44C1F3C752A2F178024FEA5E
:104CA000621204EB820254F8254008BFD2E9015693
:104CB00012D0556804FA0CF425FA06F73C439768BD
:104CC00005FA0CF527FA06F8D26807FA0CFCF24050
:104CD00045EA08054CEA0206A4FB034CA5FB035277
:104CE000A6FB03631D449D4234BF01260026131911
:104CF000334416B1934202D903E0934201D2012218
:104D000000E00022624402F1200C9206DC0C42EA30
:104D1000443200EE102A5B03DFED210AF8EEC01AE0
:104D200000EE103A4FEA9C1C11F0004FB8EE400A1A
:104D3000C0F800C020EE201A00EE105ADFED190A6C
:104D4000B8EE400A20EE200A71EE810A70EE800A69
:104D500010EE902A02F500626FF30B0200EE902A2B
:104D600070EEE11A31EEC11ADFED101A30EE411A81
:104D70009FED0D0A20EE800A01EE210A9FED0C1A2C
:104D800000EE810A04BFBDE8F0017047CCF180510C
:104D90000160BDE8F001B1EE400A7047581E000006
:104DA000000000360000802C22AAFD29DB0FC92F4D
:104DB0000000C92F02E008C8121F08C1002AFAD15A
:104DC00070477047002001E001C1121F002AFBD18B
:104DD0007047000001490860704700001003002080
:104DE0002DE9FF5F82B00021DDE90430020DDDF81E
:104DF00040B0034318D044F61050A2F2FF324243B1
:104E00001514119801281FD0A5EB0B00401C5FEA78
:104E1000000A4FF000064E4FDFF83891B04650467A
:104E200015D5CAF1000413E0119801244AA3012802
:104E300001D16FEA0B010298119AC0E90031C0E973
:104E4000024206B0BDE8F09FCBF10000DFE7044668
:104E50000021404A491842EB0450CDE9001012E00D
:104E6000E00707D032463B4640464946FBF716FB73
:104E70008046894632463B4610461946FBF70EFBF4
:104E800006460F466410002CEAD1DDE90401DDE995
:104E90000023BAF1000F06DAFBF700FB42464B464F
:104EA000FBF7FCFA05E0FBF76BFB42464B46FBF7D2
:104EB00067FB04460E460022284BFBF7E3FB03D8B2
:104EC0004FF0FF30014607E00022254B20463146D7
:104ED000FBF73DFAFBF736FD102409E0002C0ADB56
:104EE0000A220023FBF7DEF9039B30321A55641EB9
:104EF00050EA0102F2D1641C039AC4F11103144474
:104F0000119A012A03D0012208430DD10AE0084377
:104F100004D000204FF0110B119072E7A3EB0B05AA
:104F20006D1E0DE05B4504DD4FF0000205F101054B
:104F300004E003DA4FF00002A5F10105002AECD0ED
:104F400002981199C0E90231C0E9004579E70000F3
:104F5000000014400000F03F300000000000F0436B
:104F60000000E03F2DE9FF4F95B09B46894606467D
:104F700000250FE2252877D100242746F84A012191
:104F8000059400E0044316F8013F203B01FA03F0CA
:104F90001042F7D130782A2811D06FF02F033078E3
:104FA000A0F13002092A16D8059A44F0020402EB57
:104FB000820203EB42021044761C0590EFE759F899
:104FC000042B0592002A03DA504244F40054059061
:104FD00044F00204761C30782E2816D116F8010F02
:104FE00044F004042A280DD06FF02F023078A0F18D
:104FF0003003092B09D807EB870302EB4303C718DB
:10500000761CF3E759F8047B761C30786C280FD0B7
:1050100006DC4C2817D068280DD06A2814D104E08B
:10502000742810D07A280FD10DE044F400140AE05F
:1050300044F4801401E044F440147278824202D1B6
:1050400004F58014761C761C307866280BD013DCAF
:10505000582877D009DC002875D04528F6D0462896
:10506000F4D047281AD19DE118E0632835D0642890
:1050700079D0652812D195E1702873D008DC6728B3
:10508000F1D069286FD06E280DD06F2806D1B5E019
:1050900073282CD0752875D0782874D05A46179963
:1050A00090476D1C75E1C4F30250022809D0032813
:1050B0000DD0D9F8001004280DD00D6009F10409B5
:1050C00067E1D9F80010EA17C1E90052F6E7D9F80C
:1050D00000100D80F2E70D70F0E719F8041B8DF851
:1050E000001000208DF80100EA46012003E059F885
:1050F00004AB4FF0FF3061074FF0000102D40DE028
:1051000008F101018846B9420FDA8045F8DB1AF848
:1051100008100029F4D108E008F101018846814215
:10512000FADB1AF808100029F6D105985B46A0EBC7
:10513000080721463846179A00F094FA284400EBF5
:10514000080507E04DE029E10DE01AF8010B5A4689
:1051500017999047B8F10108F7D25B4621463846C7
:10516000179A13E142E00A220092C4F302524FF070
:10517000000A022A08D059F804CB032A4FEAEC713E
:105180000AD00DE029E02AE009F1070121F0070229
:10519000F2E802C1914609E00FFA8CFC4FEAEC718B
:1051A000042A03D14FFA8CFC4FEAEC71002907DA8C
:1051B0000A460021DCF1000C61EB02012D2202E025
:1051C000220504D52B228DF80420012203E0E207FA
:1051D00001D02022F7E7904659E00A2102E0102290
:1051E0000DE010214FF0000A00910BE010224FF06B
:1051F000000A44F004040827009203E008224FF05C
:10520000000A0092C4F30252022A05D059F804CBD6
:105210000021032A08D009E009F1070121F0070263
:10522000F2E802C1914605E01FFA8CFC042A01D184
:105230000CF0FF0C4FF00008220728D5702806D08C
:10524000009B83F0100353EA0A0305D00EE04022CE
:105250008DF80420012208E05CEA010206D0302229
:105260008DF804208DF8050002229046009B83F003
:10527000080353EA0A030AD15CEA010201D162077A
:1052800005D530228DF804204FF001087F1E5828E4
:1052900004D034A003900EA802900DE036A0F9E7E8
:1052A00053466046009AFAF7FDFF84460398825CF5
:1052B0000298401E029002705CEA0100F0D1029850
:1052C00006A9081A00F1200A600702D524F48034E8
:1052D00000E00127574502DDA7EB0A0000E00020AF
:1052E00000EB0A01009005984144401A0590E00344
:1052F00006D45B462146179A059800F0B3F9054499
:10530000002706E001A85A46C05D179990476D1C1A
:105310007F1C4745F6DBE0030CD55B462146179A18
:10532000059800F09FF9054404E030205A4617998B
:1053300090476D1C0099481E00900029F5DC08E09C
:10534000029802995A460078491C02911799904791
:105350006D1CBAF10001AAF1010AF1DC65E100005F
:10536000092801003031323334353637383961623B
:1053700063646566000000003031323334353637FF
:1053800038394142434445460000000000F058F9D6
:105390000544761C307800287FF4ECAD19B028461F
:1053A000BDE8F08F620700D4062709F1070222F05A
:1053B000070CFCE80223E14603F000485FEA080C12
:1053C00002D00FF2702C0DE05FEA045C02D50FF200
:1053D000682C07E05FEAC47C02D00FF2602C01E089
:1053E000AFF2700C4FF0FF3823F00043CDF850C0FF
:1053F00065280CD006DC452809D046281DD0472852
:105400003DD13DE0662818D067287ED138E00021E4
:10541000112F01DB112000E0781CCDE9000106A965
:105420000EA8FFF7DDFCDDE90F010E9A03910021C4
:10543000009207F1010A04914DE04FF000400097FF
:10544000CDE9011006A90EA8FFF7CAFCDDE90F029D
:1054500003920E9B11990022DDF80CA00093049298
:1054600011B9791C00EB010AB7EB0A0004D4C0F1B2
:10547000FF3007F1010A0490AAEB0700019044E015
:10548000012F00DA01270021112F01DD112000E09A
:105490003846CDE9000106A90EA8FFF7A1FCDDE919
:1054A0000F010E9A0391002104910092BA46210740
:1054B0000CD40399514500DA8A46BAF1010F05DD93
:1054C000009AAAF10101515C302908D0B84202DAF1
:1054D00010F1040F06DA0121CDE9011015E0AAF15F
:1054E0000101E9E7002805DC049901440491AAEBD5
:1054F000000102E0411C514500DD8A460499401A32
:10550000401C01904FF000400290200704D4019805
:10551000504501DBCDF8048000208DF84F00029843
:105520000DF14F07B0F1004F25D02B200E900298BF
:105530004FF0020800280CDA404202902D200E9015
:1055400007E00A210298FBF7D1F83031029007F802
:10555000011DB8F10001A8F10108F2DC0298002851
:10556000EFD1791E0E980870307800F0200040F0DE
:10557000450007F8020D12A8C01B00F10708149897
:10558000007800B1012000EB0A01019801EBE07105
:1055900005984144401A401E0590E00306D45B463E
:1055A0002146179A059800F05DF805441498007894
:1055B00018B15A46179990476D1CE00324D55B46F5
:1055C0002146179A059800F04DF805441CE0049810
:1055D000002807DBDDE90301884203DD0098405C19
:1055E000179901E0179930205A469047049805F121
:1055F0000105401C04900198401E019004D12E200A
:105600005A46179990476D1CBAF10001AAF1010A98
:10561000DDDC05E017F8010B5A46179990476D1C21
:10562000B8F10001A8F10108F4DC5B462146179AA5
:105630000598ABE62D0000002B00000020000000C4
:105640002DE9F041044600251E461746880404D47F
:1056500005E039462020B0476D1C641EF9D5284668
:10566000BDE8F0812DE9F041044600251E46904634
:10567000C80301D5302700E02027880404D505E0C1
:1056800041463846B0476D1C641EF9D52846BDE832
:10569000F0810000024A106001480C300160704740
:1056A0002818004001EE101A02EE900AB7EE002A08
:1056B000B8EEC11AF8EEE22A72EE601A21EE001A74
:1056C00062EE802A32EE400A02EE102A21EE211A02
:1056D000B8EEC22A02EEA01A20EE022A02EE201A2A
:1056E00000EE903AF8EEE00A60EE200AB0EE410AD1
:1056F00000EEA10A704780ED000AD0ED021AD0ED4D
:10570000030A31EEA01A81EE812AD0ED011A62EE71
:10571000211A80EE812A42EE001AC0ED011A70476C
:1057200080ED030A91ED000A80ED020A9FED030A65
:1057300080ED000A80ED010A7047000000000000C3
:1057400013B54FF6FF73012269460248FDF77CFB53
:1057500000981CBDA8060020F0B5D0ED0C0A90ED15
:10576000101A0446F4EEC10AF1EE10FA0ADC94EDC8
:105770000F1AF4EEC10AF1EE10FA03D3D4ED111AA8
:1057800080EEA11AD4ED130AF4EEC00AF1EE10FA7D
:105790000AD3D4ED120AF4EEC00AF1EE10FA03DCDB
:1057A000D4ED141AC0EE210AB0EE080A604971EE79
:1057B000001A604AFDEEE11A11EE900A06B270EE90
:1057C000801AFDEEE11A11EE900A05B211EE100AF0
:1057D000884202DDB0EE081A05E011EE100A904290
:1057E00001D9B8EE081A10EE900A884202DDF0EEF8
:1057F000080A05E010EE900A904201D9F8EE080A76
:10580000052E01DD052602E0002E00DA0026052D1A
:1058100001DD052502E0002D00DA002530EE804A8A
:1058200071EE004A00EE905A00EE106A4248C6EB54
:10583000C607F8EEE00AB8EEC00A00EB870C0CEBE6
:10584000850074EE600AD0E9072334EEC00AB7EE93
:10585000003A41685CF8250073EE600A33EE400AB6
:10586000FFF720FFD4ED020AF6EE003A94ED011A9C
:1058700060EEA30A3048C43041EE230A94ED031AC7
:1058800000EB870C0CEB850041EE000A00EE105A8D
:10589000B8EEC00AC4ED000AD0E9072334EE400A8E
:1058A00041685CF8250073EE400A00EE106AB8EE1D
:1058B000C00A34EEC00A33EE400AFFF7F3FED4ED1F
:1058C000060A94ED051A1D4860EEA30A00EB87074F
:1058D00007EB850041EE230A94ED071A41EE000A1A
:1058E00000EE105AB8EEC00AC4ED040AD0E907234E
:1058F00034EE400A416857F8250073EE400A00EE86
:10590000106AB8EEC00A34EEC00A33EE400AFFF760
:10591000C9FED4ED0A0A94ED091A60EEA30A41EE1D
:10592000230A94ED0B1A41EE000AC4ED080AF0BDFB
:1059300000004040000040C0BC00002044020020A5
:105940009FED276A80ED006A80ED012AC0ED022AF2
:1059500072EEC22A9FED232A62EE822AC0ED032A4C
:1059600073EEC32A80ED046A80ED053AC0ED063A75
:1059700062EE822AC0ED072A74EEC42A80ED086A1E
:1059800080ED094AC0ED0A4A62EE822AC0ED0B2A78
:1059900080ED0C6A80ED0D6A80ED0E6A80ED0F0AD5
:1059A00030EEC00AC0ED100A20EE020A80ED110AA6
:1059B00031EEC10A80ED121AC0ED131A20EE020A70
:1059C00080ED140A80ED156A80ED166A80ED176A85
:1059D00080ED186A80ED195AC0ED1A5A7047000020
:1059E00000000000ADAA2A3E10B5C0ED150A80EDFA
:1059F000161AD0ED0C1A70EEC10AC0ED0D1A04464D
:105A0000C0ED0C0A70EEE10AC0ED0E0AFFF7A4FE2D
:105A100094ED170AD4ED040A94ED0C1A00EE810AF5
:105A200084ED170AD4ED190AB4EEE00AF1EE10FA8B
:105A300006DCF1EE600AB4EEE00AF1EE10FA01D2F3
:105A4000B0EE600A84ED170AD4ED000A00EE810A78
:105A5000D4ED080A94ED0E1A00EE810A84ED180ABE
:105A6000D4ED1A0AB4EEE00AF1EE10FA06DCF1EE1B
:105A7000600AB4EEE00AF1EE10FA01D2B0EE600A6C
:105A800010BD0000FCF728F9FEF7D8FAFDF780FBFF
:105A9000FDF7ECFAFDF70CFBFDF714FCFDF780FCBD
:105AA000FDF7A0FCFDF760FCFDF7DAFB0748FEF709
:105AB00053FE0748FEF750FE0648FEF74DFEFAF784
:105AC000CDFFFDF71BFB00F014F8FEE76406002095
:105AD000A80600202006002001460020842900D0CE
